:10000000000001203D020000950200009702000060
:10001000990200009B0200009D0200000000000009
:10002000000000000000000000000000F5350100A5
:10003000A1020000000000001936010085740000D4
:10004000BFC70000AB0200002DC9000059C100006D
:10005000B1020000B302000001ED0000B702000091
:10006000B9020000BB020000BD0200004DF5000017
:10007000C1020000C3020000C5020000C702000068
:10008000C90200002D3E0100CD020000CF02000099
:10009000D1020000D3020000D5020000D702000008
:1000A000D9020000DB020000DD020000DF020000D8
:1000B000E1020000E3020000A7020000A702000026
:1000C000E5020000E7020000E902000071C1000043
:0C00D000ED020000EF020000F102000051
:1000DC00364937480A1A02D0072291438D463549D2
:1000EC0035480A1A06D00722914381F30988022267
:1000FC0082F3148831483249324A00F045F83248CC
:10010C003249334A00F040F832483349334A00F060
:10011C003BF833483349344A00F036F83348344915
:10012C00344A00F031F834483449354A00F02CF8A0
:10013C0034483549354A00F027F83548354900220E
:10014C0000F02DF834483549002200F028F83448E6
:10015C003449091A082903DB0022026004300160CB
:10016C00314A90471F482049884205D00268043024
:10017C0003B4904703BCF7E700208646EC4600200A
:10018C0000212A4A9047FEE7884207D0521A05D030
:10019C00037801300B700131013AF9D17047884274
:1001AC0002D002700130FAE7704700000000012015
:1001BC0000D800200000012000000120B0950100B3
:1001CC009C00002044010020F4020000F402000016
:1001DC0044690100B09501009C0000209C000020A7
:1001EC00606A0100606A0100606A0100606A0100D7
:1001FC00606A0100606A0100606A0100606A0100C7
:10020C00B0950100589601004401002044010020E3
:10021C004401002008CA002008CA002010CA00208F
:10022C0000CF002000D300206102000001820000FA
:10023C000F484FF00701884385460E4880470E480B
:10024C00016841F470010160BFF34F8FBFF36F8FF2
:10025C00FFF73EBF09480A490A4A884207D0521A9A
:10026C0005D0037801300B700131013AF9D1704798
:10027C00000001203D03000088ED00E0C46901008E
:10028C00000000209C000020FEE7FEE7FEE7FEE7F2
:10029C00FEE7FEE7FEE7FEE7FEE7FEE7FEE7FEE72A
:1002AC00FEE7FEE7FEE7FEE7FEE7FEE7FEE7FEE71A
:1002BC00FEE7FEE7FEE7FEE7FEE7FEE7FEE7FEE70A
:1002CC00FEE7FEE7FEE7FEE7FEE7FEE7FEE7FEE7FA
:1002DC00FEE7FEE7FEE7FEE7FEE7FEE7FEE7FEE7EA
:0802EC00FEE7FEE7FEE700BF9C
:1002F4000048704700CA002070477047FEE70000BE
:10030400BFF34F8F0549054BDB6803F4E062044BF0
:100314001343CB60BFF34F8F00BFFDE700ED00E058
:100324000400FA05024B034A1A6000BF704700BF7D
:100334009C0000200090D00308B500F095F9034616
:10034400002B06D0B64AB74B1B681B0A03F01F03E9
:10035400136000F0B5F90346002B02D0B24BB34A48
:100364001A6000F0C9F90346002B06D0B04AB14B1D
:100374001B685B0B03F00703136000F0E9F9034605
:10038400002B05D0AC4AAC4BDB6823F08073D36000
:1003940000F0FAF90346002B0ED04FF08043002200
:1003A400C3F80C214FF080430022C3F810214FF012
:1003B40080430022C3F8382500F012FA0346002BCC
:1003C40002D09E4B03221A6000F026FA0346002B4B
:1003D4000BD09B4B05221A609A4B01221A609A4B50
:1003E40000221A60994B3F221A6000F031FA03464A
:1003F400002B76D0964A4FF08053D3F80434C2F8D9
:100404002035934A4FF08053D3F80834C2F824358A
:100414008F4A4FF08053D3F80C34C2F828358C4AF5
:100424004FF08053D3F81034C2F82C35884A4FF07B
:100434008053D3F81434C2F83035854A4FF08053D2
:10044400D3F81834C2F83435814A4FF08053D3F8C6
:100454001C34C2F840357E4A4FF08053D3F8203420
:10046400C2F844357A4A4FF08053D3F82434C2F8A2
:100474004835774A4FF08053D3F82834C2F84C35C6
:10048400734A4FF08053D3F82C34C2F85035704A75
:100494004FF08053D3F83034C2F854356C4A4FF0DF
:1004A4008053D3F83434C2F86035694A4FF080532E
:1004B400D3F83834C2F86435654A4FF08053D3F822
:1004C4003C34C2F86835624A4FF08053D3F8403464
:1004D400C2F86C355E4A4FF08053D3F84434C2F806
:1004E400703500F0D1F90346002B05D0594A5A4B18
:1004F4001B6803F04F03136000F0F2F90346002B6E
:100504000DD04FF08043D3F8003403F00103002BE7
:1005140005D04FF080436FF00102C3F8002400F0CF
:100524000BFA0346002B05D04C4A4C4B1B6843F492
:10053400806313604A4A4A4BD3F8883043F470030B
:10054400C2F88830BFF34F8FBFF36F8F4FF0102383
:10055400D3F80C3203F00103012B25D1414B0122C6
:10056400C3F8042500BF3F4BD3F80034002BFAD066
:100574004FF010224FF01023D3F80C3223F0010374
:10058400C2F80C3200BF374BD3F80034002BFAD03A
:10059400344B0022C3F8042500BF324BD3F8003497
:1005A400002BFAD0FFF7ACFE4FF01023D3F8003243
:1005B400002B05DB4FF01023D3F80432002B2BDA89
:1005C400284B0122C3F8042500BF264BD3F800347E
:1005D400002BFAD04FF010231522C3F8002200BFDD
:1005E400204BD3F80034002BFAD04FF010231522FF
:1005F400C3F8042200BF1B4BD3F80034002BFAD0FD
:10060400184B0022C3F8042500BF164BD3F800345E
:10061400002BFAD0FFF774FEFFF784FE00BF08BD7D
:10062400403501402403001074C007400DF0ADBAFA
:100634003C05004044020010F0ED00E0A00500403D
:10064400105600408856004018560040145600408A
:1006540000C00040E40E0040580200103C17004067
:1006640000ED00E000E00140124B1B68DBB2062BFA
:100674001DD1114B1B6803F00F03002B17D10F4B37
:100684001B6803F0F003302B01D1012310E00B4B66
:100694001B6803F0F003402B01D1012308E0074B52
:1006A4001B6803F0F003502B01D1012300E0002369
:1006B40018467047E00F00F0E40F00F0E80F00F078
:1006C4000A4B1B68DBB2062B0DD1094B1B6803F0E8
:1006D4000F03002B07D1074B1B6803F0F003302BEB
:1006E40001D1012300E0002318467047E00F00F019
:1006F400E40F00F0E80F00F0124B1B68DBB2062B8E
:100704001DD1114B1B6803F00F03002B17D10F4BA6
:100714001B6803F0F003302B01D1012310E00B4BD5
:100724001B6803F0F003402B01D1012308E0074BC1
:100734001B6803F0F003502B01D1012300E00023D8
:1007440018467047E00F00F0E40F00F0E80F00F0E7
:100754000A4B1B68DBB2062B0DD1094B1B6803F057
:100764000F03002B07D1074B1B6803F0F003302B5A
:1007740001D1012300E0002318467047E00F00F088
:10078400E40F00F0E80F00F0124B1B68DBB2062BFD
:100794001DD1114B1B6803F00F03002B17D10F4B16
:1007A4001B6803F0F003302B01D1012310E00B4B45
:1007B4001B6803F0F003402B01D1012308E0074B31
:1007C4001B6803F0F003502B01D1012300E0002348
:1007D40018467047E00F00F0E40F00F0E80F00F057
:1007E4000A4B1B68DBB2062B0DD1094B1B6803F0C7
:1007F4000F03002B07D1074B1B6803F0F003302BCA
:1008040001D1012300E0002318467047E00F00F0F7
:10081400E40F00F0E80F00F00A4B1B68DBB2062B74
:100824000DD1094B1B6803F00F03002B07D1074BB5
:100834001B6803F0F003302B01D1012300E00023F7
:1008440018467047E00F00F0E40F00F0E80F00F0E6
:100854000A4B1B68DBB2062B0DD1094B1B6803F056
:100864000F03002B07D1074B1B6803F0F003502B39
:1008740001D1012300E0002318467047E00F00F087
:10088400E40F00F0E80F00F0124B1B68DBB2062BFC
:100894001DD1114B1B6803F00F03002B17D10F4B15
:1008A4001B6803F0F003302B01D1012310E00B4B44
:1008B4001B6803F0F003402B01D1012308E0074B30
:1008C4001B6803F0F003502B01D1012300E0002347
:1008D40018467047E00F00F0E40F00F0E80F00F056
:1008E400124B1B68DBB2062B1DD1114B1B6803F0A6
:1008F4000F03002B17D10F4B1B6803F0F003302BB1
:1009040001D1012310E00B4B1B6803F0F003402BD3
:1009140001D1012308E0074B1B6803F0F003502BBF
:1009240001D1012300E0002318467047E00F00F0D6
:10093400E40F00F0E80F00F0064B1B68062B05D10E
:10094400054B1B68062B01D1012300E00023184648
:10095400704700BF300100103401001000B583B0AF
:100964000E4B01930E4B18460DF074FC0C4B4FF4D8
:1009740080620C4918460DF0CBFC019B1B68B3F157
:10098400FF3F06D1019B4FF48062054918460DF0E4
:10099400BFFC00BF03B05DF804FB00BF00F107001B
:1009A40000CB0020606A0100014B1846704700BF6D
:1009B4000002002008B54FF480620349034815F093
:1009C4002BF800BF08BD00BF00F1070000020020A3
:1009D40008B54FF480620349034815F01DF800BFC1
:1009E40008BD00BF00CB00200002002000B585B088
:1009F4000190019B03934FF4FE200DF02BFC4FF468
:100A04008062019903480DF083FC0023184605B069
:100A14005DF804FB00F1070000B585B0019000917A
:100A2400A02012F029FE0390039B002B25D015492A
:100A3400039815F04FF8019815F096F80346952B96
:100A440010D8039B06330199184615F043F8019812
:100A540015F08AF803460633039A13440A491846E4
:100A640015F038F8039815F07FF8034619460398F3
:100A740004F050FE039812F0AFFE00BF05B05DF81D
:100A840004FB00BF606E01006C6E010010B590B0F5
:100A9400019003AB0E9300230F93282200210E989C
:100AA40014F0E4FF0E9B1B681A46019B9C180E9BD6
:100AB4001B681A46019B13441B78184614F096FED3
:100AC4000346DBB223700E9B1B685A1C0E9B1A60F4
:100AD4000E9B1B681A46019B13441B78002BE1D123
:100AE4005249019814F062FF02460E9B1A620E9B53
:100AF400186A0E9B03F108020E9B1C334C4914F038
:100B040004FF0E9B00221A600E9B00225A6038E0FC
:100B14000E9B1A6813465B0013449B00454A13441A
:100B24000F930E9B03F108020F9B1B681946104696
:100B340014F0F2FF0346002B1ED10E9B0833184617
:100B440015F012F804460F9B1B68184615F00CF8B4
:100B540003469C4210D10E9B01225A600F9B1A79C6
:100B6400354B1B799A4203D00F9B1B79002B03D181
:100B74000E9B02225A600FE00E9B1B685A1C0E9BB0
:100B84001A600E9B1A682B4913465B0013449B00A2
:100B94000B441B68002BBBD10E9B5B68012B02D05E
:100BA400022B0CD02FE0244B1B79692223492448C3
:100BB40014F066FE0E992348FFF72EFF23E0FFF79B
:100BC400F3FE0D900F9B9B680E9A106A0E9AD269E1
:100BD4000D99984702460E9B5A620E9B5B6A002B46
:100BE4000CD00E9B5C6A0E9B5B6A184614F0BCFF2B
:100BF40003461946204604F08DFD03E00E99124881
:100C0400FFF70AFF00BF0949002014F0CFFE024697
:100C14000E9B1A620E9B1B6A184614F0A5FF03462E
:100C2400002B7FF464AF00BF10B010BD706E0100E4
:100C3400746E01000C750100685B0020DC6E01001D
:100C44007C6E0100BC6E0100D06E010000B585B061
:100C5400039002910192019B002B07D1094BD3F819
:100C64001A331021184610F085F806E0054BD3F826
:100C74001A332021184610F07DF8034B184605B0AE
:100C84005DF804FB685B0020EC6E010000B585B0E4
:100C9400039002910192019B002B08D10A4BD3F8D7
:100CA4001A334FF48061184610F064F807E0064BDD
:100CB400D3F81A334FF40061184610F05BF8034B75
:100CC400184605B05DF804FB685B0020EC6E01007B
:100CD40000B585B0039002910192019B002B08D1CD
:100CE4000A4BD3F81A334FF48071184610F042F8C7
:100CF40007E0064BD3F81A334FF40071184610F08E
:100D040039F8034B184605B05DF804FB685B002016
:100D1400EC6E010000B585B0039002910192019B35
:100D2400002B07D1094BD3F81A334021184610F091
:100D340021F806E0054BD3F81A338021184610F049
:100D440019F8034B184605B05DF804FB685B0020F6
:100D5400EC6E010000B585B003900291019204F09D
:100D640071FD064BD3F81A334FF48051184610F036
:100D740001F8034B184605B05DF804FB685B0020DE
:100D8400EC6E010084B0039002910192019B9AB22F
:100D9400029B1A80014B184604B07047EC6E0100A8
:100DA40084B0039002910192019B9AB2029B5A80F3
:100DB400014B184604B07047EC6E010084B00390F8
:100DC40002910192019B9BB20A2B04D9019B9AB216
:100DD400029BDA8408E0029B002242F00A0283F8B4
:100DE4002620002283F82720014B184604B07047C0
:100DF400EC6E010084B0039002910192019B9AB2BF
:100E0400029B9A84014B184604B07047EC6E0100B3
:100E140084B0039002910192019B9AB2029B1A85BD
:100E2400014B184604B07047EC6E010084B0039087
:100E340002910192019B9AB2029B5A85014B18467A
:100E440004B07047EC6E010084B0039002910192EB
:100E5400019B9AB2029B9A85014B184604B07047D5
:100E6400EC6E010084B0039002910192019B9AB24E
:100E7400029BDA83014B184604B07047EC6E010004
:100E840084B0039002910192019B9AB2029B9A83CF
:100E9400014B184604B07047EC6E010084B0039017
:100EA40002910192019B9AB2029B5A84014B18460B
:100EB40004B07047EC6E010084B00390029101927B
:100EC400019B9AB2029B1A84014B184604B07047E6
:100ED400EC6E010084B0039002910192019B1AB25E
:100EE400029BDA80014B184604B07047EC6E010097
:100EF40084B0039002910192019B1AB2029B1A8161
:100F0400014B184604B07047EC6E010084B00390A6
:100F140002910192019BDAB2029BDA73014B1846EB
:100F240004B07047EC6E010084B00390029101920A
:100F3400019B1AB2029B5A81014B184604B07047B8
:100F4400EC6E010084B0039002910192019BDAB22D
:100F5400029B1A73014B184604B07047EC6E0100F3
:100F640084B0039002910192019BDAB2029B9A74BD
:100F7400014B184604B07047EC6E010084B0039036
:100F840002910192019BDAB2029B5A73014B1846FB
:100F940004B07047EC6E010000B585B00390029177
:100FA4000192019BDAB2029B1A71D02204490548CE
:100FB40014F066FC044B184605B05DF804FB00BF52
:100FC40088770100F46E0100EC6E010084B0039098
:100FD40002910192019BDAB2029B5A71014B1846AD
:100FE40004B07047EC6E010084B00390029101924A
:100FF400019BDAB2029B5A74014B184604B0704745
:10100400EC6E010084B0039002910192019B9AB2AC
:10101400029B5A83014B184604B07047EC6E0100E2
:1010240084B0039002910192019BDAB2029B1A747C
:10103400014B184604B07047EC6E010084B0039075
:1010440002910192019BDAB2029B9A73014B1846FA
:1010540004B07047EC6E010000B585B003900291B6
:101064000192FFF7B5FC024B184605B05DF804FB8E
:10107400EC6E010084B0039002910192019B9AB23C
:10108400029B1A83014B184604B07047EC6E0100B2
:1010940084B0039002910192019B9AB2029B9A82BE
:1010A400014B184604B07047EC6E010084B0039005
:1010B40002910192019B9AB2029BDA82014B18467B
:1010C40004B07047EC6E010084B003900291019269
:1010D400019BDAB2029BDA74014B184604B07047E4
:1010E400EC6E010084B0039002910192019B102BDD
:1010F4000CD1029B012283F83520029B032283F842
:101104003920029B032283F838200EE0019B402BF8
:101114000BD1029B022283F83520029B092283F81B
:101124003920029B092283F83820024B184604B068
:10113400704700BFEC6E010084B0039002910192ED
:10114400019B9AB2029B1A86014B184604B0704761
:10115400EC6E010084B0039002910192019B9AB25B
:10116400029BDA85014B184604B07047EC6E01000F
:1011740084B0039002910192019B9AB2029B5A8619
:10118400014B184604B07047EC6E010010B58AB0EC
:101194000390029101922C4B0993A02012F06CFA57
:1011A4000690069B002B49D003F0ACF90346ADF83A
:1011B4001E3003F0CDF9089034E0089BD3E90034E5
:1011C400089AD2E900128AB21846214603F00CF9B3
:1011D4000590059B002B18D11C49069814F080FB40
:1011E400069814F0C1FC0246069B1344184918469D
:1011F40014F076FB069814F0B7FC034619460698DB
:1012040004F088FA0023099315E0059A937C43F0CF
:1012140001039374BDF81E30013BADF81E30089BEA
:1012240008330893089BD3E90034234303D0BDF863
:101234001E30002BC1D1069812F0CEFA03F0C8F983
:10124400099B18460AB010BDFC6E0100146F010022
:10125400306F010070B58AB003900291019203F0DF
:1012640077F9099003F04EF90346ADF82230A02037
:1012740012F002FA0690069B002B6AD012F09EFC34
:101284000D230793BDF82230002B10D000230593C3
:10129400324814F069FC03460593059B0333BDF8FB
:1012A400222002FB03F3033B079A13440793079A94
:1012B4002B49069814F014FB069814F055FC0246CA
:1012C400069B13442749184614F00AFB069814F0A9
:1012D4004BFC03461946069804F01CFA2AE0099BC5
:1012E400D3E90034250000262A46099BD3E90034BB
:1012F4001D49069814F0F4FABDF82230012B09D9DF
:10130400069814F031FC0246069B1344174918460C
:1013140014F0E6FA069814F027FC034619460698DA
:1013240004F0F8F9099B08330993BDF82230013B16
:10133400ADF82230BDF82230002BD0D104210C4866
:1013440004F0E8F912F060FC03F042F9069812F098
:1013540043FA084B18460AB070BD00BF346F010051
:10136400486F0100506F01005C6F01006C6F010059
:10137400706F0100EC6E0100F0B589B00790069122
:10138400069B1B889BB21F46069A536894682500E7
:101394000026069A536894681A46069B5B889BB29B
:1013A4001946069B9B899BB21846069BDB899BB218
:1013B4001C46069B1B8A9BB20493039402900191E2
:1013C40000922B463A460349079814F089FA00BF65
:1013D40009B0F0BD786F010000B58BB003900291A5
:1013E4000192A02012F048F90590059B002B6ED0C5
:1013F40012F0E4FB02F026FF099002F02BFF0346F3
:1014040007930C230893079B002B13DD00230493FD
:1014140009990598FFF7B0FF059814F0A5FB03465A
:101424000493049B0333079A02FB03F3033B089AD8
:1014340013440893089A2849059814F051FA05981A
:1014440014F092FB0246059B13442449184614F0F9
:1014540047FA059814F088FB03461946059804F0EA
:1014640059F90023069326E0099B1B889BB2002BA5
:101474001BD009990598FFF77FFF079B012B09DD16
:10148400059814F071FB0246059B13441449184651
:1014940014F026FA079B013B0793059814F064FBAC
:1014A40003461946059804F035F9099B133309934B
:1014B400069B01330693069B042BD5DD04210948C2
:1014C40004F028F912F0A0FB059812F085F9064BF8
:1014D40018460BB05DF804FB486F0100CC6F0100A7
:1014E4006C6F0100706F0100EC6E010030B59BB0B1
:1014F40009900891079200231993A02012F0BCF8D8
:101504001890189B002B00F0AD804FF000024FF0B4
:101514000003CDE916230023129300231193002323
:10152400109300230F9300230E9300230D930123A4
:10153400159312A90AAA0DAB04930EAB03930FAB38
:10154400029310AB019311AB00930B4647490998E2
:1015540014F0DBF9034615930F9B002B7FD00E9BF1
:10156400002B7CD0159B072B79D1129B1A464FF088
:10157400000315000024119B1A464FF0000344EAAF
:10158400020045EA030103460C46CDE91634109BDC
:101594009BB21A46DDE9160102F026FF1490149B53
:1015A400002B5CD00F9B9AB2149B9A810E9B9AB22B
:1015B400149BDA810D9B9AB2149B1A82149A937C21
:1015C40043F00103937445F65A222949189814F0FC
:1015D40087F903461393189814F0C6FA0246189B29
:1015E40013442449184614F07BF9189814F0BCFAF3
:1015F4000246189B134414991846FFF7BDFE189829
:1016040014F0B2FA0246189B13441B49184614F00E
:1016140067F9189B9C1C189814F0A6FA0246139BB1
:10162400D31A1A461549204614F05AF9189A139BEE
:1016340013447B221A70189814F096FA0246189BE9
:1016440013440F49184614F04BF9189814F08CFA07
:1016540003461946189804F05DF80A4B1993189834
:1016640012F0BAF8199B18461BB030BDD86F0100B0
:10167400486F0100F46F010004700100087001005C
:10168400306F0100EC6E010030B591B0059004910B
:10169400039200230F93A02011F0EEFF0E900E9BF7
:1016A400002B74D04FF000024FF00003CDE90C235F
:1016B40000230A93002309930AA906AA09AB0093FD
:1016C4000B463549059814F020F90A9B1A464FF049
:1016D400000315000024099B1A464FF0000344EA56
:1016E400020045EA030103460C46CDE90C34DDE96A
:1016F4000C344FF6FF714FF00002A24208BF99422A
:1017040004D2DDE90C0102F0E8FE04E0BDF830305B
:10171400184602F0CBFE45F65A2220490E9814F0E2
:10172400DFF803460B930E9814F01EFA02460E9B44
:1017340098180A9A099B1A4914F0D2F80E9B9C1C1B
:101744000E9814F011FA02460B9BD31A1A46154947
:10175400204614F0C5F80E9A0B9B13447B221A7092
:101764000E9814F001FA02460E9B13440E491846D3
:1017740014F0B6F80E9814F0F7F9034619460E98CB
:1017840003F0C8FF094B0F930E9812F025F80F9B36
:10179400184611B030BD00BF10700100486F010041
:1017A4002070010008700100306F0100EC6E010030
:1017B40010B58AB0039002910192002309933B4A29
:1017C40005AB92E80300186004331980A02011F0DF
:1017D40053FF0890089B002B64D045F65A223449E5
:1017E400089814F07DF80790089814F0BDF90246A3
:1017F400089B13442F49184614F072F8089814F003
:10180400B3F90246089B13442B49184614F068F8B0
:10181400089814F0A9F90246089B134405AA27491D
:10182400184614F05DF8089814F09EF90246089BD7
:101834009818234B234A244914F052F8089814F0BA
:1018440093F90246089B1344204A2149184614F090
:1018540047F8089B9C1C089814F086F90246079BDD
:10186400D31A1A461B49204614F03AF8079B089AE3
:1018740013447B221A70089814F076F90246089BE8
:1018840013441549184614F02BF8089814F06CF911
:1018940003461946089803F03DFF089811F09CFF91
:1018A4000E4B0993099B18460AB010BDD87001006D
:1018B400486F01003C700100487001006070010035
:1018C40074700100807001008C700100A070010030
:1018D400C870010008700100306F0100EC6E010057
:1018E40010B588B003900291019200230793A020C1
:1018F40011F0C2FE0690069B002B00F0EA8112F064
:101904005DF945F65A22BA49069813F0E9FF0590A5
:10191400069814F029F90246069B1344B549184663
:1019240013F0DEFF069814F01FF90246069B981880
:10193400029B1B889BB21A46AF4913F0D1FF06984D
:1019440014F012F90246069B9818029B5B889BB21E
:101954001A46AA4913F0C4FF069814F005F9024682
:10196400069B9818029BDB8C9BB21A46A44913F081
:10197400B7FF069814F0F8F80246069B9818029BE5
:101984009B8C9BB21A469F4913F0AAFF069814F049
:10199400EBF80246069B9818029B1B8D9BB21A46D5
:1019A400994913F09DFF069814F0DEF80246069B51
:1019B4009818029B5B8D9BB21A46944913F090FFD2
:1019C400069814F0D1F80246069B9818029B9B8D4A
:1019D4009BB21A468E4913F083FF069814F0C4F89C
:1019E4000246069B9818029B5B8B9BB21A46894958
:1019F40013F076FF069814F0B7F80246069B981881
:101A0400029B1B7C1A46844913F06AFF069B9C1CAC
:101A1400069814F0A9F80246059BD31A1A467F4982
:101A2400204613F05DFF059B069A13447B221A702F
:101A3400069814F099F80246069B13447849184610
:101A440013F04EFF069814F08FF8034619460698D3
:101A540003F060FE45F65A226549069813F040FFEC
:101A64000590069814F080F80246069B13446D49CD
:101A7400184613F035FF069814F076F80246069BD4
:101A84009818029B1B791A46674913F029FF069898
:101A940014F06AF80246069B9818029B5B791A4672
:101AA400624913F01DFF069814F05EF80246069B87
:101AB4009818029B5B7C1A465D4913F011FF069B44
:101AC4009C1C069814F050F80246059BD31A1A463B
:101AD4005249204613F004FF059B069A13447B22C7
:101AE4001A70069814F040F80246069B13444C49B9
:101AF400184613F0F5FE069814F036F80346194616
:101B0400069803F007FE45F65A223949069813F061
:101B1400E7FE0590069814F027F80246069B134446
:101B24004449184613F0DCFE069814F01DF80246EA
:101B3400069B9818029BDB8B9BB21A463E4913F016
:101B4400CFFE069814F010F80246069B9818029BE4
:101B54009B8B9BB21A46394913F0C2FE069814F0C7
:101B640003F80246069B9818029B5B8C9BB21A46AC
:101B7400334913F0B5FE069813F0F6FF0246069BB0
:101B84009818029B1B8C9BB21A462E4913F0A8FE90
:101B9400069813F0E9FF0246069B9818029BB3F9D6
:101BA40006301BB21A46284913F09AFE069813F021
:101BB400DBFF0246069B9818029BB3F908301BB260
:101BC4001A46224913F08CFE069813F0CDFF024604
:101BD400069B9818029B1B8B9BB21A461C4913F058
:101BE4007FFE069813F0C0FF0246069B981831E06A
:101BF400486F0100E0700100F87001000C710100F1
:101C04002071010030710100407101005071010028
:101C140060710100707101008071010008700100A1
:101C2400306F01008C7101009C710100AC710100E6
:101C3400BC710100CC710100E0710100F071010080
:101C44000072010010720100207201003072010064
:101C540040720100029B9B8A9BB21A461F4913F0F3
:101C64003FFE069813F080FF0246069B9818029BDD
:101C7400DB8A9BB21A461A4913F032FE069B9C1C5F
:101C8400069813F071FF0246059BD31A1A461549AC
:101C9400204613F025FE059B069A13447B221A70F6
:101CA400069813F061FF0246069B13440E4918463A
:101CB40013F016FE069813F057FF034619460698CC
:101CC40003F028FD069811F087FD11F09DFF074BE6
:101CD4000793079B184608B010BD00BF507201005F
:101CE4006072010008700100306F0100EC6E0100A9
:101CF40010B588B003900291019200230793A020AD
:101D040011F0BAFC0690069B002B00F0A18045F66A
:101D14005A225149069813F0E3FD0590069813F0F2
:101D240023FF0246069B13444C49184613F0D8FD82
:101D3400069813F019FF0246069B9C18029B93F821
:101D44003430184606F0D4F803461A46444920466F
:101D540013F0C6FD069813F007FF0246069B9C1875
:101D6400029B93F83530184606F0E3F803461A460A
:101D74003C49204613F0B4FD069813F0F5FE0246E4
:101D8400069B9C18029B93F83630184606F000F91F
:101D940003461A463449204613F0A2FD069813F070
:101DA400E3FE0246069B9C18029B93F837301846C4
:101DB40006F0D0F803461A462C49204613F090FD4D
:101DC400069813F0D1FE0246069B9818029B93F8DE
:101DD40038301A46264913F083FD069813F0C4FEE2
:101DE4000246069B9C18029B93F83B30184606F06B
:101DF4008AF803461A461F49204613F071FD069BD4
:101E04009C1C069813F0B0FE0246059BD31A1A4692
:101E14001949204613F064FD059B069A13447B225E
:101E24001A70069813F0A0FE0246069B1344134949
:101E3400184613F055FD069813F096FE034619460E
:101E4400069803F067FC069811F0C6FC0C4B079348
:101E5400079B184608B010BD486F0100707201005E
:101E64008472010094720100A0720100B07201003A
:101E7400BC720100CC72010008700100306F0100D7
:101E8400EC6E010000B589B0059004910392364BC5
:101E94000793A02011F0F0FB0690069B002B5BD06B
:101EA400324B1B79012B19D0304B1B79022B13D0E9
:101EB4002E4B1B79052B0DD02C4B1B79062B07D0F1
:101EC4002A4B1B79032B01D1294A08E0294A06E051
:101ED400294A04E0294A02E0294A00E0294A234B1E
:101EE400D3F80510214BD3F8093000930B4626494B
:101EF400069813F0F5FC069813F036FE03461946CF
:101F0400069803F007FC069811F066FC174B0022B4
:101F14005A7100229A710022DA7100221A72134B4C
:101F240000225A7200229A720022DA7200221A7374
:101F3400002204990020FFF73BFC002204990020B2
:101F4400FFF7CEFC002200210020FFF783F90022D6
:101F540000210020FFF740FA034B0793079B184624
:101F640009B05DF804FB00BFEC6E0100685B002063
:101F7400DC720100E4720100EC720100F4720100F1
:101F8400FC720100047301000C73010000B589B0F8
:101F940003900291019200230793A02011F06CFB9F
:101FA4000690069B002B77D011F008FE002005F068
:101FB40017F8012009F0B0F803461B0A9BB2DBB204
:101FC40007EE903AF8EE677ACDED057A07F0BEFF9A
:101FD400034607EE903AF8EEE77A9DED057A77EE40
:101FE400677A9FED317A67EE877AB3EE077A77EEF8
:101FF400877ACDED057ADDED057AFDEEE77A17EE09
:10200400902A2A49069813F06BFC069813F0ACFD4D
:1020140003461946069803F07DFB012004F0E0FF17
:10202400012009F079F803461B0A9BB2DBB207EEE4
:10203400903AF8EE677ACDED057A07F087FF03460C
:1020440007EE903AF8EEE77A9DED057A77EE677A37
:102054009FED157A67EE877AB3EE077A77EE877A83
:10206400CDED057ADDED057AFDEEE77A17EE902ADF
:102074000F49069813F034FC069813F075FD0346D7
:102084001946069803F046FB002004F0A9FF0698C1
:1020940011F0A2FB11F0B8FD064B0793079B1846FD
:1020A40009B05DF804FB00BF85EB913F3C73010070
:1020B40050730100EC6E010000B589B003900291E9
:1020C40001920023079300230693A02011F0D4FA71
:1020D4000590059B002B30D0A0220021059813F019
:1020E400C5FC11F06BFD17E01649079A13465B0017
:1020F40013449B000B441B681A461349059813F0BC
:10210400EFFB059813F030FD03461946059803F0DC
:1021140001FB079B013307930A49079A13465B00A7
:1021240013449B000B441B68002BDDD111F06CFDA4
:10213400059811F051FB054B0693069B184609B010
:102144005DF804FB0C75010064730100EC6E010082
:1021540000B587B00390029101920298FEF746FC05
:1021640003468DF817309DF81730002B07D09DF8E3
:1021740017301946002012F079FB002300E0024BCF
:10218400184607B05DF804FBEC6E010000B589B099
:10219400039002910192164B079304AB0A2200218B
:1021A400184613F063FC04AB1A461249039813F063
:1021B400ACFB04AB1946104813F0AEFC0346002BED
:1021C40004D10E4B1B6801225A740BE004AB194670
:1021D4000B4813F0A1FC0346002B03D1074B1B68EB
:1021E40000225A74024B184609B05DF804FB00BF84
:1021F400EC6E01006C73010078730100685B0020D1
:102204007C73010000B583B00190019B1B681F2BF8
:1022140004D9054940F2C71006F0B7FB4FF0A043BC
:10222400184603B05DF804FB9077010000B585B053
:10223400019001AB1846FFF7E5FF0390019B0122D3
:1022440002FA03F31946039800F018F800BF05B02A
:102254005DF804FB00B585B0019001AB1846FFF7AB
:10226400D1FF0390019B012202FA03F3194603985C
:1022740000F00EF800BF05B05DF804FB82B00190D9
:102284000091019B009AC3F8082500BF02B0704773
:1022940082B001900091019B009AC3F80C2500BF05
:1022A40002B0704782B00190019BD3F80435184600
:1022B40002B0704700B583B00190019B1B681846BB
:1022C400FFF7F0FF0346184603B05DF804FB000077
:1022D400014B1846704700BF0006002000B589B0C6
:1022E40003900B4601928DF80B309DF80B30002BB8
:1022F40008D09DF80B30012B04D08122504951485D
:10230400FDF7FCFF9DF80B30002B14BF01230023C5
:10231400DBB21A4613465B0113445B00B833039ADD
:1023240013440593059B05221A70059B013301A9EB
:102334000422184613F070FB059B03F5A5730522D0
:102344000421102008F0B8F8059B0A33112200215B
:10235400122008F0B1F89DF80B30002B14D10023A3
:1023640007930DE0039A079B134492331978059A57
:10237400079B13441B330A461A70079B01330793C8
:10238400079B042BEEDD13E0002306930DE0039A74
:10239400069B134497331978059A069B13441B3301
:1023A4000A461A70069B01330693069B042BEEDD46
:1023B400059B1B33053309220521152008F07CF801
:1023C400059B03F504631B789B09DBB29AB2059B5A
:1023D40003F682031B789BB29B009BB21344ADF8B7
:1023E4001230BDF812309B009BB20133ADF81230AD
:1023F400059B03F12900BDF81230013B9BB21A463C
:10240400112107F0C6FF059B393302224FF4805196
:102414002E2008F051F8059B3B3304222821272065
:1024240008F04AF8059B3F33022241F202012E20B4
:1024340008F042F8BDF81230184609B05DF804FB04
:10244400B47701000078010000B585B00190002345
:102454008DF80F3000238DF80E3004F037FD08F0AE
:102464000FFD019BB3F9003098B2019B02330022A7
:10247400194607F034FF019BB3F900309BB20122E7
:102484000021184607F04EFF019BD3F88430002B3F
:1024940005D0019BD3F88430184608F082FC019BD8
:1024A400D3F88830002B12D0019B93F8813003F0CD
:1024B4000203002B0BD0019BD3F88830184608F098
:1024C40033FA019BB3F88C30184608F06DFD019B7C
:1024D400D3F88430002B14BF01230023DBB25AB29B
:1024E400019B93F881305BB213435BB28DF80E30DD
:1024F4009DF80E30184608F061FC0346002B02D00C
:102504002D238DF80F309DF80F30184605B05DF877
:1025140004FB000010B52DED028B88B003900291EE
:10252400019200238DF81F30039B34330593019BE4
:1025340007EE903AF8EEE77A17EE900A12F07AFA7C
:102544003DA3D3E9002312F013FC03460C461846BE
:10255400214612F08BFA0246029B1A60039B9B7B76
:10256400012B34D1029B1B6806932E4B1B681B7CEA
:10257400012B18D1059B1B78052B08D19DED067AFC
:10258400DFED296AC7EE267ACDED067A0BE0059BCE
:102594001B78022B07D19DED067ADFED246AC7EE86
:1025A400267ACDED067A029B93ED008A059B1A7874
:1025B400059B5B7819469DED060A104604F0A6FFBC
:1025C400F0EE407A78EE677A029BC3ED007A029BC4
:1025D400D3ED007A9FED167AF4EEC77AF1EE10FA95
:1025E40003DD34238DF81F3013E0029B93ED007A52
:1025F400039BB3F908301BB207EE903AF8EEE76A92
:102604009FED0C6AC6EE867A77EE677A029BC3ED7D
:10261400007A9DF81F30184608B0BDEC028B10BD3F
:10262400AFF30080685B0020AE47C13F14AEA73F04
:102634000000FA4400007A441329AA153236733F85
:102644000000000030B58FB001908DED000A019BB1
:1026540093ED037ADFED756AC7EE267ACDED087A3D
:10266400019B9B680B939DED0B7ADDED007A77EE71
:10267400677ACDED0B7ADDED0B7A9FED6D7AF4EE92
:10268400C77AF1EE10FA07D5DDED0B7A9FED697A82
:1026940077EE877ACDED0B7ADDED0B7A9FED667AD6
:1026A400F4EEC77AF1EE10FA07DDDDED0B7A9FED5B
:1026B400617A77EEC77ACDED0B7A0B9812F0BAF9FE
:1026C40058A3D3E9002312F053FB03460C461846E3
:1026D400214612F0CBF903460D93584B1B68DB7B64
:1026E400002B24D0564B03AC1D460FCD0FC42B68D2
:1026F4002360039B0A930123099313E09DED0A7A57
:10270400DDED0D7A27EE277A099B9B000EAA134470
:102714002C3BD3ED007A77EE277ACDED0A7A099B2C
:1027240001330993099B042BE8DD0A9B0D939DED6E
:102734000D7ADFED446AC7EE267ACDED0C7ADDED35
:102744000C7AB7EE007AF4EEC77AF1EE10FA03DDF4
:102754004FF07E530C930AE0DDED0C7ABFEE007A65
:10276400F4EEC77AF1EE10FA01D5374B0C939DEDD8
:102774000D7AF0EE006AC7EE267A9DED087A37EE00
:10278400677ADDED0C7A67EE277A9FED307A77EE83
:10279400877A9FED267A67EE877A019BC3ED047AE8
:1027A4009DED0D7AF0EE006AC7EE267A9DED087A6B
:1027B40077EE677A17EE900A12F03CF904460D465C
:1027C4009DED0C7ADDED0C7A67EE277AB7EE007A90
:1027D40077EE677A17EE900A12F02CF902460B4650
:1027E40043EC102B12F092FE53EC102B204629469A
:1027F40012F0BEFA03460C46184621464FF000027A
:10280400134B12F0B5FA03460C461846214612F053
:102814002DF90246019B5A6100BF0FB030BD00BFC5
:10282400AFF30080C28FFDC895C9203F0000C842A5
:10283400000034C30000B44300003443685B00204C
:1028440024780100C364AA3C000080BFC3642A3C0E
:102854000000594010B58EB001904FF000030D9365
:10286400019B1B788DF83330019B03330B93019B41
:102874005B788DF82B30019B083309939DF8333036
:1028840003F07F0307EE903AF8EEE77A9FED897A3A
:10289400C7EE876A16EE900A12F0CCF87FA3D3E94C
:1028A400002312F065FA03460C461846214612F03E
:1028B400DDF8034608930B9B01331B781B021AB205
:1028C4000B9B1B781BB213431BB2ADF810300B9B50
:1028D40003331B781B021AB20B9B02331B781BB207
:1028E40013431BB2ADF812309DF82B3003F07F0375
:1028F40007EE903AF8EEE77A9FED6E7AC7EE876AB4
:1029040016EE900A12F096F864A3D3E9002312F0AD
:102914002FFA03460C461846214612F0A7F8034640
:102924000793099B01331B781B021AB2099B1B787E
:102934001BB213431BB2ADF80C30099B03331B7855
:102944001B021AB2099B02331B781BB213431BB23E
:10295400ADF80E30BDF9123007EE903AF8EEE77A92
:10296400BDF9103007EE103AB8EEC77AF0EE470A18
:10297400B0EE670A12F0A8FC8DED060ABDF90E3020
:1029840007EE903AF8EEE77ABDF90C3007EE103A0C
:10299400B8EEC77AF0EE470AB0EE670A12F094FC7C
:1029A4008DED050A9DED067ADDED087A37EE677A3E
:1029B400DDED056ADDED077A76EEE77A77EE677A84
:1029C400CDED0D7A0D9812F035F834A3D3E9002338
:1029D40012F08AF803460C461846214612F046F8CF
:1029E40003460D930FE00D9812F024F82DA3D3E9BC
:1029F400002312F077F803460C461846214612F0DD
:102A040035F803460D930D9812F014F825A3D3E975
:102A1400002312F087FB0346002BE4D10FE00D984E
:102A240012F008F81FA3D3E9002312F05DF803465F
:102A34000C461846214612F019F803460D93DDEDB5
:102A44000D7AF5EEC07AF1EE10FAE8D40D9811F093
:102A5400F1FF12A3D3E9002312F044F803460C4615
:102A64001846214612F002F803460D930D9811F012
:102A7400E1FF0EA3D3E9002312F07AF903460C46D2
:102A84001846214611F0F2FF03460D930D9B07EE05
:102A9400903AB0EE670A0EB010BD00BF182D445432
:102AA400FB210940182D4454FB211940F8C1631A35
:102AB400DCA54C400000804200B589B0029111466B
:102AC4001A4603468DF80F300B46ADF80C3013460A
:102AD400ADF80630029B1B78052B05D040F2A712F7
:102AE4003E493F48FDF70AFC9DF80F30002B09D002
:102AF4009DF80F30012B05D04FF4D4723749394873
:102B0400FDF7FCFB9DF80F30184604F069FA0298B3
:102B140007F042FA029B5B78013B334A9B00134463
:102B24005B680793314B1B681B7C012B03D101208D
:102B340007F0A0FE10E0079BDBB20793079B1A0285
:102B4400079B1B041A44079B1B061344079A134351
:102B54000793002007F08EFE079B0693C0238DF891
:102B6400143005AB184607F001FABDF806301846D4
:102B740007F0A5FBBDF82830184607F08FFB0020AE
:102B840007F0A4FE002007F0CFFE002008F00CFAA6
:102B9400BDF80C30184607F099FDBDF82C301846E6
:102BA40007F0C8FDBDF83030184607F0D3FD029B8E
:102BB4009B78042B08D1002004F0E0F9002007F0F2
:102BC40037FE002004F00CFA032007F0D3FF0320A3
:102BD40007F094F900BF09B05DF804FBB477010075
:102BE400387801004C7801007C780100685B002093
:102BF40000B583B080238DF8043001AB012211218C
:102C0400282007F0FBFB0A238DF8043001AB0122D6
:102C14001221282007F0F2FB0F238DF8043001ABBA
:102C240001221221282007F0E9FB00238DF804304B
:102C340001AB012200212A2007F0E0FB01238DF8DB
:102C4400043001AB012200212A2007F0D7FB00BF8A
:102C540003B05DF804FB2DE9F04F89B003900398AD
:102C640000F53D50203000785FFA80FB4FF0000CF7
:102C74005846019000200090039800F53D501F3005
:102C840000785FFA80FB4FF0000C4FEA1B2A4FEAF2
:102C94000B69DDE900BC4BEA090B4CEA0A0C03980A
:102CA40000F53D501E3000785FFA80F94FF0000ABD
:102CB4004FEA0A4242EA19424FEA09414BEA010942
:102CC4004CEA020A039A02F53D521D321278D1B23F
:102CD4004FF00002140244EA11640B0249EA0301B2
:102CE4004AEA0402039B03F53D531C331B78DBB211
:102CF4004FF0000443EA010344EA0204CDE9063438
:102D0400039B03F541530C331B681B890593039BF9
:102D140003F541530C331B68DB881A46059B9B1A49
:102D24000593039B03F53F531C331B68059AD31A81
:102D34000593039B03F53F5338331B68059AD31A55
:102D44000593039B03F5405320331B68059AD31A5C
:102D54000593059811F0B0FD03460C4644EC103B76
:102D640005F058F803460C461F0A47EA04674FEA81
:102D740014283B460593DDE906341D0A45EA04653B
:102D8400260A2A46059B13440593059B23F0010359
:102D94000593039B03F5405334331B689BB23233D2
:102DA400ADF8123004F0A2F8059807F0FAFFBDF868
:102DB4001230184608F0F8F8012008F0ADF8FFF7D3
:102DC40017FF04F083F8059807F0EBFFBDF8123005
:102DD400184608F0E9F8012008F09EF8FFF708FF0C
:102DE40000BF09B0BDE8F08F00B585B00190FFF7D2
:102DF4006FFA0390039B002B2CD01848FFF75AFA64
:102E04000290039B03F53D5338331B78012B02D00A
:102E1400032B0ED01FE0039B03F53D531833029A96
:102E24001A60039B03F53D531033184607F0CCFAA0
:102E340011E0039B03F53D532433029A1A60039B6C
:102E440003F53D531C33184607F0BEFA0398FFF709
:102E540002FF00E000BF05B05DF804FB2893010009
:102E640000B589B00190FFF733FA07900223069367
:102E7400079B03F53D5304331B680593079B03F538
:102E84003D5308331B680493059B0133049AD21AFB
:102E9400069B013B1340002B65DD059B4FF4BD529F
:102EA40002FB03F3079A1344043303933048FFF7F8
:102EB40001FA0246039BC3F89C2004F017F8039B15
:102EC4009733184607F08DFA00210F2007F04FFBC7
:102ED4000246039BC3F8B420264A00210F2007F0C2
:102EE400D0FB03F0F3FF039B9233184607F079FA03
:102EF400019B1A68039BC3F8B020019B9B887F2B1E
:102F040028BF7F239BB21AB2039B1A80039B981C91
:102F1400039BB3F900309BB20022194607F024FA50
:102F2400154BD3F83A33002B1ED0059B5A1C069B35
:102F3400013B13400593079B03F53D530433059A66
:102F44001A600D4BD3F83A230B4BD3F8423319468E
:102F5400104611F059F80346002B05D040210120FA
:102F640011F084FC00E000BF09B05DF804FB00BF71
:102F74002893010000FF2724685B002000B583B07C
:102F8400019003F0A3FF002008F00EF8002007F0E2
:102F9400C3FF00BF03B05DF804FB00B583B001902C
:102FA4000198FFF7EBFF00BF03B05DF804FB00B529
:102FB40085B003460A468DF8073013468DF806306F
:102FC40004F072FA03909DF80730002B27D0012BF0
:102FD40000D039E00021242007F0EDFA0346ADF8D3
:102FE4000A30BDF80A3003F4FF63ADF80A30BDF8C7
:102FF4000A3043F40063ADF80A309DF80630DB0074
:103004001AB2BDF90A3013431BB2ADF80A30BDF849
:103014000A301A460021242007F014FB14E0002192
:10302400242007F0C8FA0346ADF80A30BDF80A3088
:1030340003F4FF63ADF80A30BDF80A301A460021E4
:10304400242007F0FFFA00BF039804F03EFA00BF03
:1030540005B05DF804FB08B503F048FF2121012009
:10306400FFF7A5FF03F032FF21210120FFF79FFFA7
:10307400012004F05DF8012004F086F8012004F03A
:103084006DF8002004F06AF8002004F051F803F011
:103094002DFF00210020FFF78AFF03F017FF002116
:1030A4000020FFF784FF00BF08BD000086B0039036
:1030B4000B460192ADF80A30039B03F544532033C9
:1030C4001B68019AD31A0593059B002B03DA059B11
:1030D40003F180730593059B07EE903AF8EEE77AC7
:1030E4009FED197A27EE877ABDF80A3007EE903AF9
:1030F400F8EEE77ADFED156A67EEA66A039B03F53F
:1031040041530C331B681B8807EE903AF8EEE77ABC
:1031140066EEA77A77EE677AFDEEE77A17EE903AD5
:103124000593059B07EE903AB8EEE77ADFED086A5F
:10313400C7EE267AFDEEE77A17EE903A0593059BE3
:10314400184606B0704700BF286BEE460024744949
:1031540000007A4400B587B0039002910192009375
:10316400039B20221A70029B9A78039B5A70029B3D
:10317400DA78039B9A70039B0322DA71029B1B8803
:103184009BB2009A19460198FFF790FF0490002320
:1031940005930EE0059BDB00049A42FA03F3D9B2CF
:1031A400039A059B13440E330A461A70059B013398
:1031B4000593059B032BEDDD019B03F541530C3374
:1031C4001B689B88DAB2039B1A72019B03F5415377
:1031D4000C331B689B881B0A9BB2DAB2039B5A729E
:1031E400019B03F541530C331B681B89DAB2039B23
:1031F4009A72019B03F541530C331B681B891B0A0C
:103204009BB2DAB2039BDA72019B03F541530C3390
:103214001B68DB88DAB2039B1A73019B03F54153E5
:103224000C331B68DB881B0A9BB2DAB2039B5A730C
:10323400029B9B899BB2DAB2039B9A74029B9B8983
:103244009BB21B0A9BB2DAB2039BDA74029BDB8942
:103254009BB2DAB2039B1A75029BDB899BB21B0AF1
:103264009BB2DAB2039B5A75029B1B8A9BB2DAB2F9
:10327400039B9A75029B1B8A9BB21B0A9BB2DAB210
:10328400039BDA7500BF07B05DF804FB00B589B095
:103294000390029101920093039B72221A70029B85
:1032A4001B889BB2009A19460198FFF7FFFE06900F
:1032B400002307930EE0079BDB00069A42FA03F310
:1032C400D9B2039A079B134401330A461A70079B29
:1032D40001330793079B032BEDDD029B1B889BB2F5
:1032E4001946019A0B469B000B44DB00134403F57B
:1032F40041531A331A78039B5A71029B1B889BB261
:103304001946019A0B469B000B44DB00134403F55A
:1033140041532833D3ED007AFDEEE77A17EE903A65
:103324000593059BDAB2039B9A71059B1B12DAB2D3
:10333400039BDA71029B1B889BB21946019A0B46C8
:103344009B000B44DB00134403F541532C33D3EDB2
:10335400007AFDEEE77A17EE903A0593059BDAB210
:10336400039B1A72059B1B12DAB2039B5A72029BCF
:103374001B889BB21946019A0B469B000B44DB0049
:10338400134403F541533033D3ED007AFDEEE77A6D
:1033940017EE903A0593059BDAB2039B9A72059B4C
:1033A4001B12DAB2039BDA7200BF09B05DF804FBAA
:1033B4002DE9F04FB9B00B900A910B9BD3F88430F0
:1033C4003493349B9B7C03F00103DBB2002B40F06D
:1033D400BD800CAB023333932923ADF83030339BDB
:1033E40041221A70339B8C225A700A9B03F5415375
:1033F40008331B88DAB2339BDA700A9B03F5415316
:1034040008331B881B0A9BB2DAB2339B1A71339BB5
:10341400581D349B04330822194612F0FDFA0A9B06
:103424001A78339B5A730A9B5A78339B9A730A9B74
:1034340003F53D530C331A78339B9A70339B0F3347
:103444003593404B1B685B8B9BB232930A9B03F50D
:103454003E530C331B68329A134432930A9B03F590
:103464003E5328331B68329A134432930B9B93F8D0
:103474009630DBB24FF000041B0005930023049345
:103484000B9B93F89530DBB24FF000041A0A0792B5
:103494001B060693DDE90412DDE9063441EA030163
:1034A40042EA04020B9B93F89430DBB24FF0000421
:1034B40020040190019840EA134001901B040093FA
:1034C400DDE9003443EA010344EA020419462246D2
:1034D4000B9B93F89330DBB24FF000044FEA042ABD
:1034E4004AEA136A4FEA032941EA090142EA0A0255
:1034F4000B9B93F89230DBB24FF0000443EA0103D4
:1035040044EA0204CDE93634329811F0D5F9034681
:103514000C4644EC103B04F07DFC0A460146DDE910
:1035240036345B1844EB0204CDE93634DDE9363435
:1035340005494FF0FF0203EA010304EA0204CDE95E
:103544003634B5E0685B002000FEFFFF349A937CBC
:103554006FF3000393740CAB023331932323ADF860
:103564003030319B41221A70319B88225A700A9B59
:1035740003F5415308331B88DAB2319BDA700A9B96
:1035840003F5415308331B881B0A9BB2DAB2319B03
:103594001A71349B9A78319B5A71349BDA78319B37
:1035A4009A710A9B1A78319BDA710A9B5A78319B7B
:1035B4001A720A9B03F53D530C331A78319B9A70A7
:1035C400319B09333593614B1B685B8D9BB23293FE
:1035D4000A9B03F53F531C331B68329A13443293FE
:1035E4000A9B03F53E5328331B68329A13443293E3
:1035F4000B9B93F89630DBB24FF000041B00099349
:10360400002308930B9B93F89530DBB24FF0000432
:103614004FEA132C4FEA036BDDE9081241EA0B0170
:1036240042EA0C020B9B93F89430DBB24FF0000497
:103634004FEA044848EA13481F0441EA070142EAF2
:1036440008020B9B93F89330DBB24FF00004260280
:1036540046EA13661D0241EA050142EA06020B9B93
:1036640093F89230DBB24FF0000443EA010344EADA
:103674000204CDE93634329811F01EF903460C46A3
:1036840044EC103B04F0C6FB0A460146DDE936343F
:103694005B1844EB0204CDE93634DDE936342C49B9
:1036A4004FF0FF0203EA010304EA0204CDE93634D1
:1036B4000B9BD3F89C300A9A34993598FFF74AFD4E
:1036C40003238DF8B130DDE936341A0A0292029AE6
:1036D40042EA04620292230A0393029B2D9300237D
:1036E4002E930023ADF8BC300A9B03F53D533833C9
:1036F40001221A700A9B03F53D530C331B780133E6
:10370400DAB20A9B03F53D530C331A7010F056FAE3
:103714000CAB1846FEF798FE03468DF8C33010F044
:1037240073FA9DF8C330002B0AD00A9B03F5445367
:1037340024331B685A1C0A9B03F5445324331A6030
:103744009DF8C330184639B0BDE8F08F685B00209F
:1037540000FEFFFF2DE9F04FAFB00390029105ABDF
:1037640002332D932D9B41221A702D9B88225A706F
:10377400029B03F5415308331B88DAB22D9BDA70A0
:10378400029B03F5415308331B881B0A9BB2DAB230
:103794002D9B1A71039BD3F884309A782D9B5A7110
:1037A400039BD3F88430DA782D9B9A71029B1A78A4
:1037B4002D9BDA71029B5A782D9B1A72029B03F59A
:1037C4003D530C331A782D9B9A702D9B03F10900FD
:1037D400039BD3F88410039BD3F89C30029AFFF721
:1037E40055FD029B03F541530C331B68DB882C9376
:1037F400029B03F53F531C331B682C9A13442C93F0
:10380400029B03F53F5338331B682C9A13442C93C3
:10381400029B03F53D532C331B78DAB24FF00003BF
:103824001300019300230093029B03F53D532B33B4
:103834001B78DAB24FF000034FEA122B4FEA026A08
:10384400DDE9000140EA0A0041EA0B01029B03F5AD
:103854003D532A331B78DAB24FF000031F0447EAC2
:103864001247160440EA060041EA0701029B03F5E9
:103874003D5329331B78DAB24FF000031D0245EAA9
:103884001265140240EA040241EA050311461A468D
:10389400029B03F53D5328331B78DBB24FF0000441
:1038A40043EA010344EA0204CDE92A342C9811F0D6
:1038B40003F803460C4644EC103B04F0ABFA0A460A
:1038C4000146DDE92A345B1844EB0204CDE92A34CD
:1038D400DDE92A3420494FF0FF0203EA010304EA38
:1038E4000204CDE92A34DDE92A344FEA132848EAF0
:1038F40004684FEA1429434626931723ADF814307D
:1039040001238DF89530002327930023ADF8A030D0
:10391400029B03F53D530C331B780133DAB2029B4F
:1039240003F53D530C331A70029B03F53D533833B2
:1039340003221A7010F042F905AB1846FEF784FD15
:1039440003468DF8A73010F05FF99DF8A7301846AC
:103954002FB0BDE8F08F00BF00FEFFFF00B587B0B9
:1039640003900291039B01220421142006F0A4FD7C
:103974000521152006F01FFE0346ADF81630BDF8EC
:10398400163007EE903AF8EE677A9FED117A67EEFB
:10399400877AB6EE007A77EE877AFDEEE77AF8EE6C
:1039A400E77AB1EE007A67EE877AFCEEE77ACDED3E
:1039B400017ABDF80430ADF81630BDF816301A4659
:1039C4000521029806F0E5FC00BF07B05DF804FB92
:1039D4000000803C00B585B00190009110F0EEF835
:1039E400002303930FE0009A039B134403F53D5314
:1039F40028331978019A039B134488330A461A70B2
:103A0400039B01330393039B042BECDD00230293FC
:103A14000FE0009A029B134403F53D531C331978BD
:103A2400019A029B13448D330A461A70029B013398
:103A34000293029B042BECDD03F048FA019B03F193
:103A4400A002019BA23319461046FFF787FF019B92
:103A5400AC33012204212A2006F02EFD03F046FA9D
:103A6400019B03F1A102019BA73319461046FFF7FE
:103A740075FF019BAD33012204212A2006F01CFDB1
:103A8400234B1B685B7B012B13D103F01FFA019BB3
:103A9400D3F8B0301A4600210198FEF71FFC03F05A
:103AA40025FA019BD3F8B4301A4601210198FEF798
:103AB40015FC174B1B681B7B012B20D1019B03F5C5
:103AC4009E7341F262620021184611F0CFFF03F0A9
:103AD400FDF9019B03F59E734FF4967240F6313164
:103AE400184606F056FC03F001FA019B03F66D43F9
:103AF4004FF4967240F63131184606F04AFC03F052
:103B0400E5F910F081F800BF05B05DF804FB00BFD3
:103B1400685B002010B588B001900091FF238DF8F8
:103B24001F302B238DF81E30019B02330593059B18
:103B34001B78C52B08D1019BB3F900300C2B03D1A2
:103B4400EE238DF81F3025E0059B1B78412B03D015
:103B5400059B1B78612B1AD1059B5B7803F0CC0382
:103B6400882B0ED1019BB3F900300D2B04D0019B9F
:103B7400B3F90030232B08D1059B5B7A8DF81F30F5
:103B840003E0FF238DF81F3000E000BF02E0FF23B5
:103B94008DF81F309DF81F30892B00F03C81EE2BEF
:103BA40002D0842B4AD064E1059B991C02AB082205
:103BB400184611F031FFDDE902341846214600F0C1
:103BC4006DFB0246019BC3F88420009B03F53D5323
:103BD400343300221A60009B03F53D532833052239
:103BE4000021184611F042FF009B03F53D531C339E
:103BF40005220021184611F039FF019BD3F88430C7
:103C0400002B0ED0019BD3F88420937C6FF3000328
:103C1400937400990198FFF7CBFB03468DF81E308F
:103C240032E1DDE90212009B03F541531033C3E98D
:103C340000122E238DF81E3000BF25E1059B1B7A50
:103C44001B021AB2059BDB791BB213431BB2ADF8FE
:103C54001230BDF81230184600F05CFB0246019B9E
:103C6400C3F88420019BD3F88430002B00F0CF806C
:103C7400019BD3F88420009B03F53D5334331A6031
:103C8400002306930FE0019A069B1344923319789C
:103C9400009A069B134403F53D5328330A461A70D1
:103CA400069B01330693069B042BECDD019BD3F8A2
:103CB4009C20009B03F53D5330331A60019BD3F8DD
:103CC40084309B7C03F00103DBB2002B07D0009906
:103CD4000198FFF76DFB03468DF81E3006E000994E
:103CE4000198FFF737FD03468DF81E309DF81E300E
:103CF400002B68D1019BD3F884301B889BB21946F2
:103D0400019B187B009A0B469B000B44DB00134479
:103D140003F541531A3302461A70019BD3F88430D9
:103D24001B889BB21946009A0B469B000B44DB0090
:103D3400134403F541532033564A1A60019BD3F8C8
:103D440084301B889BB21946009A0B469B000B4497
:103D5400DB00134403F5415330334E4A1A60019B90
:103D6400D3F884301B889BB21946009A0B469B00FB
:103D74000B44DB00134403F541532433454A1A60D2
:103D8400019BD3F884301B889BB21946009A0B46DA
:103D94009B000B44DB00134403F5415328333D4A95
:103DA4001A60019BD3F884301B889BB21946009A91
:103DB4000B469B000B44DB00134403F541532C33A7
:103DC400344A1A6060E0009B03F53D53343300220B
:103DD4001A60009B03F53D53283305220021184641
:103DE40011F044FE009B03F53D531C3305220021D2
:103DF400184611F03BFE009B03F5445324331B6823
:103E04005A1C009B03F5445324331A603CE02C23D2
:103E14008DF81E3038E02C238DF81E30059B1B7A5C
:103E24001B021AB2059BDB791BB213431BB2ADF81C
:103E34001030BDF81030184600F06CFA0246019BB1
:103E4400C3F88420019BD3F88430002B1BD0019B42
:103E5400D3F88420009B03F53D5334331B689A4206
:103E640011D100990198FFF7B5FD33238DF81E3069
:103E740009E0009B03F53D53343300221A602B23E1
:103E84008DF81E3000E000BF9DF81E30184608B0C3
:103E940010BD00BF00AD5E470000000010B588B043
:103EA4000190324A03AB92E803001860043319808E
:103EB4000023ADF80C30019810F0FEFC27A3D3E9E1
:103EC400002310F055FF03460C461846214625A34F
:103ED400D3E9002311F002F803460C4618462146A4
:103EE40010F06EFD0246224B1A60224B1B68002B19
:103EF40015D103AB204A194620480BF075F90790F9
:103F0400079B0693069B002B05D01D4A4FF4B16115
:103F1400069805F021FC174B01221A6012E003AB4E
:103F2400154A194615480BF0D1F903460793079B28
:103F34000593059B002B05D0114A40F28E5105983C
:103F440005F00AFC01210D480BF04CFA0B480BF06C
:103F54001FFA00BF08B010BDAFF3008000000000DE
:103F640080842E410000000065CDDD40747801009E
:103F7400A000002030370020893F00002893010072
:103F8400B477010000B585B003468DF80730FEF71D
:103F94009FF90390104B1A68104B1B689A4211D377
:103FA4001E20FEF757F90E48FEF784F90246039BDC
:103FB40003F5445320331A601E20FEF737F9064BED
:103FC40000221A60044B1B680133034A136000BFCC
:103FD40005B05DF804FB00BFA4000020A000002091
:103FE4002893010010B58CB00590864B0B9343F2D7
:103FF400301200210B9811F039FD059B012B06D1DD
:10400400814B824A1A60824B824A1A6005E07E4BD9
:10401400804A1A607E4B7D4A1A6002F0A1FE7E4BF4
:104024001B6803F124020B9B03F541530C331A6004
:10403400794B1B685B889AB20B9B03F54153083399
:104044001A80754B1B681B889AB20B9B1A80724BA3
:104054001B6834330A930A9B5B7806930A9BDB79CB
:1040640007930A9B9B7808930C2309930B9B03F5F6
:104074003E5206AB1146184603F090FC29230993DF
:104084000B9B03F53E53283306AA1946104603F04A
:1040940085FC0D2309930B9B03F53F53103306AAAC
:1040A4001946104603F07AFC172309930B9B03F57A
:1040B4003F53383306AA1946104603F06FFC2323F6
:1040C40009930B9B03F54053203306AA1946104667
:1040D40003F064FC02F0A2FD0FF070FD02F0F8FFA3
:1040E4000B9B03F541530C331B689B881846FFF761
:1040F400D5FE012002F042FF012005F031FE034607
:10410400002B01D0112379E005F020FF03461A4665
:104114000B9B03F544532D331A703F4B1B6803F17B
:1041240034003D4B1B685B8C9CB23B4B1B681B8C67
:104134009AB20B9B03F5415308331B880B990988EA
:104144000291019300922346082201460120FEF7C2
:10415400B3FC002002F012FF012005F001FE03462B
:10416400002B01D0112349E0002002F039FF05F0B3
:10417400EDFE03461A460B9B03F544532C331A7089
:10418400254B1B6803F13400234B1B68DB8B9CB26B
:10419400214B1B689B8B9AB20B9B03F5415308334D
:1041A4001B880B99098802910193009223460022EF
:1041B40001460020FEF780FC184B194A19491A4899
:1041C40006F0CEFB0121194806F036FFFEF743FF47
:1041D40011F076FB024613461B029B1A144A82FB1B
:1041E40003121A449213DB17D31ADAB20B9B03F5AA
:1041F4003D530C331A700FF007FD002318460CB022
:1042040010BD00BF00060020C8000020BC00002034
:10421400CC000020B0000020685B00209F2F00002D
:10422400812F0000652E0000ED2D000080D00324B6
:104234000300018008B502F007FD00BF08BD00BF00
:1042440070470000024B1B6840331846704700BF9C
:10425400685B002000B585B00023ADF80E30FFF791
:10426400F1FF0290002301930FE0029B1B889BB295
:10427400002B04D0BDF80E300133ADF80E30029B94
:1042840013330293019B01330193019B042BECDD57
:10429400BDF80E30184605B05DF804FB10B586B0C5
:1042A400CDE9000105230493FFF7CCFF039000231D
:1042B400059327E0059A1346DB0013445B0013447F
:1042C400039A1A4453689468DDE90012944208BFC3
:1042D4008B4214D1059A1346DB0013445B0013444C
:1042E400039A13441B889BB2002B08D0059A1346EB
:1042F400DB0013445B001344039A134407E0059B5B
:1043040001330593059A049B9A42D3DB0023184694
:1043140006B010BD00B587B00346ADF806300523DE
:104324000493FFF78FFF03900023059325E0059A7C
:104334001346DB0013445B001344039A13445B8865
:104344009BB2BDF806209A4214D1059A1346DB00AD
:1043540013445B001344039A13441B889BB2002B41
:1043640008D0059A1346DB0013445B001344039AF8
:10437400134407E0059B01330593059A049B9A4275
:10438400D5DB0023184607B05DF804FB00B585B003
:1043940005230293FFF756FF01900023ADF80E307A
:1043A40018E0BDF90E201346DB0013445B001344F0
:1043B400019A13441B889BB2002B04D1BDF80E3024
:1043C40001339BB20CE0BDF90E309BB201339BB2BA
:1043D400ADF80E30BDF90E20029B9A42E1DB0023BA
:1043E400184605B05DF804FB00B589B0CDE90201BB
:1043F4001346ADF8063005230693DDE90201FFF705
:104404004DFF0790079B002B48D1FFF71BFF05903A
:10441400FFF7BCFF0346ADF81230BDF91230002B94
:104424003CDDBDF91220069B9A4237DC04E0BDF85E
:1044340006300133ADF80630BDF806301846FFF7F4
:1044440069FF0346002BF2D1BDF912201346DB00AD
:1044540013445B001344133B059A13440793BDF8BC
:104464001220079B1A80079BBDF806205A80079BE1
:10447400029A5A60039A9A600B4B1B68DB8D9AB2BE
:10448400079B9A81084B1B681B8E9AB2079BDA81A3
:10449400054B1B685B8E9AB2079B1A82079B1846D2
:1044A40009B05DF804FB00BF685B002000B585B06F
:1044B4000346ADF80630BDF806301846FFF72AFF6C
:1044C4000390039B002B04D013220021039811F0C6
:1044D400CDFA00BF05B05DF804FB00B585B0CDE9A9
:1044E4000001DDE90001FFF7D9FE0390039B002BD7
:1044F40004D013220021039811F0B8FA00BF05B0CC
:104504005DF804FB10B483B00023ADF8063000233B
:1045140000930FE00D4A009BDB001344D3E9003401
:1045240023430BD0BDF806300133ADF80630009BB1
:1045340001330093009B042BECD900E000BFBDF8CD
:104544000630184603B05DF8044B70473837002036
:10455400014B1846704700BF3837002010B485B0AF
:10456400CDE90001012302930023039324E0174AB9
:10457400039BDB001344D3E90012DDE90034A242BB
:1045840008BF994202D10023029318E00F4A039B0B
:10459400DB001344D3E9003423430AD10B4A039BC1
:1045A400DB001A44DDE90034C2E90034012302933C
:1045B40005E0039B01330393039B042BD7D9029B90
:1045C400184605B05DF8044B704700BF383700202B
:1045D40008B528220021024811F048FA00BF08BD9E
:1045E4003837002082B00023ADF806302C4B1B78FE
:1045F400002B52D100238DF8043046E00023ADF89F
:10460400063001238DF805302FE0BDF8063003F0A5
:104614000103002B0ED0BDF806305B08ADF8063060
:10462400BDF8063083F4BF4383F07E03DB43ADF86B
:10463400063004E0BDF806305B08ADF806309DF89E
:1046440004209DF805301340DBB2002B08D0BDF8E0
:10465400063083F4BF4383F07E03DB43ADF80630BA
:104664009DF805305B008DF805309DF80530102B62
:10467400CBD19DF80430BDF806200A4941F8232027
:104684009DF8043001338DF804309DF804300F2B6D
:10469400B4D9034B01221A7000E000BF02B0704786
:1046A400A03700206037002086B003900B460192AB
:1046B400ADF80A30039B0593019BADF812303CE042
:1046C400BDF81230DBB203F00F038DF81130BDF8E2
:1046D40012301B09ADF812309DF81120059B1B7890
:1046E40003F00F0353401B4A52F823309AB2BDF82B
:1046F40012305340ADF81230BDF81230DBB203F083
:104704000F038DF81130BDF812301B09ADF81230CB
:10471400059B1B781B09DAB29DF811305340DBB2BC
:104724001A460C4B53F822309AB2BDF8123053405B
:10473400ADF81230059B01330593BDF80A305A1EBB
:10474400ADF80A20002BBBD1BDF81230184606B0D4
:10475400704700BF6037002000B587B001904AF26F
:104764005A53ADF808300B238DF80A3080238DF8A6
:104774000B30019BD3ED047AFCEEE77ACDED007AA1
:10478400BDF800309BB2ADF80C30019BD3ED057A37
:10479400FCEEE77ACDED007ABDF800309BB2ADF8BF
:1047A4000E30019BD3ED037AFCEEE77ACDED007A6F
:1047B400BDF800309BB2ADF81030019BD3ED027A06
:1047C400FCEEE77ACDED007ABDF800309BB2ADF88F
:1047D400123002AB03334FF6FF7209211846FFF77C
:1047E40063FF03469BB2ADF8143002AB0E211846AA
:1047F40000F090FF00BF07B05DF804FB70B584B013
:10480400CDE90001A0200EF037FF0390039B002B9D
:104814003CD045F65A221F49039811F061F80290E2
:10482400039811F0A1F90246039B9818DDE90034BE
:10483400250000262A46009B174911F051F8039BD6
:104844009C1C039811F090F90246029BD31A1A4655
:104854001249204611F044F8029B039A13447B2228
:104864001A70039811F080F90246039B13440C4913
:10487400184611F035F8039811F076F903461946F5
:10488400039800F047FF03980EF0A6FF00BF04B0A2
:1048940070BD00BF8878010090780100A8780100FD
:1048A400B0780100F0B58DB00990A0200EF0E4FEC0
:1048B4000B900B9B002B00F04881A54B1B681B7BC6
:1048C400012B09D0A24B1B685B7B012B04D0A04BAE
:1048D4001B685B7C012B6ED99D4B1B685B7C032B97
:1048E4001CD1099B1B881946099B9B781846099B78
:1048F400D3ED047AFDEEE77A17EE902A099BD3ED07
:10490400057AFDEEE77A17EE903A0193009203469A
:104914000A4690490B9810F0E3FF39E0099B1B8885
:104924001F46099B9B789E46099BD3ED047AFDEEB6
:10493400E77A17EE904A099BD3ED057AFDEEE77A04
:1049440017EE905A099BD3ED067AFDEEE77A17EE3F
:10495400906A099B9B8BDBB21A46099BB3F91E3004
:104964009BB21946099BB3F920309BB21846099BA8
:10497400B3F922309BB206930590049103920296F8
:104984000195009473463A4673490B9810F0A8FFBA
:104994000B9811F0E9F802460B9B13446F49184633
:1049A40010F09EFF0B9811F0DFF8034619460B98A0
:1049B40000F0B0FEC6E0664B1B685B7C012B40F048
:1049C400B58045F65A2266490B9810F089FF0A9083
:1049D4000B9811F0C9F802460B9B13446149184621
:1049E40010F07EFF0B9811F0BFF802460B9B98184D
:1049F400099B1B881A46099B9B781946099B5B688F
:104A040000930B46584910F06BFF514B1B689B7C7D
:104A1400002B0FD00B9811F0A7F802460B9B9818A7
:104A2400099B93F924301A46099B93F925304F4981
:104A340010F056FF0B9811F097F802460B9B98184C
:104A4400099BD3ED037ABDEEE77A099BD3ED027A95
:104A5400FDEEE76A099BD3ED047AFDEEE77A17EEE3
:104A6400902A099BD3ED057AFDEEE77A17EE903A8A
:104A74000193009216EE903A17EE102A3C4910F07A
:104A84002FFF0B9811F070F802460B9B9818099BA6
:104A9400D3ED067AFDEEE77A099B9B8B1C46099BB6
:104AA400B3F91E301A46099BB3F920301946099B05
:104AB400B3F92230029301910092234617EE902A13
:104AC4002C4910F00DFF0B9811F04EF802460B9B89
:104AD40013442949184610F003FF0B9B9C1C0B98A8
:104AE40011F042F802460A9BD31A1A46234920467B
:104AF40010F0F6FE0A9B0B9A13447B221A700B9853
:104B040011F032F802460B9B13441449184610F076
:104B1400E7FE0B9811F028F8034619460B9800F0AD
:104B2400F9FD0B99164810F0ABFE0BE0084B1B681F
:104B34005B7C002B06D10998FFF70EFE4FF44870FA
:104B44000FF04EFA0B980EF047FE00BF0DB0F0BD0B
:104B5400685B0020B4780100CC780100B0780100D3
:104B6400887801000479010010790100307901008E
:104B740044790100687901008C790100A87801006A
:104B84009079010000B589B003900B460192ADF80D
:104B94000A300023ADF814300023ADF81630039822
:104BA40010F0E2FF034607930123069333E0BDF8B8
:104BB4000A301A1F079B9A420EDC04E00FF002FA37
:104BC40005200FF00DFA0799039800F0A3FD0346A2
:104BD400002BF3D100230793069BB3F5966F07DDF3
:104BE400069B019AD11805AB0422184610F014FF55
:104BF400079B039AD018BDF914309AB2BDF9163048
:104C04009BB2154910F06CFE0246079B13440793B0
:104C1400069B04330693069BB3F57E6FC7DD079BA3
:104C2400039A13440D49184610F05AFE0246079B96
:104C34001344079304E00FF0C5F905200FF0D0F9F1
:104C44000799039800F066FD0346002BF3D100BFDB
:104C540009B05DF804FB00BF94790100B07801004D
:104C640000B587B00390019200930B46ADF80A306B
:104C7400039810F079FF034603F19502BDF80A305A
:104C84009A4254D20023059310E0039810F06CFF6D
:104C94000246039B9818059B019A13441B781A46F5
:104CA400254910F01DFE059B01330593059B412BFF
:104CB400EBD9039810F058FF0246039B13441F4995
:104CC400184610F00DFE0023049310E0039810F032
:104CD4004BFF0246039B9818049B009A13441B78CD
:104CE4001A46154910F0FCFD049B01330493049B00
:104CF400042BEBDD039810F037FF0246039B1344AB
:104D04009DF820200E49184610F0EAFD04E00FF04B
:104D140059F905200FF064F9039810F025FF0346B4
:104D24001946039800F0F6FC0346002BEFD100BFB0
:104D340007B05DF804FB00BFA0790100A879010069
:104D4400AC79010000B587B00390A0200EF094FC6C
:104D54000590059B002B67D0384B1B681B7B012BF0
:104D64002AD1039BDA330493354B1A68039B9B784F
:104D74001946039BD3ED067AFDEEE77A17EE903AD7
:104D840000930B462F49059810F0AAFD049AA02120
:104D94000598FFF7F7FE039B03F60B430493284B98
:104DA4001A68039B9B782849059810F099FD049A8A
:104DB400A0210598FFF7E6FE204B1B685B7B012BC7
:104DC4002FD1039B563304931D4B1A68039B9B7886
:104DD4001E49059810F084FD039B03F14C02039BCC
:104DE40093F84A3000931346049AA0210598FFF7DC
:104DF40037FF039B98330493114B1A68039B9B78EA
:104E04001349059810F06CFD039B03F15102039BB9
:104E140093F84B3000931346049AA0210598FFF7AA
:104E24001FFF05980EF0D8FC054B1B680133044A9C
:104E3400136000BF07B05DF804FB00BF685B00208F
:104E4400A4370020B8790100D4790100E479010085
:104E5400F479010000B583B00190114B1A68019BED
:104E64009A4218D00E4A019B1360019B002B09D073
:104E74000C4B1B6803F5905304331B78184602F05F
:104E8400AFF808E0074B1B6803F5905304331B7815
:104E9400184602F073F800BF03B05DF804FB00BFCE
:104EA400A8000020A837002010B588B001900B4658
:104EB400ADF8023000238DF81B30BDF80230002B12
:104EC40000F02081019B1B78022B40F0BF80019BE6
:104ED40001331B785B08DBB203F001031846FFF7CC
:104EE400B9FF019B01331B7803F00103002B59D157
:104EF400019B02331B781A46019B03331B781B0268
:104F040013440593019B04331B781A46019B053314
:104F14001B781B0213440793079B0333B3F5885F85
:104F240002D39DF81B30EDE0784B1B68032283F815
:104F34000021764B1B68002283F80121734B1A6809
:104F4400079B02331344032283F80021059B013B92
:104F5400019A13441B78032B0CD06C4B1B68012261
:104F640083F80121694B1B68032283F80221002383
:104F740007930CE0059B9BB2073B98B2019B991DDC
:104F8400079A624B1B6803F5817302F039F95F4B92
:104F94001B68079A033203F590531A6003238DF8B4
:104FA4001B3053E0019B01331B7803F00103002BFA
:104FB4004CD0019B02331B781A46019B03331B78A8
:104FC4001B0213440493019B04331B781A46019B70
:104FD40005331B781B0213440393049BDA1F039BC2
:104FE400D31A0293494B1B68022283F80021474BD2
:104FF4001B68002283F80121444B1B68032283F8B9
:105004000221049B013B019A13441B78032B02D118
:10501400029B002B05DA3D4B1B68012283F801211A
:105024000BE0029B98B2019B991D039A029B0633E5
:105034001C46019B234402F0FDF8344B1B6803F526
:10504400905303221A6003238DF81B30BDF80230FD
:10505400052B3AD105222E49019810F0DBFB0346BB
:10506400002B32D1294B1B68792283F80021294B6C
:105074001B68DB7C002B12D0244B1B6803F201134A
:105084002549184610F026FD204B1C68224810F0D4
:105094006BFD03469A1C04F590531A6011E01B4BF8
:1050A4001B6803F201131D49184610F013FD174B3A
:1050B4001C681A4810F058FD03469A1C04F59053D6
:1050C4001A6003238DF81B301CE0BDF80230042B5A
:1050D4000DD104221249019810F09CFB0346002BC9
:1050E40005D103F031F900238DF81B300AE0BDF837
:1050F4000230012B06D1019B1B78722B02D10423B1
:105104008DF81B30184608B010BD00BFA83700202A
:10511400507A0100685B0020607A0100747A010013
:10512400587A010000B585B001900B46ADF8023005
:1051340000238DF80F30019B1B78022B14D1019BA7
:1051440002331B781A46019B03331B781B021A4453
:10515400BDF802309A4207D1BDF80230013B019AF2
:1051640013441B78032B17D0BDF80230052B07D14D
:1051740005220E49019810F04DFB0346002B0BD07D
:10518400BDF80230042B0AD104220949019810F019
:1051940041FB0346002B02D101238DF80F309DF80B
:1051A4000F30184605B05DF804FB00BF507A0100CB
:1051B400587A010000B585B003468DF80730002306
:1051C4008DF80F30184B1B68002B03D03A238DF851
:1051D4000F3023E041F208200EF04EFA0246124B43
:1051E4001A60114B1B68002B03D13B238DF80F3041
:1051F40014E00E4B002283F81822002283F81922AF
:105204004FF4807200210A4810F030FC064B1B68F2
:1052140003F5905304339DF807201A709DF80F305E
:10522400184605B05DF804FBA8370020685B002031
:10523400825D002000B583B0184BB3F818329BB2DE
:1052440019461748FFF730FE03468DF807309DF8DE
:105254000730002B1DD0114B002283F818220022A6
:1052640083F819220F4B1B6803F590531B68002B1E
:105274000FD00C4B1B6803F580720A4B1B6803F5B7
:1052840090531B681946104600F044FA064810F083
:10529400F7FA00BF03B05DF804FB00BF685B0020B1
:1052A400825D0020A8370020887A010010B51B4BCE
:1052B4001B68002B2FD00EF081FC01F009FF174B67
:1052C4001B6803F580731649184610F003FC134B52
:1052D4001C68124B1B6803F58073184610F044FCDD
:1052E400024604F590531A600C4B1B6803F5807258
:1052F4000A4B1B6803F590531B681946104600F0CF
:1053040009FA064B1B6818460EF066FA034B002296
:105314001A600EF079FC00BF10BD00BFA837002052
:10532400907A010000B585B001900B46ADF80230CB
:1053340000238DF80F30BDF80230022B6AD84B4B96
:105344001B78002B05D14FF480720021484810F0DF
:105354008DFB464B1B78FF2B54D0BDF80230194609
:10536400019800F0D7F9019B1B780A2B03D0019B0D
:105374001B780D2B1FD13D4B1B78002B6FD03B4B63
:105384001B781A463A493B4810F046FB374B1B78CA
:105394009AB2394BA3F81822344B1B781A46364B71
:1053A4001344002283F81A2202238DF80F302F4B66
:1053B40000221A7053E0019B1B78082B14D12B4B4D
:1053C4001B78002B4BD0294B1B78013BDAB2274BBF
:1053D4001A70264B1B781A46254B00219954032139
:1053E400264800F097F93AE0204B1B781A46019BB7
:1053F40019781F4B99541D4B1B780133DAB21B4BA0
:105404001A702CE002211E4800F084F9174B002288
:105414001A7024E0BDF80230FE2B19D8BDF8023012
:105424001A460199134810F0F7FA134BBDF80220FD
:10543400A3F81822BDF802300F4A1344002283F85F
:105444001A220A4B00221A7002238DF80F3006E04C
:1054540002210C4800F05EF9044B00221A709DF8FA
:105464000F30184605B05DF804FB00BFAC370020D0
:10547400B0370020825D0020685B0020987A01002C
:105484009C7A0100A07A010000B585B001900B461A
:10549400ADF8023000238DF80F30BDF80230204AF9
:1054A40012881344FE2B32D81D4B1B8803F5067358
:1054B4001C4A13440233BDF802200199184610F027
:1054C400ABFA174B1A88BDF8023013449AB2144B46
:1054D4001A80134B1B881A46124B1344002283F87C
:1054E4001A220F4B1B8819460F48FFF71BFE034671
:1054F4008DF80F309DF80F30012B0BD1084B1A8813
:10550400084BA3F81822064B00221A8002E0044B31
:1055140000221A809DF80F30184605B05DF804FB90
:10552400B0380020685B0020825D002000B5CBB05D
:1055340000238DF827310EF041FB394BB3F91030BD
:105544001BB24693364BB3F912301BB248934FF457
:1055540080734593324BB3F914311BB24493304BEF
:10556400B3F916311BB243934FF4807342930EF098
:105574004BFB469A489BD21A459B013B13404193EF
:10558400449A439BD21A429B013B13404093419B54
:10559400002B3FDD6B464FF480720021184610F05B
:1055A40065FA0023479312E01D4A489B13441433C1
:1055B40019786A46479B13440A461A70489B5A1C3A
:1055C400459B013B13404893479B01334793479ABC
:1055D400419B9A42E8DB0EF0F1FA489B1AB2104B59
:1055E4005A820EF011FB0E4B1B79042B08D1419B00
:1055F4009AB26B4611461846FFF746FF034607E08A
:10560400419B9AB26B4611461846FFF78BFE034640
:105614008DF827319DF8273118464BB05DF804FB0F
:10562400685B00200A4B1B78112B01D111230DE07C
:10563400074B11221A70064B00229A80044B9A8859
:10564400034B5A80024B00221A70002318467047FD
:10565400F438002000B585B00190009100238DF846
:105664000F304FF40053ADF80A30294B1B78112B3F
:1056740001D1112347E0264B11221A70244B5B8879
:10568400ADF80C30224B9B88ADF80830BDF80820EB
:10569400BDF80C300133D21ABDF80A30013B1A4070
:1056A400009B9A4223DD1AE0BDF80C20019B591C93
:1056B40001911978164B13440A469A71BDF80C30BF
:1056C40001339BB21AB2BDF80A30013B9BB21BB244
:1056D40013401BB2ADF80C30009B013B0093009BC0
:1056E400002BE1DC0A4ABDF80C30538006E013219C
:1056F40000200FF0BBF813238DF80F30044B002269
:105704001A709DF80F30184605B05DF804FB00BF11
:10571400F438002000B585B001900091124BD3F805
:105724000920009B9A4203DA0F4A009BC2F8093011
:1057340000990198FFF78EFF03468DF80F300A4B4E
:10574400D3F82E33002B09D0074BD3F82E23064B66
:10575400D3F83633194610460EF056FC9DF80F3038
:10576400184605B05DF804FB685B002000B587B0FF
:105774004FF400530393294B1B78112B01D10023C1
:1057840047E0264B1B78112B01D1112341E0234B19
:1057940011221A70214B5B880293204B9B8805933E
:1057A400029A059BD21A039B013B13400193019B70
:1057B400002B2ADD019B402B28BF402300930023AC
:1057C400049312E0154A059B134406331978144ACE
:1057D400049B13440A461A70059B5A1C039B013B05
:1057E40013400593049B01330493049A009B9A424B
:1057F400E8DB019A009BD31A0193059B9AB2074BED
:105804009A800099064802F029F8044B00221A7085
:105814000023184607B05DF804FB00BFF4380020ED
:10582400B438002000B587B00590054BD3F8361383
:105834006B46052218460EF023FCFFF797FFF4E7AA
:10584400685B002008B5064BD3F82E33002B05D037
:105854000EF0B4F9FFF7E6FE0EF0D6F900BF08BD6E
:10586400685B002000B593B0059007AB20220021AF
:10587400184610F0FBF8002311931D4BD3F82A139C
:105884006B464FF0FF3218460EF0FAFBFFF74EFE60
:1058940003468DF843309DF84330022B13D1144B4B
:1058A400B3F818329BB2013BFF2B28BFFF230F93A1
:1058B4000F9B01330E4A1344002283F81A220D4829
:1058C400FBF7E4F8D9E79DF84330012BD5D1084B19
:1058D400D3F87633002BD0D0054BD3F87623044B82
:1058E400D3F87E33194610460EF08EFBC5E700BF91
:1058F400685B0020825D002000B583B00190019BAD
:105904001B681F2B04D9054940F2C71003F03DF86A
:105914004FF0A043184603B05DF804FBAC7A0100D5
:1059240000B585B0019001AB1846FFF7E5FF039081
:10593400019B012202FA03F31946039800F04CF884
:1059440000BF05B05DF804FB00B585B0019001AB64
:105954001846FFF7D1FF0390019B012202FA03F3DB
:105964001946039800F042F800BF05B05DF804FB47
:1059740000B585B0019001AB1846FFF7BDFF039059
:10598400039BD3F804350293029BDA43019B012164
:1059940001FA03F31A40039BC3F80825019B012273
:1059A4009A40029B1A40039BC3F80C2500BF05B024
:1059B4005DF804FB00B583B001900091009B002BBF
:1059C40003D10198FFF7C0FF02E00198FFF7A8FF99
:1059D40000BF03B05DF804FB82B001900091019B0D
:1059E400009AC3F8082500BF02B0704782B0019046
:1059F4000091019B009AC3F80C2500BF02B07047C8
:105A04002DE9F0472DED028BD0B02B90FCF760FC14
:105A14004F90FEF7E7FD0023319331AB18460EF0AB
:105A240077FB0246B84BC3F84A23B74BD3F84A3343
:105A340018460EF0C5FBB44BD3F81E132EAB4FF033
:105A4400FF3218460EF09AFDAF4BD3F84A330021CB
:105A540018460EF069FB1920FFF78AFF2E9B202BB6
:105A640040F036832F9B4E934E9B9B6A1A785B784B
:105A74001B021343ADF83631BDF8362113469B00A3
:105A84001344DB0003F5415218324F9B13444C93EB
:105A94004E9B282219464C980FF0BEFF9B4B4B930C
:105AA4004E9B4A334A934FF0000349934FF000034F
:105AB40048934FF0000347934E9B93F83530DBB285
:105AC4004FF000041B001393002312934E9B93F892
:105AD4003430DBB24FF000041A0A15921B061493FB
