:10000000000001203902000091020000930200006C
:100010009502000097020000990200000000000015
:100020000000000000000000000000006543010027
:100030009D0200000000000089430100197B0000C0
:100040005BCE0000A7020000C9CF0000F5C700008A
:10005000AD020000AF020000A9F30000B3020000EF
:1000600099020100B1020100C9020100F5FB000084
:10007000BD020000BF020000C1020000C302000078
:10008000C5020000954B0100C9020000CB02000030
:10009000CD020000CF020000D1020000D302000018
:1000A000D5020000D7020000D9020000DB020000E8
:1000B000DD020000DF020000A3020000A302000036
:1000C000E1020000E3020000E50200000DC80000AC
:0C00D000E9020000EB020000ED0200005D
:1000DC00354936480A1A02D0072291438D463449D5
:1000EC0034480A1A06D00722914381F30988022268
:1000FC0082F3148830483149314A00F044F83148D1
:10010C003149324A00F03FF831483249324A00F066
:10011C003AF832483249334A00F035F8324833491C
:10012C00334A00F030F833483349344A00F02BF8A6
:10013C0033483449344A00F026F834483449002214
:10014C0000F02CF833483449002200F027F83348EB
:10015C003349091A082902DB002202604160314A46
:10016C0090471F481F49884205D00268043003B4E9
:10017C00904703BCF7E700208646EC4600200021A0
:10018C00294A9047FEE7884207D0521A05D00378D7
:10019C0001300B700131013AF9D17047884202D01D
:1001AC0002700130FAE770470000012000F00020D7
:1001BC000000012000000120D8B9010084000020BB
:1001CC003C010020F0020000F0020000348C010021
:1001DC00D8B901008400002084000020288D010083
:1001EC00288D0100288D0100288D0100288D01002B
:1001FC00288D0100288D0100288D0100D8B901003F
:10020C0090BA01003C0100203C0100203C01002080
:10021C0040BB002040BB002048BB002000C0002099
:10022C0000D000205D020000318900000F484FF023
:10023C000701884385460E4880470E48016841F403
:10024C0070010160BFF34F8FBFF36F8FFFF740BF9B
:10025C0009480A490A4A884207D0521A05D003783D
:10026C0001300B700131013AF9D1704700000120C7
:10027C003503000088ED00E0A48C01000000002094
:10028C0084000020FEE7FEE7FEE7FEE7FEE7FEE760
:10029C00FEE7FEE7FEE7FEE7FEE7FEE7FEE7FEE72A
:1002AC00FEE7FEE7FEE7FEE7FEE7FEE7FEE7FEE71A
:1002BC00FEE7FEE7FEE7FEE7FEE7FEE7FEE7FEE70A
:1002CC00FEE7FEE7FEE7FEE7FEE7FEE7FEE7FEE7FA
:1002DC00FEE7FEE7FEE7FEE7FEE7FEE7FEE7FEE7EA
:0402EC00FEE700BF6A
:1002F0000048704738BB0020FEE70000BFF34F8F77
:10030000054BDB6803F4E0620349044B1343CB6005
:10031000BFF34F8F00BFFDE700ED00E00400FA05DA
:10032000024B034A1A6000BF704700BF84000020E0
:100330000090D00308B500F05DF90346002B06D00D
:100340009A4B1B681B0A9A4A03F01F03136000F0C4
:100350007DF90346002B02D0964B974A1A6000F0B5
:1003600091F90346002B06D0944B1B685B0B944A13
:1003700003F00703136000F0B1F90346002B05D02A
:10038000904BDB688F4A23F08073D36000F0C2F992
:100390000346002B0ED04FF080430022C3F80C21FF
:1003A0004FF080430022C3F810214FF08043002219
:1003B000C3F8382500F0DAF90346002B02D0824B4F
:1003C00003221A6000F0EEF90346002B0BD07F4B9E
:1003D00005221A607E4B01221A607E4B00221A60B1
:1003E0007D4B3F221A6000F0F9F90346002B76D0CE
:1003F0004FF08053794AD3F80434C2F820354FF0D7
:100400008053764AD3F80834C2F824354FF080532D
:10041000724AD3F80C34C2F828354FF080536F4A33
:10042000D3F81034C2F82C354FF080536B4AD3F810
:100430001434C2F830354FF08053684AD3F818347A
:10044000C2F834354FF08053644AD3F81C34C2F8F4
:1004500040354FF08053614AD3F82034C2F8443518
:100460004FF080535D4AD3F82434C2F848354FF03A
:1004700080535A4AD3F82834C2F84C354FF0805391
:10048000564AD3F82C34C2F850354FF08053534AB3
:10049000D3F83034C2F854354FF080534F4AD3F874
:1004A0003434C2F860354FF080534C4AD3F83834B6
:1004B000C2F864354FF08053484AD3F83C34C2F850
:1004C00068354FF08053454AD3F84034C2F86C3554
:1004D0004FF08053414AD3F84434C2F8703500F0ED
:1004E00099F90346002B05D03D4B1B683D4A03F0AC
:1004F0004F03136000F0BAF90346002B0DD04FF004
:100500008043D3F8003403F00103002B05D04FF0F3
:1005100080436FF00102C3F8002400F0D3F90346D2
:10052000002B05D0304B1B682F4A43F480631360C7
:100530002E4BD3F888302D4A43F47003C2F888302C
:10054000BFF34F8FBFF36F8F4FF01023D3F80C32F0
:1005500003F00103012B25D1254B0122C3F804250B
:1005600000BF234BD3F80034002BFAD04FF01023F8
:10057000D3F80C324FF0102223F00103C2F80C32F2
:1005800000BF1B4BD3F80034002BFAD0184B0022CD
:10059000C3F8042500BF164BD3F80034002BFAD063
:1005A000FFF7ACFEFFF7BCFE00BF08BD2403001040
:1005B0004035014074C007400DF0ADBA4402001050
:1005C0003C050040F0ED00E0A00500401056004062
:1005D00088560040185600401456004000C00040A5
:1005E00058020010E40E00403C17004000ED00E00F
:1005F00000E00140124B1B68DBB2062B1DD1114BF2
:100600001B6803F00F03002B17D10F4B1B6803F07F
:10061000F003302B01D1012310E00B4B1B6803F0DA
:10062000F003402B01D1012308E0074B1B6803F0C6
:10063000F003502B01D1012300E00023184670473E
:10064000E00F00F0E40F00F0E80F00F00A4B1B6829
:10065000DBB2062B0DD1094B1B6803F00F03002BF7
:1006600007D1074B1B6803F0F003302B01D10123A6
:1006700000E0002318467047E00F00F0E40F00F0A0
:10068000E80F00F0124B1B68DBB2062B1DD1114B9B
:100690001B6803F00F03002B17D10F4B1B6803F0EF
:1006A000F003302B01D1012310E00B4B1B6803F04A
:1006B000F003402B01D1012308E0074B1B6803F036
:1006C000F003502B01D1012300E0002318467047AE
:1006D000E00F00F0E40F00F0E80F00F00A4B1B6899
:1006E000DBB2062B0DD1094B1B6803F00F03002B67
:1006F00007D1074B1B6803F0F003302B01D1012316
:1007000000E0002318467047E00F00F0E40F00F00F
:10071000E80F00F0124B1B68DBB2062B1DD1114B0A
:100720001B6803F00F03002B17D10F4B1B6803F05E
:10073000F003302B01D1012310E00B4B1B6803F0B9
:10074000F003402B01D1012308E0074B1B6803F0A5
:10075000F003502B01D1012300E00023184670471D
:10076000E00F00F0E40F00F0E80F00F00A4B1B6808
:10077000DBB2062B0DD1094B1B6803F00F03002BD6
:1007800007D1074B1B6803F0F003302B01D1012385
:1007900000E0002318467047E00F00F0E40F00F07F
:1007A000E80F00F00A4B1B68DBB2062B0DD1094B9A
:1007B0001B6803F00F03002B07D1074B1B6803F0E6
:1007C000F003302B01D1012300E0002318467047CD
:1007D000E00F00F0E40F00F0E80F00F00A4B1B6898
:1007E000DBB2062B0DD1094B1B6803F00F03002B66
:1007F00007D1074B1B6803F0F003502B01D10123F5
:1008000000E0002318467047E00F00F0E40F00F00E
:10081000E80F00F0124B1B68DBB2062B1DD1114B09
:100820001B6803F00F03002B17D10F4B1B6803F05D
:10083000F003302B01D1012310E00B4B1B6803F0B8
:10084000F003402B01D1012308E0074B1B6803F0A4
:10085000F003502B01D1012300E00023184670471C
:10086000E00F00F0E40F00F0E80F00F0124B1B68FF
:10087000DBB2062B1DD1114B1B6803F00F03002BBD
:1008800017D10F4B1B6803F0F003302B01D101236C
:1008900010E00B4B1B6803F0F003402B01D1012348
:1008A00008E0074B1B6803F0F003502B01D1012334
:1008B00000E0002318467047E00F00F0E40F00F05E
:1008C000E80F00F0064B1B68062B05D1054B1B6893
:1008D000062B01D1012300E000231846704700BF1A
:1008E000300100103401001000B583B00E4B0193AD
:1008F0000E4B18460EF002F80C4B4FF480620C4978
:1009000018460EF059F8019B1B68B3F1FF3F06D162
:10091000019B4FF48062054918460EF04DF800BF68
:1009200003B05DF804FB00BF00F1060000BC00202E
:10093000288D0100014B1846704700BF00020020BF
:1009400008B54FF480620349034816F0CBFD00BFA1
:1009500008BD00BF00F106000002002008B54FF4FA
:1009600080620349034816F0BDFD00BF08BD00BF0B
:1009700000BC00200002002000B585B00190019B62
:1009800003934FF4DE200DF0B9FF4FF4806201991C
:1009900003480EF011F80023184605B05DF804FB7B
:1009A00000F1060000B585B001900091A02013F081
:1009B0001DFD0390039B002B25D01549039816F0CD
:1009C000EDFD019816F033FE0346952B10D8039BDE
:1009D00006330199184616F0E1FD019816F027FE3E
:1009E00003460633039A13440A49184616F0D6FD07
:1009F000039816F01CFE03461946039804F0F6FE11
:100A0000039813F0A3FD00BF05B05DF804FB00BF21
:100A1000289101003491010010B590B0019003AB12
:100A20000E9300230F93282200210E9816F083FDC9
:100A30000E9B1B681A46019B13441B78184616F040
:100A4000C1FA01460E9B1B681A46019B1344CAB2A9
:100A50001A700E9B1B685A1C0E9B1A600E9B1B681B
:100A60001A46019B13441B78002BE1D14F49019892
:100A700016F002FC02460E9B1A620E9B186A0E9B31
:100A800003F108020E9B1C33494916F0A0FB0E9B94
:100A900000221A600E9B00225A6038E00E9B1A68F2
:100AA00013465B0013449B00424A13440F930E9B72
:100AB00003F108020F9B1B681946104616F090FDC3
:100AC0000346002B1ED10E9B0833184616F0AFFDCF
:100AD00004460F9B1B68184616F0A9FD03469C426E
:100AE00010D10E9B01225A600F9B1A79324B1B7951
:100AF0009A4203D00F9B1B79002B03D10E9B02223D
:100B00005A600FE00E9B1B685A1C0E9B1A600E9BCE
:100B10001A68284913465B0013449B000B441B686A
:100B2000002BBBD10E9B5B68012B02D0022B05D0A2
:100B300028E00E992148FFF735FF23E0FFF7FAFE82
:100B40000D900F9B9B680E9A106A0E9AD2690D99B0
:100B5000984702460E9B5A620E9B5B6A002B0CD094
:100B60000E9B5C6A0E9B5B6A184616F060FD03469E
:100B70001946204604F03AFE03E00E991048FFF7AC
:100B800011FF00BF0949002016F076FB02460E9BBC
:100B90001A620E9B1B6A184616F049FD0346002B8D
:100BA0007FF46BAF00BF10B010BD00BF38910100E3
:100BB0003C91010018980100784C002044910100FC
:100BC0005891010000B585B0039002910192019BFC
:100BD000002B07D1094BD3F81A331021184610F017
:100BE00083FF06E0054BD3F81A332021184610F096
:100BF0007BFF034B184605B05DF804FB784C0020E2
:100C00006491010000B585B0039002910192019BAF
:100C1000002B08D10A4BD3F81A334FF480611846E1
:100C200010F062FF07E0064BD3F81A334FF400616F
:100C3000184610F059FF034B184605B05DF804FB49
:100C4000784C00206491010000B585B003900291BA
:100C50000192019B002B08D10A4BD3F81A334FF4B1
:100C60008071184610F040FF07E0064BD3F81A33A6
:100C70004FF40071184610F037FF034B184605B0CB
:100C80005DF804FB784C00206491010000B585B04C
:100C9000039002910192019B002B07D1094BD3F8DD
:100CA0001A334021184610F01FFF06E0054BD3F819
:100CB0001A338021184610F017FF034B184605B071
:100CC0005DF804FB784C00206491010000B585B00C
:100CD00003900291019205F043F9064BD3F81A33C1
:100CE0004FF48051184610F0FFFE034B184605B034
:100CF0005DF804FB784C00206491010084B00390FF
:100D000002910192019B9AB2029B1A80014B1846F4
:100D100004B070476491010084B003900291019285
:100D2000019B9AB2029B5A80014B184604B070474F
:100D30006491010084B0039002910192019B9BB2E7
:100D4000022B04D9019B9AB2029BDA8408E0029B31
:100D5000002242F0020283F82620002283F8272096
:100D6000014B184604B070476491010084B00390B1
:100D700002910192019B9AB2029B9A84014B184600
:100D800004B070476491010084B003900291019215
:100D9000019B9AB2029B1A85014B184604B070471A
:100DA0006491010084B0039002910192019B9AB278
:100DB000029B5A85014B184604B0704764910100AC
:100DC00084B0039002910192019B9AB2029B9A8592
:100DD000014B184604B070476491010084B0039041
:100DE00002910192019B9AB2029BDA83014B184651
:100DF00004B070476491010084B0039002910192A5
:100E0000019B9AB2029B9A83014B184604B070472B
:100E10006491010084B0039002910192019B9AB207
:100E2000029B5A84014B184604B07047649101003C
:100E300084B0039002910192019B9AB2029B1A84A2
:100E4000014B184604B070476491010084B00390D0
:100E500002910192019B1AB2029BDA80014B184663
:100E600004B070476491010084B003900291019234
:100E7000019B1AB2029B1A81014B184604B07047BD
:100E80006491010084B0039002910192019BDAB257
:100E9000029BDA73014B184604B07047649101005D
:100EA00084B0039002910192019B1AB2029B5A8175
:100EB000014B184604B070476491010084B0039060
:100EC00002910192019BDAB2029B1A73014B184600
:100ED00004B070476491010084B0039002910192C4
:100EE000019BDAB2029B9A74014B184604B070471A
:100EF0006491010084B0039002910192019BDAB2E7
:100F0000029B5A73014B184604B07047649101006C
:100F100084B0039002910192019BDAB2029B1A7194
:100F2000014B184604B070476491010084B00390EF
:100F300002910192019BDAB2029B5A71014B184651
:100F400004B070476491010084B003900291019253
:100F5000019BDAB2029B5A74014B184604B07047E9
:100F60006491010084B0039002910192019B9AB2B6
:100F7000029B5A83014B184604B0704764910100EC
:100F800084B0039002910192019BDAB2029B1A7421
:100F9000014B184604B070476491010084B003907F
:100FA00002910192019BDAB2029B9A73014B18469F
:100FB00004B070476491010000B585B003900291C0
:100FC0000192FFF7CBFC024B184605B05DF804FB1D
:100FD0006491010084B0039002910192019B9AB246
:100FE000029B1A83014B184604B0704764910100BC
:100FF00084B0039002910192019B9AB2029B9A8263
:10100000014B184604B070476491010084B003900E
:1010100002910192019B9AB2029BDA82014B18461F
:1010200004B070476491010084B003900291019272
:10103000019BDAB2029BDA74014B184604B0704788
:101040006491010084B0039002910192019B102BE6
:101050000CD1029B012283F83520029B032283F8E6
:101060003920029B032283F838200EE0019B402B9D
:101070000BD1029B022283F83520029B092283F8C0
:101080003920029B092283F83820024B184604B00D
:10109000704700BF6491010084B0039002910192F7
:1010A000019B9AB2029B1A86014B184604B0704706
:1010B0006491010084B0039002910192019B9AB265
:1010C000029BDA85014B184604B070476491010019
:1010D00084B0039002910192019B9AB2029B5A86BE
:1010E000014B184604B070476491010010B58AB0F6
:1010F0000390029101922C4B0993A02013F076F9F2
:101100000690069B002B49D003F0A6FC0346ADF8E1
:101110001E3003F0C7FC089034E0089BD3E900348C
:10112000089AD2E900128AB21846214603F006FC5A
:101130000590059B002B18D11C49069816F032F833
:10114000069816F074FA0246069B1344184918468E
:1011500016F028F8069816F06AFA0346194606981B
:1011600004F044FB0023099315E0059A937C43F0B7
:1011700001039374BDF81E30013BADF81E30089B8F
:1011800008330893089BD3E90034234303D0BDF808
:101190001E30002BC1D1069813F0D8F903F0C2FC21
:1011A000099B18460AB010BD78910100909101008A
:1011B000AC91010010B58AB003900291019203F046
:1011C00071FC099003F048FC0346ADF82230A020E2
:1011D00013F00CF90690069B002B6ED013F0A4FBC5
:1011E0000D230793BDF82230002B10D00023059368
:1011F000344816F01CFA03460593059B0333BDF8EB
:10120000222002FB03F3033B079A13440793079A38
:101210002D49069815F0C6FF069816F008FA024602
:10122000069B13442949184615F0BCFF069816F092
:10123000FEF903461946069804F0D8FA2EE0099BF9
:10124000D3E900124FF000034FF000041300002414
:101250001A46099BD3E900341D49069815F0A2FFF0
:10126000BDF82230012B09D9069816F0E0F90246A4
:10127000069B13441749184615F094FF069816F07C
:10128000D6F903461946069804F0B0FA099B0833CC
:101290000993BDF82230013BADF82230BDF8223071
:1012A000002BCCD104210C4804F0A0FA13F062FB0F
:1012B00003F038FC069813F049F9084B18460AB0B9
:1012C00010BD00BFB0910100C4910100CC9101009C
:1012D000D8910100E8910100EC91010064910100B6
:1012E00070B588B007900691069B1B889BB21D467F
:1012F000069A536894684FF000014FF000022100F5
:1013000000220E46069A536894681A46069B5B882C
:101310009BB21946069B9B899BB21846069BDB89AC
:101320009BB21C46069B1B8A9BB2049303940290BB
:101330000191009233462A460349079815F032FF7F
:1013400000BF08B070BD00BFF491010000B58BB0C4
:10135000039002910192A02013F048F80590059B9C
:10136000002B6ED013F0E0FA03F016FA099003F0A8
:101370001BFA034607930C230893079B002B13DDEE
:101380000023049309990598FFF7AAFF059816F022
:101390004EF903460493049B0333079A02FB03F3BD
:1013A000033B089A13440893089A2849059815F0B6
:1013B000F9FE059816F03BF90246059B13442449B3
:1013C000184615F0EFFE059816F031F90346194658
:1013D000059804F00BFA0023069326E0099B1B886E
:1013E0009BB2002B1BD009990598FFF779FF079B4B
:1013F000012B09DD059816F01AF90246059B1344E6
:101400001449184615F0CEFE079B013B079305983B
:1014100016F00DF903461946059804F0E7F9099B03
:1014200013330993069B01330693069B012BD5DDED
:101430000421094804F0DAF913F09CFA059813F036
:1014400085F8064B18460BB05DF804FBC49101000B
:1014500048920100E8910100EC91010064910100C3
:1014600070B59AB009900891079200231993A020B3
:1014700012F0BCFF1890189B002B00F0B0804FF0CA
:1014800000034FF00004CDE916340023129300232B
:1014900011930023109300230F9300230E93002336
:1014A0000D930123159312A90AAA0DAB04930EAB59
:1014B00003930FAB029310AB019311AB00930B4658
:1014C0004949099815F083FE034615930F9B002B9D
:1014D00000F082800E9B002B7ED0159B072B7BD1CA
:1014E000129B19464FF000024FF000034FF000042A
:1014F0000C000023119A11464FF0000243EA010547
:1015000044EA0206CDE91656109B9BB21A46DDE965
:10151000160103F013FA1490149B002B5CD00F9B60
:101520009AB2149B9A810E9B9AB2149BDA810D9BFE
:101530009AB2149B1A82149A937C43F00103937419
:1015400045F65A222949189815F02CFE03461393A4
:10155000189816F06CF80246189B13442449184654
:1015600015F020FE189816F062F80246189B1344F6
:1015700014991846FFF7B4FE189816F058F802466A
:10158000189B13441B49184615F00CFE189B9C1C15
:10159000189816F04CF80246139BD31A1A461649AF
:1015A000204615F0FFFD189A139B13447B221A70F6
:1015B000189816F03CF80246189B13440F49184639
:1015C00015F0F0FD189816F032F8034619461898F1
:1015D00004F00CF90A4B1993189812F0B7FF199BF5
:1015E00018461AB070BD00BF54920100C4910100AA
:1015F000709201008092010084920100AC91010080
:101600006491010070B590B005900491039200239D
:101610000F93A02012F0EAFE0E900E9B002B76D0C6
:101620004FF000034FF00004CDE90C3400230A937F
:10163000002309930AA906AA09AB00930B46364971
:10164000059815F0C4FD0A9B19464FF000024FF0B3
:1016500000034FF000040C000023099A11464FF0DC
:10166000000243EA010544EA0206CDE90C56DDE931
:101670000C344FF6FF714FF00002A24208BF9942AE
:1016800004D2DDE90C0103F0D2F904E0BDF83030FA
:10169000184603F0B5F945F65A2220490E9815F080
:1016A00081FD03460B930E9815F0C1FF02460E9B79
:1016B00098180A9A099B1A4915F074FD0E9B9C1CF8
:1016C0000E9815F0B4FF02460B9BD31A1A46154923
:1016D000204615F067FD0E9A0B9B13447B221A706F
:1016E0000E9815F0A4FF02460E9B13440E491846AF
:1016F00015F058FD0E9815F09AFF034619460E98FE
:1017000004F074F8094B0F930E9812F01FFF0F9B13
:10171000184610B070BD00BF8C920100C49101004A
:101720009C92010084920100AC910100649101003F
:1017300010B58AB0039002910192002309933B4AAD
:1017400005AB92E80300186004331980A02012F062
:101750004DFE0890089B002B64D045F65A22344970
:10176000089815F01FFD0790089815F060FF0246D5
:10177000089B13442F49184615F014FD089815F0DE
:1017800056FF0246089B13442B49184615F00AFDE4
:10179000089815F04CFF0246089B134405AA2749F8
:1017A000184615F0FFFC089815F041FF0246089B0B
:1017B0009818234B234A244915F0F4FC089815F097
:1017C00036FF0246089B1344204A2149184615F06B
:1017D000E9FC089B9C1C089815F029FF0246079B12
:1017E000D31A1A461B49204615F0DCFC079B089AC1
:1017F00013447B221A70089815F019FF0246089BC3
:1018000013441549184615F0CDFC089815F00FFF44
:1018100003461946089803F0E9FF089812F096FE6F
:101820000E4B0993099B18460AB010BD5493010052
:10183000C4910100B8920100C4920100DC92010041
:10184000F0920100FC920100089301001C9301003A
:101850004493010084920100AC9101006491010065
:1018600010B588B003900291019200230793A02045
:1018700012F0BCFD0690069B002B00F0EB8113F0EC
:1018800053F845F65A22BA49069815F08BFC059094
:10189000069815F0CCFE0246069B1344B54918463F
:1018A00015F080FC069815F0C2FE0246069B9818BB
:1018B000029B1B889BB21A46AF4915F073FC069831
:1018C00015F0B5FE0246069B9818029B5B889BB2FA
:1018D0001A46AA4915F066FC069815F0A8FE0246BD
:1018E000069B9818029BDB8C9BB21A46A44915F004
:1018F00059FC069815F09BFE0246069B9818029B21
:101900009B8C9BB21A469F4915F04CFC069815F02B
:101910008EFE0246069B9818029B1B8D9BB21A46B0
:10192000994915F03FFC069815F081FE0246069B8A
:101930009818029B5B8D9BB21A46944915F032FCB5
:10194000069815F074FE0246069B9818029B9B8D24
:101950009BB21A468E4915F025FC069815F067FED5
:101960000246069B9818029B5B8B9BB21A468949DC
:1019700015F018FC069815F05AFE0246069B9818BA
:10198000029B1B7C1A46844915F00CFC069B9C1C90
:10199000069815F04CFE0246059BD31A1A467F495D
:1019A000204615F0FFFB059B069A13447B221A7014
:1019B000069815F03CFE0246069B134478491846EB
:1019C00015F0F0FB069815F032FE0346194606980E
:1019D00003F00CFF45F65A226549069815F0E2FB24
:1019E0000590069815F023FE0246069B13446D49A8
:1019F000184615F0D7FB069815F019FE0246069B0F
:101A00009818029B1B791A46674915F0CBFB06987C
:101A100015F00DFE0246069B9818029B5B791A464C
:101A2000624915F0BFFB069815F001FE0246069BC1
:101A30009818029B5B7C1A465D4915F0B3FB069B28
:101A40009C1C069815F0F3FD0246059BD31A1A4616
:101A50005249204615F0A6FB059B069A13447B22AB
:101A60001A70069815F0E3FD0246069B13444C4994
:101A7000184615F097FB069815F0D9FD0346194650
:101A8000069803F0B3FE45F65A223949069815F038
:101A900089FB0590069815F0CAFD0246069B134483
:101AA0004449184615F07EFB069815F0C0FD024625
:101AB000069B9818029BDB8B9BB21A463E4915F099
:101AC00071FB069815F0B3FD0246069B9818029B21
:101AD0009B8B9BB21A46394915F064FB069815F0AA
:101AE000A6FD0246069B9818029B5B8C9BB21A4689
:101AF000334915F057FB069815F099FD0246069BF1
:101B00009818029B1B8C9BB21A462E4915F04AFB73
:101B1000069815F08CFD0246069B9818029BB3F9B7
:101B200006301BB21A46284915F03CFB069815F002
:101B30007EFD0246069B9818029BB3F908301BB243
:101B40001A46224915F02EFB069815F070FD024644
:101B5000069B9818029B1B8B9BB21A461C4915F0DA
:101B600021FB069815F063FD0246069B32E000BF9C
:101B7000C49101005C9301007493010088930100FB
:101B80009C930100AC930100BC930100CC93010035
:101B9000DC930100EC930100FC93010084920100AE
:101BA000AC910100089401001894010028940100F0
:101BB00038940100489401005C9401006C94010089
:101BC0007C9401008C9401009C940100AC94010071
:101BD000BC9401009818029B9B8A9BB21A461F492D
:101BE00015F0E0FA069815F022FD0246069B9818BB
:101BF000029BDB8A9BB21A46194915F0D3FA069B61
:101C00009C1C069815F013FD0246059BD31A1A4634
:101C10001449204615F0C6FA059B069A13447B2208
:101C20001A70069815F003FD0246069B13440E49F0
:101C3000184615F0B7FA069815F0F9FC0346194650
:101C4000069803F0D3FD069812F080FC12F092FE85
:101C5000064B0793079B184608B010BDCC940100B3
:101C6000DC94010084920100AC91010064910100B8
:101C700010B588B003900291019200230793A02031
:101C800012F0B4FB0690069B002B00F0A18045F6F5
:101C90005A225149069815F085FA0590069815F0D4
:101CA000C6FC0246069B13444C49184615F07AFAC6
:101CB000069815F0BCFC0246069B9C18029B93F804
:101CC0003430184606F0AAFC03461A46444920461A
:101CD00015F068FA069815F0AAFC0246069B9C18B7
:101CE000029B93F83530184606F0BBFC03461A46B3
:101CF0003C49204615F056FA069815F098FC024625
:101D0000069B9C18029B93F83630184606F0DAFCC6
:101D100003461A463449204615F044FA069815F051
:101D200086FC0246069B9C18029B93F837301846A7
:101D300006F0AAFC03461A462C49204615F032FA52
:101D4000069815F074FC0246069B9818029B93F8BF
:101D500038301A46264915F025FA069815F067FC22
:101D60000246069B9C18029B93F83B30184606F0EF
:101D700060FC03461A461F49204615F013FA069BDD
:101D80009C1C069815F053FC0246059BD31A1A4674
:101D90001949204615F006FA059B069A13447B2242
:101DA0001A70069815F043FC0246069B134413492B
:101DB000184615F0F7F9069815F039FC0346194650
:101DC000069803F013FD069812F0C0FB0C4B079326
:101DD000079B184608B010BDC4910100EC940100A7
:101DE00000950100109501001C9501002C95010043
:101DF000389501004895010084920100AC910100E2
:101E00006491010000B589B0059004910392364BAE
:101E10000793A02012F0EAFA0690069B002B5BD0F5
:101E2000324B1B79012B19D0304B1B79022B13D06D
:101E30002E4B1B79052B0DD02C4B1B79062B07D075
:101E40002A4B1B79032B01D1294A08E0294A06E0D5
:101E5000294A04E0294A02E0294A00E0294A234BA2
:101E6000D3F80510214BD3F8093000930B462649CF
:101E7000069815F097F9069815F0D9FB0346194610
:101E8000069803F0B3FC069812F060FB174B002293
:101E90005A7100229A710022DA7100221A72134BD1
:101EA00000225A7200229A720022DA7200221A73F9
:101EB000002204990020FFF73BFC00220499002037
:101EC000FFF7CEFC002200210020FFF773F900226B
:101ED00000210020FFF73AFA034B0793079B1846AF
:101EE00009B05DF804FB00BF64910100784C00204C
:101EF00058950100609501006895010070950100FA
:101F000078950100809501008895010000B589B0A1
:101F100003900291019200230793A02012F066FA29
:101F20000690069B002B77D012F0FEFC002005F0F7
:101F3000A3FB012009F040FC03461B0A9BB2DBB265
:101F400007EE903AF8EE677ACDED057A08F04EFB91
:101F5000034607EE903AF8EEE77A9DED057A77EEC4
:101F6000677A9FED317A67EE877AB3EE077A77EE7C
:101F7000877ACDED057ADDED057AFDEEE77A17EE8D
:101F8000902A2A49069815F00DF9069815F04FFB8E
:101F900003461946069803F029FC012005F06CFB66
:101FA000012009F009FC03461B0A9BB2DBB207EED5
:101FB000903AF8EE677ACDED057A08F017FB034604
:101FC00007EE903AF8EEE77A9DED057A77EE677ABC
:101FD0009FED157A67EE877AB3EE077A77EE877A08
:101FE000CDED057ADDED057AFDEEE77A17EE902A64
:101FF0000F49069815F0D6F8069815F018FB034619
:102000001946069803F0F2FB002005F035FB069810
:1020100012F09CFA12F0AEFC064B0793079B184691
:1020200009B05DF804FB00BF85EB913FB895010056
:10203000CC9501006491010000B589B00390029134
:1020400001920023079300230693A02012F0CEF9FB
:102050000590059B002B30D0A0220021059815F09B
:102060006AFA12F061FC17E01649079A13465B0002
:1020700013449B000B441B681A461349059815F03E
:1020800091F8059815F0D3FA03461946059803F020
:10209000ADFB079B013307930A49079A13465B0080
:1020A00013449B000B441B68002BDDD112F062FC33
:1020B000059812F04BFA054B0693069B184609B09B
:1020C0005DF804FB18980100E0950100649101009F
:1020D00000B587B00390029101920298FEF74CFC84
:1020E00003468DF817309DF81730002B07D09DF868
:1020F00017301946002013F003FB002300E0024BC9
:10210000184607B05DF804FB6491010000B589B082
:10211000039002910192164B079304AB0A2200210F
:10212000184615F008FA04AB1A461249039815F040
:102130004EF804AB1946104815F052FA0346002B2E
:1021400004D10E4B1B6801225A740BE004AB1946F4
:102150000B4815F045FA0346002B03D1074B1B68CB
:1021600000225A74024B184609B05DF804FB00BF08
:1021700064910100E8950100F4950100784C00207D
:10218000F895010000B587B00390029101920023F9
:10219000ADF8143005AB1A460849039815F017F846
:1021A00005AB184615F0F3F80346DAB2044B1A7083
:1021B000044B184607B05DF804FB00BFFC95010016
:1021C000000600206491010010B588B003900291D0
:1021D000019204AB00221A605A601A8104AB1A46BD
:1021E0001A49039814F0F3FF04AB1946184814F089
:1021F000A9FF04AB184615F0DBF854EC103B184669
:10220000214613F080FB03460793079813F05FFB0A
:1022100003460C461A4623460E4814F093FFDDEDA4
:10222000077AB2EE047A67EE877A9FED0B7A77EE43
:10223000877AFCEEE77ACDED007A009BDAB2074BA5
:102240001A70074B184608B010BD00BF0896010071
:1022500014960100249601000000C84200060020E8
:102260006491010000B587B003900291019205AB23
:1022700000210A461A800A469A7005AB1A4622497E
:10228000039814F0A4FF9DF81430302B1BD19DF857
:102290001530302B0BD19DF81630302B03D11B4B52
:1022A000C9221A702AE0194BCA221A7026E09DF83A
:1022B0001630302B03D1154BCB221A701EE0134B76
:1022C000CC221A701AE09DF81530302B0BD19DF8F6
:1022D0001630302B03D10D4BCD221A700EE00B4B74
:1022E000CE221A700AE09DF81630302B03D1074B2E
:1022F000CF221A7002E0054BD0221A70044B184608
:1023000007B05DF804FB00BF2C960100000600201A
:102310006491010084B00390029101920F4B4FF43D
:102320000042C3F804250D4BD3F80C350B4A43F09B
:102330000903C2F80C35094BD3F80835074A43F0B6
:102340000103C2F80835054B054AC3F80026034BC4
:1023500001221A60034B184604B070470000014088
:102360003546526E6491010000B587B0039002912A
:1023700001920023059305AB1A461D49039814F0FA
:1023800026FF05AB19461B4815F02AF90346002B1A
:102390000BD1194B1B68002242F001021A70002277
:1023A0005A70164BFF221A7015E005AB19461448F7
:1023B00015F016F90346002B0BD10F4B1B684FF09D
:1023C000FF321A704FF0FF325A700C4B00221A7015
:1023D00001E00C4B08E0084B1B681B889BB21946B8
:1023E000094814F0AFFE094B184607B05DF804FB2E
:1023F0003896010040960100784C002088000020AB
:10240000489601006C910100509601006491010012
:1024100000B583B00190019B1B681F2B04D90549AF
:1024200040F2C71006F001FE4FF0A043184603B07B
:102430005DF804FBD09A010000B585B0019001ABB6
:102440001846FFF7E5FF0390019B012202FA03F310
:102450001946039800F018F800BF05B05DF804FBBA
:1024600000B585B0019001AB1846FFF7D1FF03908E
:10247000019B012202FA03F31946039800F00EF8BB
:1024800000BF05B05DF804FB82B001900091019B94
:10249000009AC3F8082500BF02B0704782B00190CF
:1024A0000091019B009AC3F80C2500BF02B0704751
:1024B00082B00190019BD3F80435184602B07047F2
:1024C00000B583B00190019B1B681846FFF7F0FF31
:1024D0000346184603B05DF804FB0000014B1846A4
:1024E000704700BF0806002000B589B003900B4676
:1024F00001928DF80B309DF80B30002B08D09DF821
:102500000B30012B04D0842250495148FDF7F4FED2
:102510009DF80B30002B14BF01230023DBB21A46B9
:1025200013465B0113445B00B833039A13440593CD
:10253000059B05221A70059B013301A90422184648
:1025400014F0D0FF059B03F5A5730522042110208C
:1025500008F002FB059B0A3311220021122008F02B
:10256000FBFA9DF80B30002B14D1002307930DE0EC
:10257000039A079B134492331978059A079B1344D7
:102580001B330A461A70079B01330793079B042BE2
:10259000EEDD13E0002306930DE0039A069B13443F
:1025A00097331978059A069B13441B330A461A7011
:1025B000069B01330693069B042BEEDD059B1B3324
:1025C000053309220521152008F0C6FA059B03F5FD
:1025D00004631B789B09DBB29AB2059B03F6820366
:1025E0001B789BB29B009BB21344ADF81230BDF830
:1025F00012309B009BB20133ADF81230059B03F102
:102600002900BDF81230013B9BB21A46112108F097
:1026100010FA059B393302224FF480512E2008F026
:102620009BFA059B3B3304222821272008F094FACB
:10263000059B3F33022241F202012E2008F08CFA62
:10264000BDF81230184609B05DF804FBF49A010099
:10265000409B010000B585B0019000238DF80F303C
:1026600000238DF80E3004F07DFF08F059FF019B28
:10267000B3F9003098B2019B02330022194608F0EA
:102680007EF9019BB3F900309BB20122002118466C
:1026900008F098F9019BD3F88430002B05D0019BFA
:1026A000D3F88430184608F0CCFE019BD3F888306C
:1026B000002B12D0019B93F8813003F00203002B12
:1026C0000BD0019BD3F88830184608F07DFC019BA5
:1026D000B3F88C30184608F0B7FF019BD3F884306C
:1026E000002B14BF01230023DBB25AB2019B93F8E5
:1026F00081305BB213435BB28DF80E309DF80E3023
:10270000184608F0ABFE0346002B02D02D238DF8AF
:102710000F309DF80F30184605B05DF804FB00003F
:1027200010B52DED028B88B0039002910192002329
:102730008DF81F30039B34330593019B07EE903ACD
:10274000F8EEE77A17EE900A13F0C1F83DA3D3E94B
:10275000002313F059FA03460C461846214613F09D
:10276000D2F80246029B1A60039B9B7B012B34D15B
:10277000029B1B6806932E4B1B681B7C012B18D1F8
:10278000059B1B78052B08D19DED067ADFED296AA4
:10279000C7EE267ACDED067A0BE0059B1B78022B5F
:1027A00007D19DED067ADFED246AC7EE267ACDEDDE
:1027B000067A029B93ED008A059B1A78059B5B784D
:1027C00019469DED060A104605F0F2F9F0EE407A42
:1027D00078EE677A029BC3ED007A029BD3ED007A14
:1027E0009FED167AF4EEC77AF1EE10FA03DD34238A
:1027F0008DF81F3013E0029B93ED007A039BB3F931
:1028000008301BB207EE903AF8EEE76A9FED0C6ACB
:10281000C6EE867A77EE677A029BC3ED007A9DF862
:102820001F30184608B0BDEC028B10BDAFF300801E
:10283000784C0020AE47C13F14AEA73F0000FA44D9
:1028400000007A441329AA153236733F00000000B5
:1028500030B58FB001908DED000A019B93ED037AA6
:10286000DFED756AC7EE267ACDED087A019B9B688D
:102870000B939DED0B7ADDED007A77EE677ACDED67
:102880000B7ADDED0B7A9FED6D7AF4EEC77AF1EEFF
:1028900010FA07D5DDED0B7A9FED697A77EE877A2E
:1028A000CDED0B7ADDED0B7A9FED667AF4EEC77A0B
:1028B000F1EE10FA07DDDDED0B7A9FED617A77EE30
:1028C000C77ACDED0B7A0B9813F001F858A3D3E932
:1028D000002313F099F903460C461846214613F0DD
:1028E00012F803460D93584B1B68DB7B002B24D05A
:1028F000564B03AC1D460FCD0FC42B682360039BC2
:102900000A930123099313E09DED0A7ADDED0D7A18
:1029100027EE277A099B9B000EAA13442C3BD3ED8C
:10292000007A77EE277ACDED0A7A099B0133099375
:10293000099B042BE8DD0A9B0D939DED0D7ADFEDDD
:10294000446AC7EE267ACDED0C7ADDED0C7AB7EE4F
:10295000007AF4EEC77AF1EE10FA03DD4FF07E5301
:102960000C930AE0DDED0C7ABFEE007AF4EEC77A44
:10297000F1EE10FA01D5374B0C939DED0D7AF0EE88
:10298000006AC7EE267A9DED087A37EE677ADDEDAC
:102990000C7A67EE277A9FED307A77EE877A9FED93
:1029A000267A67EE877A019BC3ED047A9DED0D7A56
:1029B000F0EE006AC7EE267A9DED087A77EE677A28
:1029C00017EE900A12F083FF04460D469DED0C7A37
:1029D000DDED0C7A67EE277AB7EE007A77EE677A4C
:1029E00017EE900A12F073FF02460B4643EC102BD1
:1029F00014F056F853EC102B2046294613F004F936
:102A000003460C46184621464FF00002134B13F0C4
:102A1000FBF803460C461846214612F074FF0246A6
:102A2000019B5A6100BF0FB030BD00BFAFF3008003
:102A3000C28FFDC895C9203F0000C842000034C3C2
:102A40000000B44300003443784C0020649B010034
:102A5000C364AA3C000080BFC3642A3C0000594004
:102A600010B58EB001904FF000030D93019B1B78C1
:102A70008DF83330019B03330B93019B5B788DF80A
:102A80002B30019B083309939DF8333003F07F030B
:102A900007EE903AF8EEE77A9FED897AC7EE876AFB
:102AA00016EE900A12F013FF7FA3D3E9002313F070
:102AB000ABF803460C461846214612F024FF0346A5
:102AC00008930B9B01331B781B021AB20B9B1B78DC
:102AD0001BB213431BB2ADF810300B9B03331B78B2
:102AE0001B021AB20B9B02331B781BB213431BB29F
:102AF000ADF812309DF82B3003F07F0307EE903ACB
:102B0000F8EEE77A9FED6E7AC7EE876A16EE900AC6
:102B100012F0DDFE64A3D3E9002313F075F8034639
:102B20000C461846214612F0EEFE03460793099B19
:102B300001331B781B021AB2099B1B781BB213438B
:102B40001BB2ADF80C30099B03331B781B021AB281
:102B5000099B02331B781BB213431BB2ADF80E3036
:102B6000BDF9123007EE903AF8EEE77ABDF9103071
:102B700007EE103AB8EEC77AF0EE470AB0EE670AF1
:102B800013F04AFB8DED060ABDF90E3007EE903AC0
:102B9000F8EEE77ABDF90C3007EE103AB8EEC77AD6
:102BA000F0EE470AB0EE670A13F036FB8DED050A2A
:102BB0009DED067ADDED087A37EE677ADDED056A80
:102BC000DDED077A76EEE77A77EE677ACDED0D7A6E
:102BD0000D9812F07CFE34A3D3E9002312F0D0FE4E
:102BE00003460C461846214612F08DFE03460D930F
:102BF0000FE00D9812F06BFE2DA3D3E9002312F025
:102C0000BDFE03460C461846214612F07CFE0346E4
:102C10000D930D9812F05BFE25A3D3E9002313F06A
:102C2000EAF90346002BE4D10FE00D9812F04FFEB5
:102C30001FA3D3E9002312F0A3FE03460C46184657
:102C4000214612F060FE03460D93DDED0D7AF5EEA0
:102C5000C07AF1EE10FAE8D40D9812F038FE12A303
:102C6000D3E9002312F08AFE03460C46184621469B
:102C700012F049FE03460D930D9812F028FE0EA3A4
:102C8000D3E9002312F0C0FF03460C461846214644
:102C900012F039FE03460D930D9B07EE903AB0EE0D
:102CA000670A0EB010BD00BF182D4454FB21094027
:102CB000182D4454FB211940F8C1631ADCA54C407F
:102CC0000000804200B589B0029111461A460346C1
:102CD0008DF80F300B46ADF80C301346ADF80630CA
:102CE000029B1B78052B05D04FF4D8723F49404812
:102CF000FDF702FB9DF80F30002B09D09DF80F3037
:102D0000012B05D040F2B11238493A48FDF7F4FAE8
:102D10009DF80F30184604F0AFFC029807F08CFCC9
:102D2000029B5B78013B344A9B0013445B6807932A
:102D3000324B1B681B7C012B03D1012008F0EAF801
:102D400012E0079BDBB20793079B1A02079B1B0449
:102D50001A44079B1B061344079A13430793284BF7
:102D60000793002008F0D6F8079B0693C0238DF840
:102D7000143005AB184607F049FCBDF8063018467C
:102D800007F0EDFDBDF82830184607F0D7FD00200C
:102D900008F0ECF8002008F017F9002008F054FCC7
:102DA000BDF80C30184607F0E1FFBDF82C3018468E
:102DB00008F010F8BDF83030184608F01BF8029BF8
:102DC0009B78042B08D1002004F024FC002008F09C
:102DD0007FF8002004F050FC032008F01BFA0320C9
:102DE00007F0DCFB00BF09B05DF804FBF49A0100BA
:102DF000789B01008C9B0100BC9B0100784C00205B
:102E0000851F1F8500B583B080238DF8043001AB8A
:102E100001221121282007F041FE0A238DF80430F9
:102E200001AB01221221282007F038FE0F238DF874
:102E3000043001AB01221221282007F02FFE0023CD
:102E40008DF8043001AB012200212A2007F026FE74
:102E500001238DF8043001AB012200212A2007F064
:102E60001DFE00BF03B05DF804FB2DE9F04F89B0F3
:102E70000390039800F53D502030007881465FFABA
:102E800089F94FF0000ACB46D4464FF000094FF0C5
:102E9000000A584682464FF00009039800F53D505D
:102EA0001F30007883465FFA8BFB4FF0000C5846CA
:102EB000040A5846030649EA03074AEA0408039B42
:102EC00003F53D531E331B785FFA83F94FF0000A78
:102ED0004FF000034FF000044FEA0A4444EA19445B
:102EE0004FEA094347EA030548EA0406039B03F552
:102EF0003D531D331B78DFB24FF000084FF0000345
:102F00004FF000044FEA082444EA17643B0245EA04
:102F1000030146EA0402039B03F53D531C331B786F
:102F2000DBB24FF0000441EA0300009042EA0403E0
:102F30000193DDE90034CDE90634039B03F54153E9
:102F40000C331B681B890593039B03F541530C331A
:102F50001B68DB881A46059B9B1A0593039B03F5A8
:102F60003F531C331B68059AD31A0593039B03F543
:102F70003F5338331B68059AD31A0593039B03F517
:102F8000405320331B68059AD31A0593059812F015
:102F9000E2FB03460C4644EC103B05F0D1FA0A462E
:102FA00001464FF000034FF000040B0A43EA0263AE
:102FB000140A0593DDE906124FF000034FF00004F8
:102FC0000B0A43EA0263140A1A46059B134405934D
:102FD000059B23F001030593039B03F54053343312
:102FE0001B689BB23233ADF8123004F0CBFA05986F
:102FF00008F027FABDF81230184608F025FB01202A
:1030000008F0DAFAFFF7FEFE04F0ACFA059808F0D3
:1030100018FABDF81230184608F016FB012008F027
:10302000CBFAFFF7EFFE00BF09B0BDE8F08F00005C
:1030300000B585B00190FFF751FA0390039B002B78
:103040002CD01848FFF73CFA0290039B03F53D5340
:1030500038331B78012B02D0032B0ED01FE0039BCB
:1030600003F53D531833029A1A60039B03F53D5351
:103070001033184607F0F8FC11E0039B03F53D53AD
:103080002433029A1A60039B03F53D531C33184600
:1030900007F0EAFC0398FFF7E8FE00E000BF05B088
:1030A0005DF804FB5CB6010000B589B00190FFF744
:1030B00015FA079002230693079B03F53D5304334B
:1030C0001B680593079B03F53D5308331B68049366
:1030D000059B0133049AD21A069B013B1340002B37
:1030E00065DD059B4FF4BD5202FB03F3079A1344C1
:1030F000043303933048FFF7E3F90246039BC3F818
:103100009C2004F03FFA039B9733184607F0B9FC64
:1031100000210F2007F07BFD0246039BC3F8B4207B
:10312000264A00210F2007F0FCFD04F01BFA039B48
:103130009233184607F0A5FC019B1A68039BC3F85D
:10314000B020019B9B887F2B28BF7F239BB21AB2A4
:10315000039B1A80039B981C039BB3F900309BB21E
:103160000022194607F050FC154BD3F83A33002BD8
:103170001ED0059B5A1C069B013B13400593079BE1
:1031800003F53D530433059A1A600D4BD3F83A23E7
:103190000B4BD3F842331946104611F0EBFD0346B2
:1031A000002B05D04021012012F0AAFA00E000BF58
:1031B00009B05DF804FB00BF5CB6010000FF2724E6
:1031C000784C002000B583B0019004F0CBF90020CA
:1031D00008F03AFA002008F0EFF900BF03B05DF8FC
:1031E00004FB00B583B001900198FFF7EBFF00BF2F
:1031F00003B05DF804FB00B585B003460A468DF8C0
:10320000073013468DF8063004F09AFC03909DF8C1
:103210000730002B26D0012B39D10021242007F0C4
:103220001AFD0346ADF80A30BDF80A3003F4FF6317
:10323000ADF80A30BDF80A3043F40063ADF80A3047
:103240009DF80630DB001AB2BDF90A3013431BB2F9
:10325000ADF80A30BDF80A301A460021242007F0E4
:1032600041FD15E00021242007F0F5FC0346ADF8F0
:103270000A30BDF80A3003F4FF63ADF80A30BDF838
:103280000A301A460021242007F02CFD00E000BF80
:10329000039804F066FC00BF05B05DF804FB08B5B8
:1032A00004F070F921210120FFF7A5FF04F05AF97D
:1032B00021210120FFF79FFF012004F085FA012062
:1032C00004F0AEFA012004F095FA002004F092FA1E
:1032D000002004F079FA04F055F900210020FFF7EE
:1032E0008AFF04F03FF900210020FFF784FF00BFB0
:1032F00008BD000086B003900B460192ADF80A307D
:10330000039B03F5425328331B68019AD31A059394
:10331000059B002B03DA059B03F180730593059B46
:1033200007EE903AF8EEE77A9FED197A27EE877A62
:10333000BDF80A3007EE903AF8EEE77ADFED156A4D
:1033400067EEA66A039B03F541530C331B681B8889
:1033500007EE903AF8EEE77A66EEA77A77EE677AAC
:10336000FDEEE77A17EE903A0593059B07EE903A4B
:10337000B8EEE77ADFED086AC7EE267AFDEEE77A67
:1033800017EE903A0593059B184606B0704700BFAC
:10339000286BEE460024744900007A4400B587B0DB
:1033A0000390029101920093039B20221A70029BCA
:1033B0009A78039B5A70029BDA78039B9A70039B5E
:1033C0000322DA71029B1B889BB2009A194601986E
:1033D000FFF790FF0490002305930EE0059BDB00B0
:1033E000049A42FA03F3D9B2039A059B13440E33AD
:1033F0000A461A70059B01330593059B032BEDDDEF
:10340000019B03F541530C331B689B88DAB2039B85
:103410001A72019B03F541530C331B689B881B0AEE
:103420009BB2DAB2039B5A72019B03F541530C33F2
:103430001B681B89DAB2039B9A72019B03F5415307
:103440000C331B681B891B0A9BB2DAB2039BDA722E
:10345000019B03F541530C331B68DB88DAB2039BF5
:103460001A73019B03F541530C331B68DB881B0A5D
:103470009BB2DAB2039B5A73029B9B899BB2DAB26E
:10348000039B9A74029B9B899BB21B0A9BB2DAB284
:10349000039BDA74029BDB899BB2DAB2039B1A7539
:1034A000029BDB899BB21B0A9BB2DAB2039B5A7563
:1034B000029B1B8A9BB2DAB2039B9A75029B1B8A02
:1034C0009BB21B0A9BB2DAB2039BDA7500BF07B04E
:1034D0005DF804FB00B589B003900291019200935E
:1034E000039B72221A70029B1B889BB2009A19469A
:1034F0000198FFF7FFFE0690002307930EE0079B5D
:10350000DB00069A42FA03F3D9B2039A079B1344ED
:1035100001330A461A70079B01330793079B032B5D
:10352000EDDD2F4B1A78039B5A71029B1B889BB2CF
:103530001946019A0B469B000B44DB00134403F52C
:1035400041532833D3ED007AFDEEE77A17EE903A37
:103550000593059BDAB2039B9A71059B1B12DAB2A5
:10356000039BDA71029B1B889BB21946019A0B469A
:103570009B000B44DB00134403F541532C33D3ED84
:10358000007AFDEEE77A17EE903A0593059BDAB2E2
:10359000039B1A72059B1B12DAB2039B5A72029BA1
:1035A0001B889BB21946019A0B469B000B44DB001B
:1035B000134403F541533033D3ED007AFDEEE77A3F
:1035C00017EE903A0593059BDAB2039B9A72059B1E
:1035D0001B12DAB2039BDA7200BF09B05DF804FB7C
:1035E000000600202DE9F04FC3B015901491159BF3
:1035F000D3F884303E933E9B9B7C03F00103DBB207
:10360000002B40F0C98016AB02333D932923ADF85F
:1036100058303D9A412313703D9A8C235370149B6C
:1036200003F5415308331B88DBB23D9AD370149BDA
:1036300003F5415308331B881B0A9BB2DBB23D9A4A
:1036400013713D9B581D3E9B04330822194613F00D
:1036500049FF149B1B783D9A5373149B5B783D9AEA
:103660009373149B03F53D530C331B783D9A937071
:103670003D9B0F333F93464B1B685B8B9BB23C9348
:10368000149B03F53E530C331A683C9B13443C9344
:10369000149B03F53E5328331A683C9B13443C9318
:1036A000159B93F89630DBB24FF000044FF0000109
:1036B0004FF000021A000021159B93F89530DBB201
:1036C0004FF000041E0A1D0641EA0503009342EA7A
:1036D00006030193159B93F89430D9B24FF0000282
:1036E0004FF000034FF00004140444EA11440B04AB
:1036F000DDE90001024642EA03090A4642EA040AF9
:10370000159B93F89330D9B24FF000024FF00003AD
:103710004FF00004140244EA11640B0249EA030763
:103720004AEA0408159B93F89230DBB24FF000048C
:1037300047EA0302089248EA04030993DDE90834E2
:10374000CDE940343C9812F006F803460C4644ECB0
:10375000103B04F0F5FE0A460146DDE940345818F6
:103760000A9044EB02030B93DDE90A34CDE94034BF
:10377000DDE9403407494FF0FF0203EA01000C90F5
:1037800004EA02030D93DDE90C34CDE94034D4E0C2
:10379000784C002000FEFFFF3E9A937C6FF30003FD
:1037A000937416AB02333B932323ADF858303B9A06
:1037B000412313703B9A88235370149B03F54153A4
:1037C00008331B88DBB23B9AD370149B03F541533B
:1037D00008331B881B0A9BB2DBB23B9A13713E9BDA
:1037E0009B783B9A53713E9BDB783B9A9371149B79
:1037F0001B783B9AD371149B5B783B9A1372149B92
:1038000003F53D530C331B783B9A93703B9B093374
:103810003F93704B1B685B8D9BB23C93149B03F5ED
:103820003F531C331A683C9B13443C93149B03F591
:103830003E5328331A683C9B13443C93159B93F8E2
:103840009630DBB24FF000044FF000014FF0000261
:103850001A000021159B93F89530DBB24FF000045D
:103860004FEA132C4FEA036B41EA0B03029342EA3F
:103870000C030393159B93F89430D9B24FF00002D8
:103880004FF000034FF00004140444EA11440B0409
:10389000DDE9020102461A4304920A4622430592D8
:1038A000159B93F89330D9B24FF000024FF000030C
:1038B0004FF00004140244EA11640B02DDE9040134
:1038C00002461A4306920A4622430792159B93F832
:1038D0009230DBB24FF00004DDE9060102461A43E4
:1038E0000E920A4622430F92DDE90E34CDE94034B0
:1038F0003C9811F030FF03460C4644EC103B04F0BA
:103900001FFE0A460146DDE940345818109044EB8A
:1039100002031193DDE91034CDE94034DDE9403490
:103920002D494FF0FF0203EA0100129004EA02035E
:103930001393DDE91234CDE94034159BD3F89C3064
:10394000149A3E993F98FFF729FD03238DF8D9304B
:10395000DDE940124FF000034FF000040B0A43EA88
:103960000263140A3793002338930023ADF8E43040
:10397000149B03F53D53383301221A70149B03F551
:103980003D530C331B780133DAB2149B03F53D53DE
:103990000C331A7010F0C8FF16AB1846FEF75AFE2B
:1039A00003468DF8EB3010F0E5FF9DF8EB30002B6F
:1039B0000AD0149B03F542532C331B685A1C149BEA
:1039C00003F542532C331A609DF8EB30184643B090
:1039D000BDE8F08F784C002000FEFFFF2DE9F04796
:1039E000B4B0099008910BAB02333393339A41235F
:1039F0001370339A88235370089B03F5415308339F
:103A00001B88DBB2339AD370089B03F5415308330C
:103A10001B881B0A9BB2DBB2339A1371099BD3F844
:103A200084309B78339A5371099BD3F88430DB78C8
:103A3000339A9371089B1B78339AD371089B5B78F8
:103A4000339A1372089B03F53D530C331B78339A5A
:103A50009370339B03F10900099BD3F88410099BF1
:103A6000D3F89C30089AFFF735FD089B03F54153C6
:103A70000C331B68DB883293089B03F53F531C33E0
:103A80001A68329B13443293089B03F53F53383333
:103A90001A68329B13443293089B03F53D532C3331
:103AA0001B78DBB24FF000044FF000014FF0000232
:103AB0001A000021089B03F53D532B331B78DBB222
:103AC0004FF000041E0A1D0641EA0503009342EA76
:103AD00006030193089B03F53D532A331B78D9B2A3
:103AE0004FF000024FF000034FF00004140444EACA
:103AF00011440B04DDE90001024642EA03090A46CB
:103B000042EA040A089B03F53D5329331B78D9B2D6
:103B10004FF000024FF000034FF00004140244EA9B
:103B200011640B0249EA03074AEA0408089B03F5FB
:103B30003D5328331B78DBB24FF0000447EA030201
:103B4000029248EA04030393DDE90234CDE93034FC
:103B5000329811F000FE03460C4644EC103B04F092
:103B6000EFFC0A460146DDE930345818049044EB76
:103B700002030593DDE90434CDE93034DDE9303466
:103B800022494FF0FF0203EA0100069004EA020313
:103B90000793DDE90634CDE93034DDE930124FF02A
:103BA00000034FF000040B0A43EA0263140A2C934B
:103BB0001723ADF82C3000238DF8AD3000232D9362
:103BC0000023ADF8B830089B03F53D530C331B7848
:103BD0000133DAB2089B03F53D530C331A70089B8E
:103BE00003F53D53383303221A7010F09DFE0BABE2
:103BF0001846FEF72FFD03468DF8BF3010F0BAFED1
:103C00009DF8BF30184634B0BDE8F08700FEFFFFD6
:103C100000B585B001900091019B01220421142080
:103C200006F09AFF0521152007F015F80346ADF8B8
:103C30000E30BDF80E3007EE903AF8EE677A9FED41
:103C4000107A67EE877AB6EE007A77EE877AFDEE25
:103C5000E77AF8EEE77AB1EE007A67EE877AFCEE63
:103C6000E77A17EE903AADF80E30BDF80E301A46EE
:103C70000521009806F0DDFE00BF05B05DF804FBED
:103C80000000803C00B585B00190009110F04CFE22
:103C9000002303930FE0009A039B134403F53D5365
:103CA00028331978019A039B134488330A461A7003
:103CB000039B01330393039B042BECDD002302934E
:103CC0000FE0009A029B134403F53D531C3319780F
:103CD000019A029B13448D330A461A70029B0133EA
:103CE0000293029B042BECDD03F03CFC019B03F1EF
:103CF000A002019BA23319461046FFF789FF019BE2
:103D0000AC33012204212A2006F026FF03F03AFCFE
:103D1000019B03F1A102019BA73319461046FFF74F
:103D200077FF019BAD33012204212A2006F014FF06
:103D3000234B1B685B7B012B13D103F013FC019B0E
:103D4000D3F8B0301A4600210198FEF7CDFB03F0FE
:103D500019FC019BD3F8B4301A4601210198FEF7F3
:103D6000C3FB174B1B681B7B012B20D1019B03F569
:103D70009E7341F262620021184613F0DCFB03F0EF
:103D8000F1FB019B03F59E734FF4967240F63131BF
:103D9000184606F04EFE03F0F5FB019B03F66D435B
:103DA0004FF4967240F63131184606F042FE03F0A9
:103DB000D9FB10F0DFFD00BF05B05DF804FB00BFCC
:103DC000784C00200000000070B58CB0019000918C
:103DD00088A4D4E90034CDE90A340721152006F07F
:103DE0003AFF0346ADF826300021122006F00FFFFF
:103DF000034619464FF000024FF000034FF0000455
:103E00000B0C43EA0243140CADF8243004211220B9
:103E100006F021FF0346ADF822300621122006F0FD
:103E20001AFF0346ADF820300021102006F0EFFE07
:103E300003461B0D9BB2C3F30B03ADF81E30BDF858
:103E40002630184611F087FC03460C469FED641B94
:103E500044EC103B12F078FD55EC104BBDF82430CB
:103E6000184611F078FC02460B469FED5D1B43ECB3
:103E7000102B12F069FD53EC102B2046294611F04F
:103E80007FFD03460C4625461C46BDF822301846E9
:103E900011F061FC02460B469FED511B43EC102BC9
:103EA00012F052FD53EC102B2046294611F068FD0C
:103EB00003460C4625461C46BDF81E30184611F038
:103EC00033FC02460B462046294611F053FF0346B9
:103ED0000C4625461C46BDF81E30184611F024FC41
:103EE00002460B462046294611F08EFE03460C463C
:103EF00044EC173BB0EE470AF0EE670A12F0E4FC20
:103F000051EC100B4FF00002394B11F07DFE0346CF
:103F10000C4618462146DDE90A2311F02FFD034621
:103F20000C46CDE904349FED301B9FED2D0B12F0B4
:103F30000BFD56EC105BBDF82030184611F0F4FB79
:103F400003460C461A4623462846314611F05CFECD
:103F500003460C4625461C46BDF81E30184611F097
:103F6000E3FB02460B462046294611F003FF0346B9
:103F70000C4625461C46BDF81E30184611F0D4FBF1
:103F800002460B462046294611F03EFE03460C46EB
:103F900044EC173BB0EE470AF0EE670A12F094FCCF
:103FA00051EC100B4FF00002114B11F02DFE0346A7
:103FB0000C4618462146DDE90A2311F0DFFC0346D2
:103FC0000C46CDE90234019ADDE90434C2E900343B
:103FD000009ADDE90234C2E9003400BF0CB070BDC4
:103FE0000000000000000040000000000000314020
:103FF00000002440E17A14AE47715C4010B58AB0ED
:1040000001900091FF238DF827302B238DF8263067
:10401000019B02330793079B1B78C52B08D1019B9B
:10402000B3F900300C2B03D1EE238DF8273025E0B7
:10403000079B1B78412B03D0079B1B78612B1AD160
:10404000079B5B7803F0CC03882B0ED1019BB3F95F
:1040500000300D2B04D0019BB3F90030232B08D185
:10406000079B5B7A8DF8273003E0FF238DF827301C
:1040700000E000BF02E0FF238DF827309DF82730D5
:10408000892B00F04F81EE2B02D0842B4AD096E191
:10409000079B991C02AB0822184613F023FADDE9AE
:1040A00002341846214600F0A3FB0246019BC3F8E8
:1040B0008420009B03F53D53343300221A60009B9B
:1040C00003F53D53283305220021184613F033FA37
:1040D000009B03F53D531C3305220021184613F0C5
:1040E0002AFA019BD3F88430002B0ED0019BD3F821
:1040F0008420937C6FF30003937400990198FFF779
:1041000071FA03468DF8263063E1DDE90212009B67
:1041100003F541531033C3E900122E238DF82630E6
:1041200000BF56E1079B1B7A1B021AB2079BDB7983
:104130001BB213431BB2ADF81A30079B9B791B02CD
:104140001AB2079B5B791BB213431BB2ADF8183050
:10415000BDF81A30184600F087FB0246019BC3F8F1
:104160008420019BD3F88430002B00F0D680009B84
:104170001B88BDF818209A4240F0CF80019BD3F8ED
:104180008420009B03F53D5334331A6000230893C9
:104190000FE0019A089B134492331978009A089B08
:1041A000134403F53D5328330A461A70089B013324
:1041B0000893089B042BECDD019BD3F89C20009B0B
:1041C00003F53D5330331A60019BD3F884309B7C58
:1041D00003F00103DBB2002B07D000990198FFF731
:1041E00001FA03468DF8263006E000990198FFF7A2
:1041F000F5FB03468DF826309DF82630002B68D15C
:10420000019BD3F884301B889BB21946019B187B15
:10421000009A0B469B000B44DB00134403F541530B
:104220001A3302461A70019BD3F884301B889BB264
:104230001946009A0B469B000B44DB00134403F520
:1042400041532033654A1A60019BD3F884301B88A0
:104250009BB21946009A0B469B000B44DB001344AB
:1042600003F5415330335D4A1A60019BD3F8843023
:104270001B889BB21946009A0B469B000B44DB003F
:10428000134403F541532433544A1A60019BD3F875
:1042900084301B889BB21946009A0B469B000B4446
:1042A000DB00134403F5415328334C4A1A60019B49
:1042B000D3F884301B889BB21946009A0B469B00AA
:1042C0000B44DB00134403F541532C33434A1A607B
:1042D00027E0009B03F53D53343300221A60009B16
:1042E00003F53D53283305220021184613F023F926
:1042F000009B03F53D531C3305220021184613F0A3
:104300001AF9009B03F542532C331B685A1C009B7F
:1043100003F542532C331A6003E02C238DF826302A
:1043200057E056E02C238DF82630079B1B7A1B02A2
:104330001AB2079BDB791BB213431BB2ADF81630E0
:10434000079B9B791B021AB2079B5B791BB2134335
:104350001BB2ADF81430BDF81630184600F084FAE0
:104360000246019BC3F88420019BD3F88430002BC4
:1043700016D0019BD3F88420009B03F53D533433C2
:104380001B689A420CD1009B1B88BDF814209A42EE
:1043900006D100990198FFF775FC33238DF826307C
:1043A00003F0E0F80E490F48FFF70EFD03F0EAF8BE
:1043B0000D490E48FFF708FD03F0D4F809E0009B13
:1043C00003F53D53343300221A602B238DF8263039
:1043D00000BF9DF8263018460AB010BD00AD5E47FC
:1043E000C8360020D0360020D8360020E036002025
:1043F00010B588B00190324A03AB92E80300186010
:10440000043319800023ADF80C30019811F0A3F9A2
:1044100027A3D3E9002311F0F7FB03460C46184607
:10442000214625A3D3E9002311F0A4FC03460C4642
:104430001846214611F011FA0246224B1A60224B0F
:104440001B68002B15D103AB204A194620480BF0FE
:1044500021FA0790079B0693069B002B05D01D4A67
:1044600040F2C351069805F0C7FC174B01221A60B1
:1044700012E003AB154A194615480BF07DFA0346C6
:104480000793079B0593059B002B05D0114A40F22B
:10449000C951059805F0B0FC01210D480BF0F8FA60
:1044A0000B480BF0CBFA00BF08B010BDAFF3008093
:1044B0000000000080842E410000000065CDDD403A
:1044C000B49B01008C000020C0360020D9440000BD
:1044D0005CB60100F49A010000B585B003468DF882
:1044E0000730FDF7FBFF0390104B1A68104B1B6859
:1044F0009A4211D31E20FDF7B3FF0E48FDF7E0FFEF
:104500000246039B03F5425328331A601E20FDF731
:1045100093FF064B00221A60044B1B680133034AC9
:10452000136000BF05B05DF804FB00BF90000020E1
:104530008C0000205CB6010010B58CB00590864B55
:104540000B9343F2B80200210B9812F0F4FF059B85
:10455000012B06D1814B824A1A60824B824A1A6033
:1045600005E07E4B804A1A607E4B7D4A1A6002F05D
:1045700043FF7E4B1B6803F124020B9B03F5415361
:104580000C331A60794B1B685B889AB20B9B03F55E
:10459000415308331A80754B1B681B889AB20B9BDA
:1045A0001A80724B1B6834330A930A9B5B7806931C
:1045B0000A9BDB7907930A9B9B7808930C2309934A
:1045C0000B9B03F53E5206AB1146184603F074FDF3
:1045D000292309930B9B03F53E53283306AA19465A
:1045E000104603F069FD0D2309930B9B03F53F5320
:1045F000103306AA1946104603F05EFD17230993EF
:104600000B9B03F53F53383306AA1946104603F0B7
:1046100053FD232309930B9B03F54053203306AA34
:104620001946104603F048FD02F044FE10F07CF9F4
:1046300003F09AF80B9B03F541530C331B689B88DE
:104640001846FFF7D5FE012002F0E4FF012005F037
:10465000D7FE0346002B01D0112379E005F0C6FFF9
:1046600003461A460B9B03F5425335331A703F4BF2
:104670001B6803F134003D4B1B685B8C9CB23B4BC9
:104680001B681B8C9AB20B9B03F5415308331B88A4
:104690000B99098802910193009223460822014652
:1046A0000120FEF70FFB002002F0B4FF012005F00F
:1046B000A7FE0346002B01D0112349E0002002F0A1
:1046C000DBFF05F093FF03461A460B9B03F54253AD
:1046D00034331A70254B1B6803F13400234B1B68DD
:1046E000DB8B9CB2214B1B689B8B9AB20B9B03F517
:1046F000415308331B880B9909880291019300925A
:104700002346002201460020FEF7DCFA184B194A26
:1047100019491A4806F074FC0121194806F0DCFF1B
:10472000FEF7BDFD12F02EFD024613461B029B1A3A
:10473000144A82FB03121A449213DB17D31ADAB21B
:104740000B9B03F53D530C331A7010F013F9002343
:1047500018460CB010BD00BF08060020C0000020A5
:10476000B4000020C4000020A8000020784C0020E5
:10477000E3310000C5310000A930000031300000F5
:1047800080D003240300018008B502F0A9FD00BF1A
:1047900008BD00BF70470000024B1B68403318463D
:1047A000704700BF784C002000B585B00023ADF8FD
:1047B0000E30FFF7F1FF0290002301930FE0029B00
:1047C0001B889BB2002B04D0BDF80E300133ADF82E
:1047D0000E30029B13330293019B01330193019B23
:1047E000012BECDDBDF80E30184605B05DF804FB7A
:1047F00010B586B0CDE9000102230493FFF7CCFF8A
:1048000003900023059327E0059A1346DB00134429
:104810005B001344039A1A4453689468DDE900125C
:10482000A24208BF994214D1059A1346DB001344F3
:104830005B001344039A13441B889BB2002B08D0DF
:10484000059A1346DB0013445B001344039A134498
:1048500007E0059B01330593059A049B9A42D3DB3D
:104860000023184606B010BD00B587B00346ADF86A
:10487000063002230493FFF78FFF03900023059374
:1048800025E0059A1346DB0013445B001344039AAA
:1048900013445B889BB2BDF806209A4214D1059A56
:1048A0001346DB0013445B001344039A13441B8834
:1048B0009BB2002B08D0059A1346DB0013445B0023
:1048C0001344039A134407E0059B01330593059AAB
:1048D000049B9A42D5DB0023184607B05DF804FB21
:1048E00000B585B002230293FFF756FF0190002325
:1048F000ADF80E3018E0BDF90E201346DB0013446E
:104900005B001344019A13441B889BB2002B04D113
:10491000BDF80E3001339BB20CE0BDF90E309BB2F6
:1049200001339BB2ADF80E30BDF90E30029A9A42B7
:10493000E1DC0023184605B05DF804FB00B589B042
:10494000CDE902011346ADF8063002230693DDE9F6
:104950000201FFF74DFF0790079B002B48D1FFF79F
:104960001BFF0590FFF7BCFF0346ADF81230BDF901
:104970001230002B3CDDBDF91230069A9A4237DB2B
:1049800004E0BDF806300133ADF80630BDF806305E
:104990001846FFF769FF0346002BF2D1BDF912203C
:1049A0001346DB0013445B001344133B059A134486
:1049B0000793BDF81220079B1A80079BBDF80620BD
:1049C0005A80079B029A5A60039A9A600B4B1B68A5
:1049D000DB8D9AB2079B9A81084B1B681B8E9AB29B
:1049E000079BDA81054B1B685B8E9AB2079B1A8284
:1049F000079B184609B05DF804FB00BF784C002007
:104A000000B585B00346ADF80630BDF8063018464F
:104A1000FFF72AFF0390039B002B04D013220021F1
:104A2000039812F088FD00BF05B05DF804FB00B5E7
:104A300085B0CDE90001DDE90001FFF7D9FE039063
:104A4000039B002B04D013220021039812F073FD66
:104A500000BF05B05DF804FB10B483B00023ADF8CF
:104A60000630002300930FE00D4A009BDB00134447
:104A7000D3E9003423430BD0BDF806300133ADF841
:104A80000630009B01330093009B042BECD900E01F
:104A900000BFBDF80630184603B05DF8044B704700
:104AA000E8360020014B1846704700BFE83600206A
:104AB00010B485B0CDE900010123029300230393D4
:104AC00024E0174A039BDB001344D3E90034DDE9FB
:104AD0000012A24208BF994202D10023029318E0BB
:104AE0000F4A039BDB001344D3E9003423430AD16C
:104AF0000B4A039BDB001A44DDE90034C2E90034B1
:104B00000123029305E0039B01330393039B042BD2
:104B1000D7D9029B184605B05DF8044B704700BF1B
:104B2000E836002008B528220021024812F003FDD3
:104B300000BF08BDE836002082B00023ADF8063083
:104B40002C4B1B78002B52D100238DF8043046E00B
:104B50000023ADF8063001238DF805302FE0BDF8B5
:104B6000063003F00103002B0ED0BDF806305B08C1
:104B7000ADF80630BDF8063083F4BF4383F07E0302
:104B8000DB43ADF8063004E0BDF806305B08ADF855
:104B900006309DF804209DF805301340DBB2002B51
:104BA00008D0BDF8063083F4BF4383F07E03DB43B7
:104BB000ADF806309DF805305B008DF805309DF8A6
:104BC0000530102BCBD19DF80430BDF806200A49E2
:104BD00041F823209DF8043001338DF804309DF80E
:104BE00004300F2BB4D9034B01221A7000E000BF30
:104BF00002B07047503700201037002086B0039075
:104C00000B460192ADF80A30039B0593019BADF86A
:104C100012303CE0BDF81230DBB203F00F038DF828
:104C20001130BDF812301B09ADF812309DF811207B
:104C3000059B1B7803F00F0353401B4A52F82330A7
:104C40009AB2BDF812305340ADF81230BDF81230B0
:104C5000DBB203F00F038DF81130BDF812301B09E1
:104C6000ADF81230059B1B781B09DAB29DF81130A4
:104C70005340DBB21A460C4B53F822309AB2BDF8BF
:104C800012305340ADF81230059B01330593BDF847
:104C90000A305A1EADF80A20002BBBD1BDF81230E5
:104CA000184606B0704700BF1037002084B001904E
:104CB0000091019B1B680393009B1A68019B1A607B
:104CC000009B039A1A6000BF04B0704700B589B01A
:104CD000039002910192029B0793019B0693079A0E
:104CE000069B9A4264DA029B9B00039A13441B685A
:104CF000059342E0019B013B0193029A019B9A427A
:104D000007DA019B9B00039A13441B68059A9A4299
:104D1000F0DB029A019B9A4211DA029B9B00039AF4
:104D2000D018019B9B00039A13441946FFF7BEFF5E
:104D3000029B0133029302E0029B01330293029A29
:104D4000019B9A4207DA029B9B00039A13441B685B
:104D5000059A9A42F0DC029A019B9A420DDA029B74
:104D60009B00039AD018019B9B00039A1344194699
:104D7000FFF79CFF019B013B0193029A019B9A4222
:104D8000BBDB029B9B00039A1344059A1A60029BAB
:104D90000493049B013B1A4607990398FFF796FF7B
:104DA000049B0133069A19460398FFF78FFF00E032
:104DB00000BF09B05DF804FB10B58AB00190684BE4
:104DC0001B68082B05DC664B1B680133644A1360C3
:104DD00002E0634B00221A60019BD3ED047A604B22
:104DE0001B68FDEEE77A17EE901A5E4A42F8231030
:104DF000019BD3ED057A5A4B1B68FDEEE77A17EE5F
:104E0000901A594A42F82310019BD3ED037A544B70
:104E10001B68FDEEE77A17EE901A544A42F8231009
:104E2000092200214F48FFF751FF092200214E4877
:104E3000FFF74CFF092200214C48FFF747FF494B81
:104E40005B6907EE903AF8EEE77A474B5B6907EE4D
:104E5000103AB8EEC77AF0EE470AB0EE670A11F0E2
:104E6000DBF910EE103A184610F031FD03460C46FF
:104E7000CDE9083438A3D3E90023DDE9080110F0B7
:104E8000C3FE03460C46CDE908344AF25A53ADF846
:104E90000C300F238DF80E3080238DF80F30314BFE
:104EA0005B699BB2ADF810302F4B5B699BB2ADF8DC
:104EB00012302F4BD3E900012D4BD3E902341A46AF
:104EC000234610F05BFD03460C461846214610F0C1
:104ED0009DFC0346DBB28DF81430019BB3F91E3004
:104EE0001B121BB2DBB28DF81530019BB3F91E30DB
:104EF000DBB28DF81630019B1B88ADF81730FF230D
:104F00008DF81930019B93F92430DBB28DF81B30FA
:104F1000019B93F92530DBB28DF81A3003AB0333D4
:104F20004FF6FF720D211846FFF768FE03469BB24D
:104F3000ADF81C3003AB1221184600F057FC1022CC
:104F400000210B4812F0F7FA10220021094812F054
:104F5000F2FA00BF0AB010BDF8C1631ADCA54C40DC
:104F60006C380020543700207C370020A437002004
:104F7000C8360020D836002010B584B0CDE9000135
:104F8000A0200FF033FA0390039B002B40D045F68E
:104F90005A222149039812F005F90290039812F061
:104FA00046FB0246039B9818DDE900124FF0000310
:104FB0004FF00004130000241A46009B174912F01A
:104FC000F1F8039B9C1C039812F031FB0246029BF4
:104FD000D31A1A461249204612F0E4F8029B039AAB
:104FE00013447B221A70039812F021FB0246039BA4
:104FF00013440C49184612F0D5F8039812F017FB29
:1050000003461946039800F0F1FB03980FF09EFA4F
:1050100000BF04B010BD00BFF09B0100F89B010071
:10502000109C0100189C0100F0B58DB00990424B16
:105030000B930B9B002B00F07981404B1B681B7B73
:10504000012B09D03D4B1B685B7B012B04D03B4BF4
:105050001B685B7C012B79D9384B1B685B7C032B6D
:105060001CD1099B1B881946099B9B781846099BF4
:10507000D3ED047AFDEEE77A17EE902A099BD3ED83
:10508000057AFDEEE77A17EE903A01930092034617
:105090000A462B490B9812F085F839E0099B1B88CA
:1050A0001F46099B9B789C46099BD3ED047AFDEE35
:1050B000E77A17EE904A099BD3ED057AFDEEE77A81
:1050C00017EE905A099BD3ED067AFDEEE77A17EEBC
:1050D000906A099B9B8BDBB21A46099BB3F91E3081
:1050E0009BB21946099BB3F920309BB21846099B25
:1050F000B3F922309BB20693059004910392029675
:105100000195009463463A460E490B9812F04AF80E
:105110000B9812F08CFA02460B9B13440A4918466E
:1051200012F040F80B9812F082FA034619460B98D9
:1051300000F05CFBFAE000BFCC370020784C002088
:105140001C9C0100349C0100189C0100794B1B68D9
:105150005B7C012B40F0E28045F65A2276490B98A1
:1051600012F020F80A900B9812F061FA02460B9B9D
:1051700013447249184612F015F80B9812F057FABA
:1051800002460B9B9818099B1B881A46099B9B7823
:105190001946099B5B6800930B46694912F002F8B7
:1051A000644B1B689B7C002B0FD00B9812F03FFACE
:1051B00002460B9B9818099B93F924301A46099BC9
:1051C00093F925305F4911F0EDFF5F4B1B68013308
:1051D0005D4A13605C4B1B680A2B02D15A4B0022BC
:1051E0001A60099BD3ED047A574B1B68FDEEE77AF2
:1051F00017EE901A554A42F82310099BD3ED057A11
:10520000514B1B68FDEEE77A17EE901A504A42F8B0
:105210002310099BD3ED037A4B4B1B68FDEEE77A15
:1052200017EE901A4B4A42F82310092200214748F2
:10523000FFF74CFD092200214548FFF747FD0922F1
:1052400000214448FFF742FD0B9812F0F0F90246A6
:105250000B9B98183F4B5969099BD3ED027AFDEEE1
:10526000E77A3A4B5B693A4A52690192009317EE2A
:10527000903A0A46384911F095FF0B9812F0D7F989
:1052800002460B9B9818099BD3ED067AFDEEE77A50
:10529000099B9B8B1C46099BB3F91E301A46099B40
:1052A000B3F920301946099BB3F9223002930191DA
:1052B0000092234617EE902A284911F073FF0B98AD
:1052C00012F0B5F902460B9B13442549184611F01C
:1052D00069FF0B9B9C1C0B9812F0A9F902460A9BD4
:1052E000D31A1A461F49204611F05CFF0A9B0B9AFD
:1052F00013447B221A700B9812F099F902460B9B0B
:1053000013441949184611F04DFF0B9812F08FF90C
:10531000034619460B9800F069FA07E0054B1B6835
:105320005B7C002B02D10998FFF746FD00BF0DB052
:10533000F0BD00BF784C0020F09B01006C9C010088
:10534000789C0100989C01007038002054370020A0
:105350007C370020A4370020AC9C0100D09C0100C9
:10536000F49C0100109C0100189C010000B585B060
:1053700001900B46ADF8023000238DF80F30019BF1
:105380001B78022B14D1019B02331B781A46019B18
:1053900003331B781B021A44BDF802309A4207D12E
:1053A000BDF80230013B019A13441B78032B17D040
:1053B000BDF80230052B07D105220E49019811F0E6
:1053C00085FE0346002B0BD0BDF80230042B0AD11A
:1053D00004220949019811F079FE0346002B02D1FD
:1053E00001238DF80F309DF80F30184605B05DF899
:1053F00004FB00BFB49D0100BC9D010000B585B059
:1054000001900B46ADF8023000238DF80F30BDF847
:105410000230022B6AD84B4B1B78002B05D14FF47E
:1054200080720021484812F086F8464B1B78FF2B0B
:1054300054D0BDF802301946019800F0D7F9019B0D
:105440001B780A2B03D0019B1B780D2B1FD13D4BE2
:105450001B78002B6FD03B4B1B781A463A493B48D0
:1054600012F040F8374B1B789AB2394BA3F8182248
:10547000344B1B781A46364B1344002283F81A2209
:1054800002238DF80F302F4B00221A7053E0019B3E
:105490001B78082B14D12B4B1B78002B4BD0294B9E
:1054A0001B78013BDAB2274B1A70264B1B781A4641
:1054B000254B002199540321264800F097F93AE042
:1054C000204B1B781A46019B19781F4B99541D4B92
:1054D0001B780133DAB21B4B1A702CE002211E48F4
:1054E00000F084F9174B00221A7024E0BDF8023056
:1054F000FE2B19D8BDF802301A460199134811F055
:10550000F1FF134BBDF80220A3F81822BDF80230BA
:105510000F4A1344002283F81A220A4B00221A7001
:1055200002238DF80F3006E002210C4800F05EF9EE
:10553000044B00221A709DF80F30184605B05DF834
:1055400004FB00BF7438002078380020924E002001
:10555000784C0020C49D0100C89D0100CC9D010035
:1055600000B585B001900B46ADF8023000238DF8F0
:105570000F30BDF80230204A12881344FE2B32D877
:105580001D4B1B8803F506731C4A13440233BDF8F8
:1055900002200199184611F0A5FF174B1A88BDF893
:1055A000023013449AB2144B1A80134B1B881A46CC
:1055B000124B1344002283F81A220F4B1B88194602
:1055C0000F48FFF7D3FE03468DF80F309DF80F30DC
:1055D000012B0BD1084B1A88084BA3F81822064B55
:1055E00000221A8002E0044B00221A809DF80F303E
:1055F000184605B05DF804FB78390020784C00208F
:10560000924E002000B5CBB000238DF827310FF06B
:105610008BF9394BB3F910301BB24693364BB3F9C3
:1056200012301BB248934FF480734593324BB3F959
:1056300014311BB24493304BB3F916311BB2439370
:105640004FF4807342930FF095F9469A489BD21A13
:10565000459B013B13404193449A439BD21A429B82
:10566000013B13404093419B002B3FDD6B464FF4C1
:1056700080720021184611F05EFF0023479312E06C
:105680001D4A489B1344143319786A46479B1344B8
:105690000A461A70489B5A1C459B013B134048938D
:1056A000479B01334793479A419B9A42E8DB0FF0AF
:1056B0003BF9489B1AB2104B5A820FF05BF90E4B24
:1056C0001B79042B08D1419B9AB26B4611461846B0
:1056D000FFF746FF034607E0419B9AB26B4611462F
:1056E0001846FFF78BFE03468DF827319DF82731CA
:1056F00018464BB05DF804FB784C00200A4B1B7831
:10570000112B01D111230DE0074B11221A70064B0A
:1057100000229A80044B9A88034B5A80024B002245
:105720001A70002318467047FC39002000B585B078
:105730000190009100238DF80F304FF48053ADF8A5
:105740000A30294B1B78112B01D1112347E0264B3E
:1057500011221A70244B5B88ADF80C30224B9B88C9
:10576000ADF80830BDF80820BDF80C300133D21A6E
:10577000BDF80A30013B1340009A9A4223DA1AE03E
:10578000019B5A1C0192BDF80C201978164B13444A
:105790000A469A71BDF80C3001339BB21AB2BDF8BB
:1057A0000A30013B9BB21BB213401BB2ADF80C3068
:1057B000009B013B0093009B002BE1DC0A4ABDF8F3
:1057C0000C30538006E0132100200FF099FF1323C3
:1057D0008DF80F30044B00221A709DF80F301846D8
:1057E00005B05DF804FB00BFFC39002000B585B0B2
:1057F00001900091124BD3F80930009A9A4203DDD0
:105800000F4A009BC2F8093000990198FFF78EFFFC
:1058100003468DF80F300A4BD3F82E33002B09D0F6
:10582000074BD3F82E23064BD3F8363319461046D0
:105830000FF0A0FA9DF80F30184605B05DF804FB94
:10584000784C002000B587B04FF480530393294B68
:105850001B78112B01D1002347E0264B1B78112B1D
:1058600001D1112341E0234B11221A70214B5B8897
:105870000293204B9B880593029A059BD21A039BA7
:10588000013B13400193019B002B2ADD019B802BE0
:1058900028BF802300930023049312E0154A059B40
:1058A000134406331978144A049B13440A461A70A9
:1058B000059B5A1C039B013B13400593049B01333A
:1058C0000493049A009B9A42E8DB019A009BD31A46
:1058D0000193059B9AB2074B9A800099064802F003
:1058E00041FB044B00221A700023184607B05DF8F4
:1058F00004FB00BFFC3900207C39002082B00190FD
:10590000019BD3F81035DBB2184602B07047000097
:1059100000B585B001900B468DF803309DF803303B
:105920000393019B094A934204D9094940F26E202E
:1059300003F07BFB019B4FF47A5202FB03F2039BC3
:1059400022FA03F3184605B05DF804FB931804002F
:10595000D89D010000B583B001900091019B1B68A8
:105960001846FFF7CBFF034619460098FFF7D0FF14
:105970000346184603B05DF804FB000000B583B091
:105980000190019B1B681F2B04D9054940F2C710E9
:1059900003F04BFB4FF0A043184603B05DF804FB47
:1059A000FC9D010000B585B00190084611461A46DD
:1059B00003468DF803300B468DF8023013468DF800
:1059C000013001AB1846FFF7D9FF03909DF8032083
:1059D0009DF802305B001A439DF801309B001A438A
:1059E0009DF818301B0242EA03019DF81C301B048D
:1059F000019A1943039B02F5E07243F8221000BF9D
:105A000005B05DF804FB00B585B003900023019359
:105A1000002300930023012201210398FFF7C2FF16
:105A200000BF05B05DF804FB00B585B003900B46E0
:105A30008DF80B309DF80B20002301930023009379
:105A40001346002200210398FFF7ACFF00BF05B00A
:105A50005DF804FB00B585B0019001AB1846FFF777
:105A60008DFF0390019B012202FA03F3194603986C
:105A700000F035F800BF05B05DF804FB00B585B057
:105A8000019001AB1846FFF779FF0390019B0122BB
:105A900002FA03F31946039800F02BF800BF05B093
:105AA0005DF804FB00B585B0019001AB1846FFF727
:105AB00065FF0390039800F00AF80246019B22FA62
:105AC00003F303F00103184605B05DF804FB82B050
:105AD0000190019BD3F81035184602B0704782B090
