:10000000000001203D020000950200009702000060
:10001000990200009B0200009D0200000000000009
:1000200000000000000000000000000099380100FE
:10003000A102000000000000BD380100C5760000EC
:1000400067CA0000AB020000D5CB000001C400006D
:10005000B1020000B3020000B5EF0000B7020000DB
:10006000B9020000BB020000BD02000001F8000060
:10007000C1020000C3020000C5020000C702000068
:10008000C9020000C9400100CD020000CF020000FB
:10009000D1020000D3020000D5020000D702000008
:1000A000D9020000DB020000DD020000DF020000D8
:1000B000E1020000E3020000A7020000A702000026
:1000C000E5020000E7020000E902000019C4000098
:0C00D000ED020000EF020000F102000051
:1000DC00364937480A1A02D0072291438D463549D2
:1000EC0035480A1A06D00722914381F30988022267
:1000FC0082F3148831483249324A00F045F83248CC
:10010C003249334A00F040F832483349334A00F060
:10011C003BF833483349344A00F036F83348344915
:10012C00344A00F031F834483449354A00F02CF8A0
:10013C0034483549354A00F027F83548354900220E
:10014C0000F02DF834483549002200F028F83448E6
:10015C003449091A082903DB0022026004300160CB
:10016C00314A90471F482049884205D00268043024
:10017C0003B4904703BCF7E700208646EC4600200A
:10018C0000212A4A9047FEE7884207D0521A05D030
:10019C00037801300B700131013AF9D17047884274
:1001AC0002D002700130FAE7704700000000012015
:1001BC0000D800200000012000000120E4A501006F
:1001CC009C00002044010020F4020000F402000016
:1001DC00EC760100E4A501009C0000209C000020AE
:1001EC0008780100087801000878010008780100FF
:1001FC0008780100087801000878010008780100EF
:10020C00E4A501008CA6010044010020440100205B
:10021C00440100200CBB00200CBB002014BB0020B0
:10022C0000C0002000C4002061020000C98400004E
:10023C000F484FF00701884385460E4880470E480B
:10024C00016841F470010160BFF34F8FBFF36F8FF2
:10025C00FFF73EBF09480A490A4A884207D0521A9A
:10026C0005D0037801300B700131013AF9D1704798
:10027C00000001203903000088ED00E06C770100DC
:10028C00000000209C000020FEE7FEE7FEE7FEE7F2
:10029C00FEE7FEE7FEE7FEE7FEE7FEE7FEE7FEE72A
:1002AC00FEE7FEE7FEE7FEE7FEE7FEE7FEE7FEE71A
:1002BC00FEE7FEE7FEE7FEE7FEE7FEE7FEE7FEE70A
:1002CC00FEE7FEE7FEE7FEE7FEE7FEE7FEE7FEE7FA
:1002DC00FEE7FEE7FEE7FEE7FEE7FEE7FEE7FEE7EA
:0802EC00FEE7FEE7FEE700BF9C
:1002F4000048704704BB0020FEE70000BFF34F8FA7
:10030400054BDB6803F4E0620349044B1343CB6001
:10031400BFF34F8F00BFFDE700ED00E00400FA05D6
:10032400024B034A1A6000BF704700BF9C000020C4
:100334000090D00308B500F05DF90346002B06D009
:100344009A4B1B681B0A9A4A03F01F03136000F0C0
:100354007DF90346002B02D0964B974A1A6000F0B1
:1003640091F90346002B06D0944B1B685B0B944A0F
:1003740003F00703136000F0B1F90346002B05D026
:10038400904BDB688F4A23F08073D36000F0C2F98E
:100394000346002B0ED04FF080430022C3F80C21FB
:1003A4004FF080430022C3F810214FF08043002215
:1003B400C3F8382500F0DAF90346002B02D0824B4B
:1003C40003221A6000F0EEF90346002B0BD07F4B9A
:1003D40005221A607E4B01221A607E4B00221A60AD
:1003E4007D4B3F221A6000F0F9F90346002B76D0CA
:1003F4004FF08053794AD3F80434C2F820354FF0D3
:100404008053764AD3F80834C2F824354FF0805329
:10041400724AD3F80C34C2F828354FF080536F4A2F
:10042400D3F81034C2F82C354FF080536B4AD3F80C
:100434001434C2F830354FF08053684AD3F8183476
:10044400C2F834354FF08053644AD3F81C34C2F8F0
:1004540040354FF08053614AD3F82034C2F8443514
:100464004FF080535D4AD3F82434C2F848354FF036
:1004740080535A4AD3F82834C2F84C354FF080538D
:10048400564AD3F82C34C2F850354FF08053534AAF
:10049400D3F83034C2F854354FF080534F4AD3F870
:1004A4003434C2F860354FF080534C4AD3F83834B2
:1004B400C2F864354FF08053484AD3F83C34C2F84C
:1004C40068354FF08053454AD3F84034C2F86C3550
:1004D4004FF08053414AD3F84434C2F8703500F0E9
:1004E40099F90346002B05D03D4B1B683D4A03F0A8
:1004F4004F03136000F0BAF90346002B0DD04FF000
:100504008043D3F8003403F00103002B05D04FF0EF
:1005140080436FF00102C3F8002400F0D3F90346CE
:10052400002B05D0304B1B682F4A43F480631360C3
:100534002E4BD3F888302D4A43F47003C2F8883028
:10054400BFF34F8FBFF36F8F4FF01023D3F80C32EC
:1005540003F00103012B25D1254B0122C3F8042507
:1005640000BF234BD3F80034002BFAD04FF01023F4
:10057400D3F80C324FF0102223F00103C2F80C32EE
:1005840000BF1B4BD3F80034002BFAD0184B0022C9
:10059400C3F8042500BF164BD3F80034002BFAD05F
:1005A400FFF7ACFEFFF7BCFE00BF08BD240300103C
:1005B4004035014074C007400DF0ADBA440200104C
:1005C4003C050040F0ED00E0A0050040105600405E
:1005D40088560040185600401456004000C00040A1
:1005E40058020010E40E00403C17004000ED00E00B
:1005F40000E00140124B1B68DBB2062B1DD1114BEE
:100604001B6803F00F03002B17D10F4B1B6803F07B
:10061400F003302B01D1012310E00B4B1B6803F0D6
:10062400F003402B01D1012308E0074B1B6803F0C2
:10063400F003502B01D1012300E00023184670473A
:10064400E00F00F0E40F00F0E80F00F00A4B1B6825
:10065400DBB2062B0DD1094B1B6803F00F03002BF3
:1006640007D1074B1B6803F0F003302B01D10123A2
:1006740000E0002318467047E00F00F0E40F00F09C
:10068400E80F00F0124B1B68DBB2062B1DD1114B97
:100694001B6803F00F03002B17D10F4B1B6803F0EB
:1006A400F003302B01D1012310E00B4B1B6803F046
:1006B400F003402B01D1012308E0074B1B6803F032
:1006C400F003502B01D1012300E0002318467047AA
:1006D400E00F00F0E40F00F0E80F00F00A4B1B6895
:1006E400DBB2062B0DD1094B1B6803F00F03002B63
:1006F40007D1074B1B6803F0F003302B01D1012312
:1007040000E0002318467047E00F00F0E40F00F00B
:10071400E80F00F0124B1B68DBB2062B1DD1114B06
:100724001B6803F00F03002B17D10F4B1B6803F05A
:10073400F003302B01D1012310E00B4B1B6803F0B5
:10074400F003402B01D1012308E0074B1B6803F0A1
:10075400F003502B01D1012300E000231846704719
:10076400E00F00F0E40F00F0E80F00F00A4B1B6804
:10077400DBB2062B0DD1094B1B6803F00F03002BD2
:1007840007D1074B1B6803F0F003302B01D1012381
:1007940000E0002318467047E00F00F0E40F00F07B
:1007A400E80F00F00A4B1B68DBB2062B0DD1094B96
:1007B4001B6803F00F03002B07D1074B1B6803F0E2
:1007C400F003302B01D1012300E0002318467047C9
:1007D400E00F00F0E40F00F0E80F00F00A4B1B6894
:1007E400DBB2062B0DD1094B1B6803F00F03002B62
:1007F40007D1074B1B6803F0F003502B01D10123F1
:1008040000E0002318467047E00F00F0E40F00F00A
:10081400E80F00F0124B1B68DBB2062B1DD1114B05
:100824001B6803F00F03002B17D10F4B1B6803F059
:10083400F003302B01D1012310E00B4B1B6803F0B4
:10084400F003402B01D1012308E0074B1B6803F0A0
:10085400F003502B01D1012300E000231846704718
:10086400E00F00F0E40F00F0E80F00F0124B1B68FB
:10087400DBB2062B1DD1114B1B6803F00F03002BB9
:1008840017D10F4B1B6803F0F003302B01D1012368
:1008940010E00B4B1B6803F0F003402B01D1012344
:1008A40008E0074B1B6803F0F003502B01D1012330
:1008B40000E0002318467047E00F00F0E40F00F05A
:1008C400E80F00F0064B1B68062B05D1054B1B688F
:1008D400062B01D1012300E000231846704700BF16
:1008E400300100103401001000B583B00E4B0193A9
:1008F4000E4B18460DF006FE0C4B4FF480620C496B
:1009040018460DF05DFE019B1B68B3F1FF3F06D155
:10091400019B4FF48062054918460DF051FE00BF5B
:1009240003B05DF804FB00BF00F1070000BC002029
:1009340008780100014B1846704700BF00020020F0
:1009440008B54FF480620349034815F0D7FE00BF91
:1009540008BD00BF00F107000002002008B54FF4F5
:1009640080620349034815F0C9FE00BF08BD00BFFB
:1009740000BC00200002002000B585B00190019B5E
:1009840003934FF4FE200DF0BDFD4FF480620199F6
:1009940003480DF015FE0023184605B05DF804FB6E
:1009A40000F1070000B585B001900091A02012F07D
:1009B400B5FF0390039B002B25D01549039815F030
:1009C400F9FE019815F03FFF0346952B10D8039BC1
:1009D40006330199184615F0EDFE019815F033FF22
:1009E40003460633039A13440A49184615F0E2FEF7
:1009F400039815F028FF03461946039804F072FF84
:100A0400039813F03BF800BF05B05DF804FB00BF8A
:100A1400087C0100147C010010B590B0019003AB78
:100A24000E9300230F93282200210E9815F08FFEB9
:100A34000E9B1B681A46019B13441B78184615F03D
:100A4400CFFB01460E9B1B681A46019B1344CAB296
:100A54001A700E9B1B685A1C0E9B1A600E9B1B6817
:100A64001A46019B13441B78002BE1D1524901988B
:100A740015F008FD02460E9B1A620E9B186A0E9B27
:100A840003F108020E9B1C334C4915F0A8FC0E9B85
:100A940000221A600E9B00225A6038E00E9B1A68EE
:100AA40013465B0013449B00454A13440F930E9B6B
:100AB40003F108020F9B1B681946104615F09CFEB3
:100AC4000346002B1ED10E9B0833184615F0BBFEBF
:100AD40004460F9B1B68184615F0B5FE03469C425E
:100AE40010D10E9B01225A600F9B1A79354B1B794A
:100AF4009A4203D00F9B1B79002B03D10E9B022239
:100B04005A600FE00E9B1B685A1C0E9B1A600E9BCA
:100B14001A682B4913465B0013449B000B441B6863
:100B2400002BBBD10E9B5B68012B02D0022B0CD097
:100B34002FE0244B1B7969222349244815F00AFC31
:100B44000E992348FFF72EFF23E0FFF7F3FE0D90E5
:100B54000F9B9B680E9A106A0E9AD2690D9998475A
:100B640002460E9B5A620E9B5B6A002B0CD00E9BB6
:100B74005C6A0E9B5B6A184615F065FE03461946CF
:100B8400204604F0AFFE03E00E991248FFF70AFF77
:100B940000BF0949002015F075FC02460E9B1A623D
:100BA4000E9B1B6A184615F04EFE0346002B7FF47D
:100BB40064AF00BF10B010BD187C01001C7C0100A4
:100BC400088301006C4C0020847C0100247C01001B
:100BD400647C0100787C010000B585B0039002912B
:100BE4000192019B002B07D1094BD3F81A33102132
:100BF400184610F011FA06E0054BD3F81A332021F9
:100C0400184610F009FA034B184605B05DF804FBCA
:100C14006C4C0020947C010000B585B003900291D7
:100C24000192019B002B08D10A4BD3F81A334FF4DD
:100C34008061184610F0F0F907E0064BD3F81A3338
:100C44004FF40061184610F0E7F9034B184605B05D
:100C54005DF804FB6C4C0020947C010000B585B069
:100C6400039002910192019B002B08D10A4BD3F807
:100C74001A334FF48071184610F0CEF907E0064B92
:100C8400D3F81A334FF40071184610F0C5F9034B2A
:100C9400184605B05DF804FB6C4C0020947C010000
:100CA40000B585B0039002910192019B002B07D1FE
:100CB400094BD3F81A334021184610F0ADF906E079
:100CC400054BD3F81A338021184610F0A5F9034BCD
:100CD400184605B05DF804FB6C4C0020947C0100C0
:100CE40000B585B003900291019204F0D7FE064B43
:100CF400D3F81A334FF48051184610F08DF9034B92
:100D0400184605B05DF804FB6C4C0020947C01008F
:100D140084B0039002910192019B9AB2029B1A80C3
:100D2400014B184604B07047947C010084B00390D2
:100D340002910192019B9AB2029B5A80014B184680
:100D440004B07047947C010084B003900291019236
:100D5400019B9BB2012B04D9019B9AB2029BDA84BA
:100D640008E0029B002242F0010283F826200022C0
:100D740083F82720014B184604B07047947C010087
:100D840084B0039002910192019B9AB2029B9A84CF
:100D9400014B184604B07047947C010084B0039062
:100DA40002910192019B9AB2029B1A85014B18464B
:100DB40004B07047947C010084B0039002910192C6
:100DC400019B9AB2029B5A85014B184604B07047A6
:100DD400947C010084B0039002910192019B9AB229
:100DE400029B9A85014B184604B07047947C01001D
:100DF40084B0039002910192019B9AB2029BDA8320
:100E0400014B184604B07047947C010084B00390F1
:100E140002910192019B9AB2029B9A83014B18465C
:100E240004B07047947C010084B003900291019255
:100E3400019B9AB2029B5A84014B184604B0704736
:100E4400947C010084B0039002910192019B9AB2B8
:100E5400029B1A84014B184604B07047947C01002D
:100E640084B0039002910192019B1AB2029BDA8032
:100E7400014B184604B07047947C010084B0039081
:100E840002910192019B1AB2029B1A81014B1846EE
:100E940004B07047947C010084B0039002910192E5
:100EA400019BDAB2029BDA73014B184604B0704717
:100EB400947C010084B0039002910192019B1AB2C8
:100EC400029B5A81014B184604B07047947C010080
:100ED40084B0039002910192019BDAB2029B1A73CF
:100EE400014B184604B07047947C010084B0039011
:100EF40002910192019BDAB2029B9A74014B18464B
:100F040004B07047947C010084B003900291019274
:100F1400019BDAB2029B5A73014B184604B0704726
:100F2400947C010084B0039002910192019BDAB297
:100F3400029B1A71014B184604B07047947C01005F
:100F440084B0039002910192019BDAB2029B5A7120
:100F5400014B184604B07047947C010084B00390A0
:100F640002910192019BDAB2029B5A74014B18461A
:100F740004B07047947C010084B003900291019204
:100F8400019B9AB2029B5A83014B184604B07047E6
:100F9400947C010084B0039002910192019BDAB227
:100FA400029B1A74014B184604B07047947C0100EC
:100FB40084B0039002910192019BDAB2029B9A736E
:100FC400014B184604B07047947C010000B585B00D
:100FD400039002910192FFF7C1FC024B184605B041
:100FE4005DF804FB947C010084B0039002910192AB
:100FF400019B9AB2029B1A83014B184604B07047B6
:10100400947C010084B0039002910192019B9AB2F6
:10101400029B9A82014B184604B07047947C0100ED
:1010240084B0039002910192019B9AB2029BDA82EE
:10103400014B184604B07047947C010084B00390BF
:1010440002910192019BDAB2029BDA74014B1846B9
:1010540004B07047947C010084B003900291019223
:10106400019B102B0CD1029B012283F83520029B9B
:10107400032283F83920029B032283F838200EE0F0
:10108400019B402B0BD1029B022283F83520029B4B
:10109400092283F83920029B092283F83820024B65
:1010A400184604B0704700BF947C010084B00390DC
:1010B40002910192019B9AB2029B1A86014B184637
:1010C40004B07047947C010084B0039002910192B3
:1010D400019B9AB2029BDA85014B184604B0704713
:1010E400947C010084B0039002910192019B9AB216
:1010F400029B5A86014B184604B07047947C010049
:1011040010B58AB00390029101922C4B0993A02050
:1011140012F004FC0690069B002B49D003F0EAFB76
:101124000346ADF81E3003F00BFC089034E0089B36
:10113400D3E90034089AD2E900128AB2184621464B
:1011440003F04AFB0590059B002B18D11C49069817
:1011540015F030F9069815F076FB0246069B134409
:101164001849184615F026F9069815F06CFB034645
:101174001946069804F0B6FB0023099315E0059A76
:10118400937C43F001039374BDF81E30013BADF82A
:101194001E30089B08330893089BD3E9003423438B
:1011A40003D0BDF81E30002BC1D1069812F066FCA6
:1011B40003F006FC099B18460AB010BD9C7C010094
:1011C400B47C0100D07C010010B58AB00390029178
:1011D400019203F0B5FB099003F08CFB0346ADF8D4
:1011E4002230A02012F09AFB0690069B002B6ED0B2
:1011F40012F032FE0D230793BDF82230002B10D0DD
:1012040000230593344815F01EFB03460593059B04
:101214000333BDF8222002FB03F3033B079A134474
:101224000793079A2D49069815F0C4F8069815F007
:101234000AFB0246069B13442949184615F0BAF8DE
:10124400069815F000FB03461946069804F04AFB7D
:101254002EE0099BD3E900124FF000034FF0000485
:10126400130000241A46099BD3E900341D4906984B
:1012740015F0A0F8BDF82230012B09D9069815F015
:10128400E2FA0246069B13441749184615F092F8F1
:10129400069815F0D8FA03461946069804F022FB7E
:1012A400099B08330993BDF82230013BADF8223085
:1012B400BDF82230002BCCD104210C4804F012FBE1
:1012C40012F0F0FD03F07CFB069812F0D7FB084BFC
:1012D40018460AB010BD00BFD47C0100E87C0100B0
:1012E400F07C0100FC7C01000C7D0100107D0100FC
:1012F400947C010070B588B007900691069B1B880A
:101304009BB21D46069A536894684FF000014FF053
:101314000002210000220E46069A536894681A4679
:10132400069B5B889BB21946069B9B899BB2184619
:10133400069BDB899BB21C46069B1B8A9BB20493CB
:10134400039402900191009233462A460349079878
:1013540015F030F800BF08B070BD00BF187D010063
:1013640000B58BB0039002910192A02012F0D6FA3E
:101374000590059B002B6ED012F06EFD03F05AF918
:10138400099003F05FF9034607930C230893079B26
:10139400002B13DD0023049309990598FFF7AAFF96
:1013A400059815F050FA03460493049B0333079AF7
:1013B40002FB03F3033B089A13440893089A284951
:1013C400059814F0F7FF059815F03DFA0246059BC1
:1013D40013442449184614F0EDFF059815F033FA28
:1013E40003461946059804F07DFA0023069326E087
:1013F400099B1B889BB2002B1BD009990598FFF70A
:1014040079FF079B012B09DD059815F01CFA0246AC
:10141400059B13441449184614F0CCFF079B013B69
:101424000793059815F00FFA03461946059804F03A
:1014340059FA099B13330993069B01330693069BC0
:10144400042BD5DD0421094804F04CFA12F02AFDDE
:10145400059812F013FB064B18460BB05DF804FB1D
:10146400E87C01006C7D01000C7D0100107D010011
:10147400947C01002DE910489BB0099008910792D3
:1014840000231993A02012F049FA1890189B002BFE
:1014940000F0B1804FF000034FF00004CDE91634A2
:1014A40000231293002311930023109300230F931E
:1014B40000230E9300230D930123159312A90AAA66
:1014C4000DAB04930EAB03930FAB029310AB0193DC
:1014D40011AB00930B464A49099814F080FF034668
:1014E40015930F9B002B00F083800E9B002B7FD065
:1014F400159B072B7CD1129B19464FF000024FF02D
:10150400000B4FF0000C8C464FF0000B119A114663
:101514004FF000024BEA01034CEA0204CDE9163411
:10152400109B9BB21A46DDE9160103F055F914909D
:10153400149B002B5CD00F9B9AB2149B9A810E9B38
:101544009AB2149BDA810D9B9AB2149B1A82149A54
:10155400937C43F00103937445F65A222949189861
:1015640014F028FF03461393189815F06CF90246FB
:10157400189B13442449184614F01CFF189815F0BE
:1015840062F90246189B134414991846FFF7B2FEF9
:10159400189815F058F90246189B13441B4918462D
:1015A40014F008FF189B9C1C189815F04CF902467F
:1015B400139BD31A1A461649204614F0FBFE189AB8
:1015C400139B13447B221A70189815F03CF90246B9
:1015D400189B13440F49184614F0ECFE189815F0A4
:1015E40032F903461946189804F07CF90A4B19930A
:1015F400189812F043FA199B18461BB0BDE81088DE
:10160400787D0100E87C0100947D0100A47D010047
:10161400A87D0100D07C0100947C01002DE91048D4
:1016240091B005900491039200230F93A02012F02F
:1016340075F90E900E9B002B77D04FF000034FF0FE
:101644000004CDE90C3400230A93002309930AA96A
:1016540006AA09AB00930B463649059814F0BFFE61
:101664000A9B19464FF000024FF0000B4FF0000C9C
:101674008C464FF0000B099A11464FF000024BEADA
:1016840001034CEA0204CDE90C34DDE90C344FF6D5
:10169400FF714FF00002A24208BF994204D2DDE973
:1016A4000C0103F012F904E0BDF83030184603F0E1
:1016B400F5F845F65A2220490E9814F07BFE0346AD
:1016C4000B930E9815F0BFF802460E9B98180A9AD1
:1016D400099B1A4914F06EFE0E9B9C1C0E9815F083
:1016E400B2F802460B9BD31A1A461549204614F049
:1016F40061FE0E9A0B9B13447B221A700E9815F010
:10170400A2F802460E9B13440E49184614F052FEEA
:101714000E9815F098F8034619460E9804F0E2F86E
:10172400094B0F930E9812F0A9F90F9B184611B0AC
:10173400BDE81088B07D0100E87C0100C07D010097
:10174400A87D0100D07C0100947C010010B58AB012
:10175400039002910192002309933B4A05AB92E85E
:101764000300186004331980A02012F0D7F8089001
:10177400089B002B64D045F65A223449089814F08B
:1017840019FE0790089815F05EF80246089B13446A
:101794002F49184614F00EFE089815F054F8024626
:1017A400089B13442B49184614F004FE089815F0BE
:1017B4004AF80246089B134405AA2749184614F020
:1017C400F9FD089815F03FF80246089B9818234B3A
:1017D400234A244914F0EEFD089815F034F8024623
:1017E400089B1344204A2149184614F0E3FD089B42
:1017F4009C1C089815F027F80246079BD31A1A4632
:101804001B49204614F0D6FD079B089A13447B22FB
:101814001A70089815F017F80246089B13441549E6
:10182400184614F0C7FD089815F00DF8034619463C
:10183400089804F057F8089812F020F90E4B099311
:10184400099B18460AB010BD787E0100E87C0100AF
:10185400DC7D0100E87D0100007E0100147E0100B2
:10186400207E01002C7E0100407E0100687E010084
:10187400A87D0100D07C0100947C010010B588B0E3
:1018840003900291019200230793A02012F046F8DE
:101894000690069B002B00F0EB8112F0DDFA45F672
:1018A4005A22BA49069814F085FD0590069814F05A
:1018B400CAFF0246069B1344B549184614F07AFD44
:1018C400069814F0C0FF0246069B9818029B1B88DA
:1018D4009BB21A46AF4914F06DFD069814F0B3FF9D
:1018E4000246069B9818029B5B889BB21A46AA493B
:1018F40014F060FD069814F0A6FF0246069B9818A3
:10190400029BDB8C9BB21A46A44914F053FD069843
:1019140014F099FF0246069B9818029B9B8C9BB27D
:101924001A469F4914F046FD069814F08CFF0246AF
:10193400069B9818029B1B8D9BB21A46994914F07A
:1019440039FD069814F07FFF0246069B9818029B07
:101954005B8D9BB21A46944914F02CFD069814F042
:1019640072FF0246069B9818029B9B8D9BB21A46F7
:101974008E4914F01FFD069814F065FF0246069B7D
:101984009818029B5B8B9BB21A46894914F012FD8E
:10199400069814F058FF0246069B9818029B1B7C7D
:1019A4001A46844914F006FD069B9C1C069814F004
:1019B4004AFF0246059BD31A1A467F49204614F073
:1019C400F9FC059B069A13447B221A70069814F0BE
:1019D4003AFF0246069B13447849184614F0EAFC81
:1019E400069814F030FF03461946069803F07AFF70
:1019F40045F65A226549069814F0DCFC05900698D1
:101A040014F021FF0246069B13446D49184614F056
:101A1400D1FC069814F017FF0246069B9818029B07
:101A24001B791A46674914F0C5FC069814F00BFF9D
:101A34000246069B9818029B5B791A46624914F089
:101A4400B9FC069814F0FFFE0246069B9818029B08
:101A54005B7C1A465D4914F0ADFC069B9C1C069801
:101A640014F0F1FE0246059BD31A1A465249204649
:101A740014F0A0FC059B069A13447B221A70069866
:101A840014F0E1FE0246069B13444C49184614F038
:101A940091FC069814F0D7FE03461946069803F005
:101AA40021FF45F65A223949069814F083FC059023
:101AB400069814F0C8FE0246069B1344444918468F
:101AC40014F078FC069814F0BEFE0246069B9818A3
:101AD400029BDB8B9BB21A463E4914F06BFC0698C2
:101AE40014F0B1FE0246069B9818029B9B8B9BB296
:101AF4001A46394914F05EFC069814F0A4FE024616
:101B0400069B9818029B5B8C9BB21A46334914F0CF
:101B140051FC069814F097FE0246069B9818029B07
:101B24001B8C9BB21A462E4914F044FC069814F000
:101B34008AFE0246069B9818029BB3F906301BB234
:101B44001A46284914F036FC069814F07CFE024626
:101B5400069B9818029BB3F908301BB21A46224917
:101B640014F028FC069814F06EFE0246069B9818A2
:101B7400029B1B8B9BB21A461C4914F01BFC069853
:101B840014F061FE0246069B32E000BFE87C0100CF
:101B9400807E0100987E0100AC7E0100C07E0100C1
:101BA400D07E0100E07E0100F07E0100007F010094
:101BB400107F0100207F0100A87D0100D07C01007E
:101BC4002C7F01003C7F01004C7F01005C7F010001
:101BD4006C7F0100807F0100907F0100A07F0100E5
:101BE400B07F0100C07F0100D07F0100E07F0100D1
:101BF4009818029B9B8A9BB21A461F4914F0DAFB81
:101C0400069814F020FE0246069B9818029BDB8A75
:101C14009BB21A46194914F0CDFB069B9C1C0698EE
:101C240014F011FE0246059BD31A1A4614492046A5
:101C340014F0C0FB059B069A13447B221A70069885
:101C440014F001FE0246069B13440E49184614F094
:101C5400B1FB069814F0F7FD03461946069803F005
:101C640041FE069811F00AFF12F01CF9064B079387
:101C7400079B184608B010BDF07F010000800100EA
:101C8400A87D0100D07C0100947C010010B588B0CF
:101C940003900291019200230793A02011F03EFECD
:101CA4000690069B002B00F0A18045F65A2251496C
:101CB400069814F07FFB0590069814F0C4FD0246C4
:101CC400069B13444C49184614F074FB069814F010
:101CD400BAFD0246069B9C18029B93F834301846C2
:101CE40006F06AFA03461A464449204614F062FB99
:101CF400069814F0A8FD0246069B9C18029B93F8D4
:101D04003530184606F079FA03461A463C4920460F
:101D140014F050FB069814F096FD0246069B9C189E
:101D2400029B93F83630184606F096FA03461A4694
:101D34003449204614F03EFB069814F084FD024614
:101D4400069B9C18029B93F83730184606F066FAF7
:101D540003461A462C49204614F02CFB069814F02E
:101D640072FD0246069B9818029B93F838301A4677
:101D7400264914F01FFB069814F065FD0246069BE5
:101D84009C18029B93F83B30184606F020FA034651
:101D94001A461F49204614F00DFB069B9C1C06980E
:101DA40014F051FD0246059BD31A1A4619492046E0
:101DB40014F000FB059B069A13447B221A700698C4
:101DC40014F041FD0246069B13441349184614F0CF
:101DD400F1FA069814F037FD03461946069803F005
:101DE40081FD069811F04AFE0C4B0793079B184699
:101DF40008B010BDE87C01001080010024800100BF
:101E04003480010040800100508001005C800100AA
:101E14006C800100A87D0100D07C0100947C01004D
:101E240000B589B0059004910392364B0793A02026
:101E340011F074FD0690069B002B5BD0324B1B798E
:101E4400012B19D0304B1B79022B13D02E4B1B794D
:101E5400052B0DD02C4B1B79062B07D02A4B1B7955
:101E6400032B01D1294A08E0294A06E0294A04E063
:101E7400294A02E0294A00E0294A234BD3F80510F5
:101E8400214BD3F8093000930B462649069814F0E9
:101E940091FA069814F0D7FC03461946069803F005
:101EA40021FD069811F0EAFD174B00225A71002219
:101EB4009A710022DA7100221A72134B00225A72AC
:101EC40000229A720022DA7200221A730022049904
:101ED4000020FFF73BFC002204990020FFF7CEFC12
:101EE400002200210020FFF76FF9002200210020CA
:101EF400FFF736FA034B0793079B184609B05DF8C2
:101F040004FB00BF947C01006C4C00207C80010029
:101F1400848001008C800100948001009C80010079
:101F2400A4800100AC80010000B589B00390029147
:101F3400019200230793A02011F0F0FC0690069B69
:101F4400002B77D011F088FF002005F069F90120FB
:101F540009F036FA03461B0A9BB2DBB207EE903A4D
:101F6400F8EE677ACDED057A08F044F9034607EEFA
:101F7400903AF8EEE77A9DED057A77EE677A9FED71
:101F8400317A67EE877AB3EE077A77EE877ACDED0A
:101F9400057ADDED057AFDEEE77A17EE902A2A49F7
:101FA400069814F007FA069814F04DFC03461946F7
:101FB400069803F097FC012005F032F9012009F09E
:101FC400FFF903461B0A9BB2DBB207EE903AF8EE28
:101FD400677ACDED057A08F00DF9034607EE903ADD
:101FE400F8EEE77A9DED057A77EE677A9FED157A3C
:101FF40067EE877AB3EE077A77EE877ACDED057AC6
:10200400DDED057AFDEEE77A17EE902A0F49069882
:1020140014F0D0F9069814F016FC034619460698F5
:1020240003F060FC002005F0FBF8069811F026FD93
:1020340011F038FF064B0793079B184609B05DF86B
:1020440004FB00BF85EB913FDC800100F0800100C0
:10205400947C010000B589B00390029101920023A1
:10206400079300230693A02011F058FC0590059BCC
:10207400002B30D0A0220021059814F068FB11F049
:10208400EBFE17E01649079A13465B0013449B00C6
:102094000B441B681A461349059814F08BF90598EC
:1020A40014F0D1FB03461946059803F01BFC079B6B
:1020B400013307930A49079A13465B0013449B00B4
:1020C4000B441B68002BDDD111F0ECFE059811F0D8
:1020D400D5FC054B0693069B184609B05DF804FB36
:1020E4000883010004810100947C010000B587B0DD
:1020F4000390029101920298FEF73EFC03468DF88C
:1021040017309DF81730002B07D09DF8173019466B
:10211400002012F077FD002300E0024B184607B0C0
:102124005DF804FB947C010000B589B00390029132
:102134000192164B079304AB0A220021184614F0AF
:1021440006FB04AB1A461249039814F048F904AB91
:102154001946104814F050FB0346002B04D10E4BD3
:102164001B6801225A740BE004AB19460B4814F0A7
:1021740043FB0346002B03D1074B1B6800225A7410
:10218400024B184609B05DF804FB00BF947C0100C3
:102194000C810100188101006C4C00201C8101009D
:1021A40000B587B00390029101920023ADF814307A
:1021B40005AB1A460849039814F011F905AB184603
:1021C40014F0EDF90346DAB2044B1A70044B1846C6
:1021D40007B05DF804FB00BF208101000006002069
:1021E400947C010010B588B003900291019204AB75
:1021F40000221A605A601A8104AB1A461A490398DD
:1022040014F0EDF804AB1946184814F0A3F804AB25
:10221400184614F0D5F954EC103B1846214612F038
:10222400F4FD03460793079812F0D3FD03460C46CA
:102234001A4623460E4814F08DF8DDED077AB2EE07
:10224400047A67EE877A9FED0B7A77EE877AFCEE55
:10225400E77ACDED007A009BDAB2074B1A70074B90
:10226400184608B010BD00BF2C8101003881010060
:10227400488101000000C84200060020947C01004F
:1022840000B587B003900291019205AB00210A4684
:102294001A800A469A7005AB1A462249039814F02C
:1022A4009EF89DF81430302B1BD19DF81530302B3F
:1022B4000BD19DF81630302B03D11B4BC9221A7059
:1022C4002AE0194BCA221A7026E09DF81630302BEA
:1022D40003D1154BCB221A701EE0134BCC221A707B
:1022E4001AE09DF81530302B0BD19DF81630302BA9
:1022F40003D10D4BCD221A700EE00B4BCE221A7077
:102304000AE09DF81630302B03D1074BCF221A7008
:1023140002E0054BD0221A70044B184607B05DF852
:1023240004FB00BF5081010000060020947C0100E2
:1023340084B00390029101920F4B4FF40042C3F812
:1023440004250D4BD3F80C350B4A43F00903C2F8AE
:102354000C35094BD3F80835074A43F00103C2F89A
:102364000835054B054AC3F80026034B01221A60C1
:10237400034B184604B07047000001403546526EC6
:10238400947C010000B583B00190019B1B681F2B56
:1023940004D9054940F2C71006F04BFC4FF0A043A6
:1023A400184603B05DF804FBB485010000B585B0A0
:1023B400019001AB1846FFF7E5FF0390019B012252
:1023C40002FA03F31946039800F018F800BF05B0A9
:1023D4005DF804FB00B585B0019001AB1846FFF72A
:1023E400D1FF0390019B012202FA03F319460398DB
:1023F40000F00EF800BF05B05DF804FB82B0019058
:102404000091019B009AC3F8082500BF02B07047F1
:1024140082B001900091019B009AC3F80C2500BF83
:1024240002B0704782B00190019BD3F8043518467E
:1024340002B0704700B583B00190019B1B68184639
:10244400FFF7F0FF0346184603B05DF804FB0000F5
:10245400014B1846704700BF0806002000B589B03C
:1024640003900B4601928DF80B309DF80B30002B36
:1024740008D09DF80B30012B04D0842250495148D8
:10248400FDF73AFF9DF80B30002B14BF0123002306
:10249400DBB21A4613465B0113445B00B833039A5C
:1024A40013440593059B05221A70059B013301A96A
:1024B4000422184614F022F9059B03F5A57305229E
:1024C4000421102008F04CF9059B0A331122002145
:1024D400122008F045F99DF80B30002B14D100238D
:1024E40007930DE0039A079B134492331978059AD6
:1024F400079B13441B330A461A70079B0133079347
:10250400079B042BEEDD13E0002306930DE0039AF2
:10251400069B134497331978059A069B13441B337F
:102524000A461A70069B01330693069B042BEEDDC4
:10253400059B1B33053309220521152008F010F9EA
:10254400059B03F504631B789B09DBB29AB2059BD8
:1025540003F682031B789BB29B009BB21344ADF835
:102564001230BDF812309B009BB20133ADF812302B
:10257400059B03F12900BDF81230013B9BB21A46BA
:10258400112108F05AF8059B393302224FF4805187
:102594002E2008F0E5F8059B3B3304222821272050
:1025A40008F0DEF8059B3F33022241F202012E209F
:1025B40008F0D6F8BDF81230184609B05DF804FBEF
:1025C400D88501003486010000B585B00190002350
:1025D4008DF80F3000238DF80E3004F097FD08F0CD
:1025E400A3FD019BB3F9003098B2019B0233002292
:1025F400194607F0C8FF019BB3F900309BB20122D2
:102604000021184607F0E2FF019BD3F88430002B29
:1026140005D0019BD3F88430184608F016FD019BC1
:10262400D3F88830002B12D0019B93F8813003F04B
:102634000203002B0BD0019BD3F88830184608F016
:10264400C7FA019BB3F88C30184608F001FE019BD1
:10265400D3F88430002B14BF01230023DBB25AB219
:10266400019B93F881305BB213435BB28DF80E305B
:102674009DF80E30184608F0F5FC0346002B02D0F6
:102684002D238DF80F309DF80F30184605B05DF8F6
:1026940004FB000010B52DED028B88B0039002916D
:1026A400019200238DF81F30039B34330593019B63
:1026B40007EE903AF8EEE77A17EE900A12F089FBEB
:1026C4003DA3D3E9002312F021FD03460C4618462E
:1026D400214612F09AFB0246029B1A60039B9B7BE5
:1026E400012B34D1029B1B6806932E4B1B681B7C69
:1026F400012B18D1059B1B78052B08D19DED067A7B
:10270400DFED296AC7EE267ACDED067A0BE0059B4C
:102714001B78022B07D19DED067ADFED246AC7EE04
:10272400267ACDED067A029B93ED008A059B1A78F2
:10273400059B5B7819469DED060A104605F006F8E0
:10274400F0EE407A78EE677A029BC3ED007A029B42
:10275400D3ED007A9FED167AF4EEC77AF1EE10FA13
:1027640003DD34238DF81F3013E0029B93ED007AD0
:10277400039BB3F908301BB207EE903AF8EEE76A10
:102784009FED0C6AC6EE867A77EE677A029BC3EDFC
:10279400007A9DF81F30184608B0BDEC028B10BDBE
:1027A400AFF300806C4C0020AE47C13F14AEA73F8E
:1027B4000000FA4400007A441329AA153236733F04
:1027C4000000000030B58FB001908DED000A019B30
:1027D40093ED037ADFED756AC7EE267ACDED087ABC
:1027E400019B9B680B939DED0B7ADDED007A77EEF0
:1027F400677ACDED0B7ADDED0B7A9FED6D7AF4EE11
:10280400C77AF1EE10FA07D5DDED0B7A9FED697A00
:1028140077EE877ACDED0B7ADDED0B7A9FED667A54
:10282400F4EEC77AF1EE10FA07DDDDED0B7A9FEDD9
:10283400617A77EEC77ACDED0B7A0B9812F0C9FA6C
:1028440058A3D3E9002312F061FC03460C46184652
:10285400214612F0DAFA03460D93584B1B68DB7BD2
:10286400002B24D0564B03AC1D460FCD0FC42B6850
:102874002360039B0A930123099313E09DED0A7AD5
:10288400DDED0D7A27EE277A099B9B000EAA1344EF
:102894002C3BD3ED007A77EE277ACDED0A7A099BAB
:1028A40001330993099B042BE8DD0A9B0D939DEDED
:1028B4000D7ADFED446AC7EE267ACDED0C7ADDEDB4
:1028C4000C7AB7EE007AF4EEC77AF1EE10FA03DD73
:1028D4004FF07E530C930AE0DDED0C7ABFEE007AE4
:1028E400F4EEC77AF1EE10FA01D5374B0C939DED57
:1028F4000D7AF0EE006AC7EE267A9DED087A37EE7F
:10290400677ADDED0C7A67EE277A9FED307A77EE01
:10291400877A9FED267A67EE877A019BC3ED047A66
:102924009DED0D7AF0EE006AC7EE267A9DED087AE9
:1029340077EE677A17EE900A12F04BFA04460D46CA
:102944009DED0C7ADDED0C7A67EE277AB7EE007A0E
:1029540077EE677A17EE900A12F03BFA02460B46BE
:1029640043EC102B13F0C6FA53EC102B20462946E7
:1029740012F0CCFB03460C46184621464FF00002E9
:10298400134B12F0C3FB03460C461846214612F0C3
:102994003CFA0246019B5A6100BF0FB030BD00BF34
:1029A400AFF30080C28FFDC895C9203F0000C84224
:1029B400000034C30000B443000034436C4C0020D6
:1029C40058860100C364AA3C000080BFC3642A3C4B
:1029D4000000594010B58EB001904FF000030D93E4
:1029E400019B1B788DF83330019B03330B93019BC0
:1029F4005B788DF82B30019B083309939DF83330B5
:102A040003F07F0307EE903AF8EEE77A9FED897AB8
:102A1400C7EE876A16EE900A12F0DBF97FA3D3E9BA
:102A2400002312F073FB03460C461846214612F0AD
:102A3400ECF9034608930B9B01331B781B021AB273
:102A44000B9B1B781BB213431BB2ADF810300B9BCE
:102A540003331B781B021AB20B9B02331B781BB285
:102A640013431BB2ADF812309DF82B3003F07F03F3
:102A740007EE903AF8EEE77A9FED6E7AC7EE876A32
:102A840016EE900A12F0A5F964A3D3E9002312F01C
:102A94003DFB03460C461846214612F0B6F90346A0
:102AA4000793099B01331B781B021AB2099B1B78FD
:102AB4001BB213431BB2ADF80C30099B03331B78D4
:102AC4001B021AB2099B02331B781BB213431BB2BD
:102AD400ADF80E30BDF9123007EE903AF8EEE77A11
:102AE400BDF9103007EE103AB8EEC77AF0EE470A97
:102AF400B0EE670A12F0FAFD8DED060ABDF90E304C
:102B040007EE903AF8EEE77ABDF90C3007EE103A8A
:102B1400B8EEC77AF0EE470AB0EE670A12F0E6FDA7
:102B24008DED050A9DED067ADDED087A37EE677ABC
:102B3400DDED056ADDED077A76EEE77A77EE677A02
:102B4400CDED0D7A0D9812F044F934A3D3E90023A6
:102B540012F098F903460C461846214612F055F92E
:102B640003460D930FE00D9812F033F92DA3D3E92A
:102B7400002312F085F903460C461846214612F04C
:102B840044F903460D930D9812F023F925A3D3E9D4
:102B9400002312F0B2FC0346002BE4D10FE00D98A1
:102BA40012F017F91FA3D3E9002312F06BF90346BF
:102BB4000C461846214612F028F903460D93DDED24
:102BC4000D7AF5EEC07AF1EE10FAE8D40D9812F011
:102BD40000F912A3D3E9002312F052F903460C467C
:102BE4001846214612F011F903460D930D9812F080
:102BF400F0F80EA3D3E9002312F088FA03460C463A
:102C04001846214612F001F903460D930D9B07EE79
:102C1400903AB0EE670A0EB010BD00BF182D4454B0
:102C2400FB210940182D4454FB211940F8C1631AB3
:102C3400DCA54C400000804200B589B002911146E9
:102C44001A4603468DF80F300B46ADF80C30134688
:102C5400ADF80630029B1B78052B05D04FF4D872D3
:102C640040494148FDF748FB9DF80F30002B09D03F
:102C74009DF80F30012B05D040F2B11239493B4881
:102C8400FDF73AFB9DF80F30184604F0C9FA029894
:102C940007F0D6FA029B5B78013B354A9B0013444C
:102CA4005B680793334B1B681B7C012B03D101200A
:102CB40007F034FF10E0079BDBB20793079B1A026F
:102CC400079B1B041A44079B1B061344079A1343D0
:102CD4000793002007F022FF079B069307992648D5
:102CE40013F038FBC0238DF8143005AB184607F0F9
:102CF40091FABDF80630184607F035FCBDF82830C7
:102D0400184607F01FFC002007F034FF002007F0EE
:102D14005FFF002008F09CFABDF80C30184607F05D
:102D240029FEBDF82C30184607F058FEBDF83030A7
:102D3400184607F063FE029B9B78042B08D1002001
:102D440004F03CFA002007F0C7FE002004F068FA03
:102D5400032008F063F8032007F024FA00BF09B049
:102D64005DF804FBD88501006C86010080860100B3
:102D7400C48601006C4C0020A886010000B583B015
:102D840080238DF8043001AB01221121282007F0A3
:102D940089FC0A238DF8043001AB0122122128207A
:102DA40007F080FC0F238DF8043001AB01221221BF
:102DB400282007F077FC00238DF8043001AB0122B2
:102DC40000212A2007F06EFC01238DF8043001ABAA
:102DD400012200212A2007F065FC00BF03B05DF842
:102DE40004FB2DE9704887B00190019B03F53D5326
:102DF40020331B78DDB24FF000064FF000034FF094
:102E040000042C000023019800F53D501F30007889
:102E1400C5B24FF000062A0A290643EA010B44EA28
:102E2400020C019B03F53D531E331B78D9B24FF0BE
:102E340000024FF000034FF00004140444EA11446C
:102E44000B044BEA03054CEA0406019B03F53D53CE
:102E54001D331B78D9B24FF000024FF000034FF03E
:102E64000004140244EA11640B0245EA030146EA31
:102E74000402019B03F53D531C331B78DDB24FF074
:102E8400000645EA010346EA0204CDE90434019B45
:102E940003F541530C331B681B890393019B03F512
:102EA40041530C331B68DB881A46039B9B1A03931C
:102EB400019B03F53F531C331B68039AD31A0393F6
:102EC400019B03F53F5338331B68039AD31A0393CA
:102ED400019B03F5405320331B68039AD31A0393D1
:102EE400039811F0BAFE03460C4644EC103B05F07F
:102EF400F5F80A4601464FF000034FF000040B0AB0
:102F040043EA0263140A0393DDE904124FF0000359
:102F14004FF000040B0A43EA0263140A1A46039BA7
:102F240013440393039B23F001030393019B03F5D1
:102F3400405334331B689BB23233ADF80A3004F08B
:102F4400F5F8039808F081F8BDF80A30184608F03F
:102F54007FF9012008F034F9FFF710FF04F0D6F8E8
:102F6400039808F072F8BDF80A30184608F070F9B2
:102F7400012008F025F9FFF701FF00BF07B0BDE805
:102F84007088000000B585B00190FFF761FA0390E6
:102F9400039B002B2CD01848FFF74CFA0290039B9C
:102FA40003F53D5338331B78012B02D0032B0ED08D
:102FB4001FE0039B03F53D531833029A1A60039BE9
:102FC40003F53D531033184607F052FB11E0039B01
:102FD40003F53D532433029A1A60039B03F53D53D2
:102FE4001C33184607F044FB0398FFF7FAFE00E091
:102FF40000BF05B05DF804FB4CA3010000B589B027
:103004000190FFF725FA079002230693079B03F527
:103014003D5304331B680593079B03F53D53083365
:103024001B680493059B0133049AD21A069B013B47
:103034001340002B65DD059B4FF4BD5202FB03F3E7
:10304400079A1344043303933048FFF7F3F9024615
:10305400039BC3F89C2004F069F8039B973318463C
:1030640007F013FB00210F2007F0D5FB0246039B5A
:10307400C3F8B420264A00210F2007F056FC04F0C0
:1030840045F8039B9233184607F0FFFA019B1A6830
:10309400039BC3F8B020019B9B887F2B28BF7F2311
:1030A4009BB21AB2039B1A80039B981C039BB3F92F
:1030B40000309BB20022194607F0AAFA154BD3F848
:1030C4003A33002B1ED0059B5A1C069B013B134030
:1030D4000593079B03F53D530433059A1A600D4B82
:1030E400D3F83A230B4BD3F842331946104611F068
:1030F400D9F80346002B05D04021012011F082FDB0
:1031040000E000BF09B05DF804FB00BF4CA3010060
:1031140000FF27246C4C002000B583B0019003F01D
:10312400F5FF002008F094F8002008F049F840F278
:10313400C1220449044813F00DF900BF03B05DF83F
:1031440004FB00BFD0860100B086010000B583B047
:1031540001900198FFF7E0FF00BF03B05DF804FBA6
:1031640000B585B003460A468DF8073013468DF83E
:10317400063004F0B9FA03909DF80730002B27D0ED
:10318400012B00D039E00021242007F068FB03461E
:10319400ADF80A30BDF80A3003F4FF63ADF80A3025
:1031A400BDF80A3043F40063ADF80A309DF80630E8
:1031B400DB001AB2BDF90A3013431BB2ADF80A3072
:1031C400BDF80A301A460021242007F08FFB14E0D2
:1031D4000021242007F043FB0346ADF80A30BDF874
:1031E4000A3003F4FF63ADF80A30BDF80A301A461A
:1031F4000021242007F07AFB00BF039804F085FA2D
:1032040000BF05B05DF804FB08B503F08FFF212172
:103214000120FFF7A5FF03F079FF21210120FFF72B
:103224009FFF012004F0A4F8012004F0CDF8012050
:1032340004F0B4F8002004F0B1F8002004F098F889
:1032440003F074FF00210020FFF78AFF03F05EFF04
:1032540000210020FFF784FF00BF08BD86B0039063
:103264000B460192ADF80A30039B03F54453203317
:103274001B68019AD31A0593059B002B03DA059B5F
:1032840003F180730593059B07EE903AF8EEE77A15
:103294009FED197A27EE877ABDF80A3007EE903A47
:1032A400F8EEE77ADFED156A67EEA66A039B03F58D
:1032B40041530C331B681B8807EE903AF8EEE77A0B
:1032C40066EEA77A77EE677AFDEEE77A17EE903A24
:1032D4000593059B07EE903AB8EEE77ADFED086AAE
:1032E400C7EE267AFDEEE77A17EE903A0593059B32
:1032F400184606B0704700BF286BEE460024744998
:1033040000007A4400B587B00390029101920093C3
:10331400039B20221A70029B9A78039B5A70029B8B
:10332400DA78039B9A70039B0322DA71029B1B8851
:103334009BB2009A19460198FFF790FF049000236E
:1033440005930EE0059BDB00049A42FA03F3D9B21D
:10335400039A059B13440E330A461A70059B0133E6
:103364000593059B032BEDDD019B03F541530C33C2
:103374001B689B88DAB2039B1A72019B03F54153C5
:103384000C331B689B881B0A9BB2DAB2039B5A72EC
:10339400019B03F541530C331B681B89DAB2039B71
:1033A4009A72019B03F541530C331B681B891B0A5A
:1033B4009BB2DAB2039BDA72019B03F541530C33DF
:1033C4001B68DB88DAB2039B1A73019B03F5415334
:1033D4000C331B68DB881B0A9BB2DAB2039B5A735B
:1033E400029B9B899BB2DAB2039B9A74029B9B89D2
:1033F4009BB21B0A9BB2DAB2039BDA74029BDB8991
:103404009BB2DAB2039B1A75029BDB899BB21B0A3F
:103414009BB2DAB2039B5A75029B1B8A9BB2DAB247
:10342400039B9A75029B1B8A9BB21B0A9BB2DAB25E
:10343400039BDA7500BF07B05DF804FB00B589B0E3
:103444000390029101920093039B72221A70029BD3
:103454001B889BB2009A19460198FFF7FFFE06905D
:10346400002307930EE0079BDB00069A42FA03F35E
:10347400D9B2039A079B134401330A461A70079B77
:1034840001330793079B032BEDDD2F4B1A78039B26
:103494005A71029B1B889BB21946019A0B469B00EA
:1034A4000B44DB00134403F541532833D3ED007A76
:1034B400FDEEE77A17EE903A0593059BDAB2039B8B
:1034C4009A71059B1B12DAB2039BDA71029B1B886B
:1034D4009BB21946019A0B469B000B44DB00134434
:1034E40003F541532C33D3ED007AFDEEE77A17EE62
:1034F400903A0593059BDAB2039B1A72059B1B1243
:10350400DAB2039B5A72029B1B889BB21946019A3A
:103514000B469B000B44DB00134403F5415330334B
:10352400D3ED007AFDEEE77A17EE903A0593059B0A
:10353400DAB2039B9A72059B1B12DAB2039BDA720E
:1035440000BF09B05DF804FB000600202DE9F04936
:10355400AFB001900091019BD3F884302A932A9B49
:103564009B7C03F00103DBB2002B40F0B48002AB80
:10357400023327932923ADF80830279B41221A7080
:10358400279B8C225A70009B03F5415308331B88F8
:10359400DAB2279BDA70009B03F5415308331B888A
:1035A4001B0A9BB2DAB2279B1A71279B581D2A9BD0
:1035B40004330822194613F0A1F8009B1A78279BBC
:1035C4005A73009B5A78279B9A73009B03F53D53CB
:1035D4000C331A78279B9A70279B0F332B93C04B7D
:1035E4001B685B8B9BB22893009B03F53E530C3303
:1035F4001B68289A13442893009B03F53E532833F1
:103604001B68289A13442893019B93F89630D9B2E7
:103614004FF000024FF000034FF000040C000023B1
:10362400019A92F89520D1B24FF000024FEA112886
:103634000F0643EA070B44EA080C019B93F8943005
:10364400D9B24FF000024FF000034FF0000414040D
:1036540044EA11440B044BEA03054CEA0406019BBB
:1036640093F89330D9B24FF000024FF000034FF0BB
:103674000004140244EA11640B0245EA030146EA19
:103684000402019B93F89230DDB24FF0000645EA44
:10369400010346EA0204CDE92C34289811F0DDFA3E
:1036A40003460C4644EC103B04F018FD0A46014660
:1036B400DDE92C345D1844EB0206CDE92C56DDE936
:1036C4002C3488494FF0FF0203EA010504EA02069C
:1036D400CDE92C56B6E02A9A937C6FF300039374D9
:1036E40002AB023329932323ADF80830299B4122EE
:1036F4001A70299B88225A70009B03F541530833A2
:103704001B88DAB2299BDA70009B03F54153083316
:103714001B881B0A9BB2DAB2299B1A712A9B9A78DE
:10372400299B5A712A9BDA78299B9A71009B1A78F3
:10373400299BDA71009B5A78299B1A72009B03F526
:103744003D530C331A78299B9A70299B09332B9388
:10375400634B1B685B8D9BB22893009B03F53F531F
:103764001C331B68289A13442893009B03F53E538B
:1037740028331B68289A13442893019B93F89630A6
:10378400D9B24FF000024FF000034FF000040C00D8
:103794000023019A92F89520D1B24FF000020E0A4C
:1037A4000D0645EA030746EA0408019B93F89430A2
:1037B400D9B24FF000024FF000034FF0000414049C
:1037C40044EA11440B0447EA030548EA0406019B52
:1037D40093F89330D9B24FF000024FF000034FF04A
:1037E4000004140244EA11640B0245EA030146EAA8
:1037F4000402019B93F89230DDB24FF0000645EAD3
:10380400010346EA0204CDE92C34289811F025FA84
:1038140003460C4644EC103B04F060FC0A460146A7
:10382400DDE92C345D1844EB0206CDE92C56DDE9C4
:103834002C342C494FF0FF0203EA010504EA020686
:10384400CDE92C56019BD3F89C30009A2A992B98E9
:10385400FFF758FD03238DF88930DDE92C124FF072
:1038640000034FF000040B0A43EA0263140A239393
:10387400002324930023ADF89430009B03F53D53BB
:10388400383301221A70009B03F53D530C331B7827
:103894000133DAB2009B03F53D530C331A7010F078
:1038A400DBFA02AB1846FEF78FFE03468DF89B3019
:1038B40010F0F8FA9DF89B30002B0AD0009B03F51A
:1038C400445324331B685A1C009B03F5445324338C
:1038D4001A609DF89B3018462FB0BDE8F08900BFF0
:1038E4006C4C002000FEFFFF2DE97048ADB0019044
:1038F400009103AB02332B932B9B41221A702B9B19
:1039040088225A70009B03F5415308331B88DAB2AE
:103914002B9BDA70009B03F5415308331B881B0A69
:103924009BB2DAB22B9B1A71019BD3F884309A783C
:103934002B9B5A71019BD3F88430DA782B9B9A71B4
:10394400009B1A782B9BDA71009B5A782B9B1A7276
:10395400009B03F53D530C331A782B9B9A702B9BD9
:1039640003F10900019BD3F88410019BD3F89C3028
:10397400009AFFF763FD009B03F541530C331B686A
:10398400DB882A93009B03F53F531C331B682A9A58
:1039940013442A93009B03F53F5338331B682A9A38
:1039A40013442A93009B03F53D532C331B78D9B25F
:1039B4004FF000024FF000034FF000040C0000230E
:1039C400009A02F53D522B321278D1B24FF0000228
:1039D4000E0A0D0645EA030B46EA040C009B03F5A8
:1039E4003D532A331B78D9B24FF000024FF0000345
:1039F4004FF00004140444EA11440B044BEA030599
:103A04004CEA0406009B03F53D5329331B78D9B2D5
:103A14004FF000024FF000034FF00004140244EA98
:103A240011640B0245EA030146EA0402009B03F514
:103A34003D5328331B78DDB24FF0000645EA0103FD
:103A440046EA0204CDE928342A9811F006F903461F
:103A54000C4644EC103B04F041FB0A460146DDE908
:103A640028345D1844EB0206CDE92856DDE92834F4
:103A740020494FF0FF0203EA010504EA0206CDE9FA
:103A84002856DDE928124FF000034FF000040B0A1A
:103A940043EA0263140A24931723ADF80C3001237C
:103AA4008DF88D30002325930023ADF89830009BCA
:103AB40003F53D530C331B780133DAB2009B03F555
:103AC4003D530C331A70009B03F53D5338330322E6
:103AD4001A7010F0C1F903AB1846FEF775FD0346E2
:103AE4008DF89F3010F0DEF99DF89F3018462DB008
:103AF400BDE8708800FEFFFF00B585B0019000911D
:103B0400019B01220421142006F02AFE0521152020
:103B140006F0A5FE0346ADF80E30BDF80E3007EEF4
:103B2400903AF8EE677A9FED107A67EE877AB6EEF0
:103B3400007A77EE877AFDEEE77AF8EEE77AB1EE6F
:103B4400007A67EE877AFCEEE77A17EE903AADF8E2
:103B54000E30BDF80E301A460521009806F06DFDB2
:103B640000BF05B05DF804FB0000803C00B585B0E3
:103B74000190009110F070F9002303930FE0009A74
:103B8400039B134403F53D5328331978019A039B8F
:103B9400134488330A461A70039B01330393039B2F
:103BA400042BECDD002302930FE0009A029B1344E4
:103BB40003F53D531C331978019A029B13448D334A
:103BC4000A461A70029B01330293029B042BECDD1C
:103BD40003F09CFA019B03F1A002019BA233194656
:103BE4001046FFF789FF019BAC33012204212A20F0
:103BF40006F0B6FD03F09AFA019B03F1A102019BC2
:103C0400A73319461046FFF777FF019BAD33012216
:103C140004212A2006F0A4FD234B1B685B7B012BA7
:103C240013D103F073FA019BD3F8B0301A46002184
:103C34000198FEF713FC03F079FA019BD3F8B43032
:103C44001A4601210198FEF709FC174B1B681B7BE0
:103C5400012B20D1019B03F59E7341F26262002186
:103C6400184612F074FD03F051FA019B03F59E739C
:103C74004FF4967240F63131184606F0DEFC03F03C
:103C840055FA019B03F66D434FF4967240F63131B9
:103C9400184606F0D2FC03F039FA10F003F900BF1D
:103CA40005B05DF804FB00BF6C4C002070B58CB00F
:103CB4000190009188A4D4E90034CDE90A340721A5
:103CC400152006F0CCFD0346ADF826300021122065
:103CD40006F0A1FD034619464FF000024FF0000321
:103CE4004FF000040B0C43EA0243140CADF82430EB
:103CF4000421122006F0B3FD0346ADF8223006215C
:103D0400122006F0ACFD0346ADF82030002110204F
:103D140006F081FD03461B0D9BB2C3F30B03ADF804
:103D24001E30BDF82630184610F097FF03460C46A7
:103D34009FED641B44EC103B12F038F855EC104B2B
:103D4400BDF82430184610F088FF02460B469FED5C
:103D54005D1B43EC102B12F029F853EC102B20467A
:103D6400294611F08FF803460C4625461C46BDF83B
:103D74002230184610F071FF02460B469FED511B8E
:103D840043EC102B12F012F853EC102B204629466A
:103D940011F078F803460C4625461C46BDF81E3043
:103DA400184610F043FF02460B462046294611F000
:103DB40063FA03460C4625461C46BDF81E301846D9
:103DC40010F034FF02460B462046294611F09EF9B6
:103DD40003460C4644EC173BB0EE470AF0EE670A84
:103DE40011F0D0FF51EC100B4FF00002394B11F0E1
:103DF4008DF903460C4618462146DDE90A2311F0E5
:103E04003FF803460C46CDE904349FED301B9FED8B
:103E14002D0B11F0CBFF56EC105BBDF8203018468B
:103E240010F004FF03460C461A4623462846314642
:103E340011F06CF903460C4625461C46BDF81E30AD
:103E4400184610F0F3FE02460B462046294611F0B0
:103E540013FA03460C4625461C46BDF81E30184688
:103E640010F0E4FE02460B462046294611F04EF9B6
:103E740003460C4644EC173BB0EE470AF0EE670AE3
:103E840011F080FF51EC100B4FF00002114B11F0B8
:103E94003DF903460C4618462146DDE90A2310F095
:103EA400EFFF03460C46CDE90234019ADDE9043400
:103EB400C2E90034009ADDE90234C2E9003400BFEB
:103EC4000CB070BD000000000000004000000000C5
:103ED4000000314000002440E17A14AE47715C4098
:103EE40010B588B001900091FF238DF81F302B236B
:103EF4008DF81E30019B02330593059B1B78C52B5F
:103F040008D1019BB3F900300C2B03D1EE238DF8BB
:103F14001F3025E0059B1B78412B03D0059B1B78A4
:103F2400612B1AD1059B5B7803F0CC03882B0ED14F
:103F3400019BB3F900300D2B04D0019BB3F9003081
:103F4400232B08D1059B5B7A8DF81F3003E0FF23F8
:103F54008DF81F3000E000BF02E0FF238DF81F3012
:103F64009DF81F30892B00F03C81EE2B02D0842B6E
:103F74004AD072E1059B991C02AB0822184612F044
:103F8400BDFBDDE902341846214600F07FFB024602
:103F9400019BC3F88420009B03F53D533433002276
:103FA4001A60009B03F53D5328330522002118466F
:103FB40012F0CDFB009B03F53D531C330522002179
:103FC400184612F0C4FB019BD3F88430002B0ED0AA
:103FD400019BD3F88420937C6FF3000393740099BE
:103FE4000198FFF7B3FA03468DF81E303FE1DDE98F
:103FF4000212009B03F541531033C3E900122E2330
:104004008DF81E3000BF32E1059B1B7A1B021AB2E9
:10401400059BDB791BB213431BB2ADF81030BDF81E
:104024001030184600F06EFB0246019BC3F8842052
:10403400019BD3F88430002B00F0CF80019BD3F890
:104044008420009B03F53D5334331A600023069308
:104054000FE0019A069B134492331978009A069B49
:10406400134403F53D5328330A461A70069B013363
:104074000693069B042BECDD019BD3F89C20009B4C
:1040840003F53D5330331A60019BD3F884309B7C95
:1040940003F00103DBB2002B07D000990198FFF76E
:1040A40055FA03468DF81E3006E000990198FFF793
:1040B4001BFC03468DF81E309DF81E30002B68D182
:1040C400019BD3F884301B889BB21946019B187B53
:1040D400009A0B469B000B44DB00134403F5415349
:1040E4001A3302461A70019BD3F884301B889BB2A2
:1040F4001946009A0B469B000B44DB00134403F55E
:10410400415320335C4A1A60019BD3F884301B88E6
:104114009BB21946009A0B469B000B44DB001344E8
:1041240003F541533033544A1A60019BD3F8843069
:104134001B889BB21946009A0B469B000B44DB007C
:10414400134403F5415324334B4A1A60019BD3F8BB
:1041540084301B889BB21946009A0B469B000B4483
:10416400DB00134403F541532833434A1A60019B8F
:10417400D3F884301B889BB21946009A0B469B00E7
:104184000B44DB00134403F541532C333A4A1A60C1
:104194006DE0009B03F53D53343300221A60009B0D
:1041A40003F53D53283305220021184612F0CFFAB7
:1041B400009B03F53D531C3305220021184612F0E1
:1041C400C6FA009B03F5445324331B685A1C009B16
:1041D40003F5445324331A6049E02C238DF81E3030
:1041E40045E02C238DF81E30059B1B7A1B021AB266
:1041F400059BDB791BB213431BB2ADF81230BDF83B
:104204001230184600F07EFA0246019BC3F884205F
:10421400019BD3F88430002B10D0019BD3F8842069
:10422400009B03F53D5334331B689A4206D1009931
:104234000198FFF79BFC33238DF81E3002F066FFD4
:104244000E490F48FFF732FD02F070FF0D490E488A
:10425400FFF72CFD02F05AFF09E0009B03F53D53E4
:10426400343300221A602B238DF81E3000BF9DF8D2
:104274001E30184608B010BD00AD5E474037002020
:1042840048370020503700205837002010B588B038
:104294000190324A03AB92E803001860043319809A
:1042A4000023ADF80C30019810F0D7FC27A3D3E914
:1042B400002310F02BFF03460C461846214625A385
:1042C400D3E9002310F0D8FF03460C4618462146D4
:1042D40010F045FD0246224B1A60224B1B68002B4E
:1042E40015D103AB204A194620480BF0D7F80790A4
:1042F400079B0593059B002B05D01D4A4FF4B8611D
:10430400059805F07DFB174B01221A6012E003AB00
:10431400154A194615480BF033F903460793079BD2
:104324000693069B002B05D0114A40F2C65106980D
:1043340005F066FB01210D480BF0AEF90B480BF0BC
:1043440081F900BF08B010BDAFF300800000000089
:1043540080842E410000000065CDDD40BC86010054
:10436400A000002038370020794300004CA301004E
:10437400D885010000B585B003468DF80730FEF7F7
:1043840067F80390104B1A68104B1B689A4211D3BC
:104394001E20FEF71FF80E48FEF74CF80246039B5A
:1043A40003F5445320331A601E20FDF7FFFF064B2C
:1043B40000221A60044B1B680133034A136000BFD8
:1043C40005B05DF804FB00BFA4000020A00000209D
:1043D4004CA3010010B58CB00590864B0B9343F2AF
:1043E400301200210B9812F0B2F9059B012B06D173
:1043F400814B824A1A60824B824A1A6005E07E4BE6
:10440400804A1A607E4B7D4A1A6002F0C9FD7E4BD9
:104414001B6803F124020B9B03F541530C331A6010
:10442400794B1B685B889AB20B9B03F541530833A5
:104434001A80754B1B681B889AB20B9B1A80724BAF
:104444001B6834330A930A9B5B7806930A9BDB79D7
:1044540007930A9B9B7808930C2309930B9B03F502
:104464003E5206AB1146184603F0F4FB2923099388
:104474000B9B03F53E53283306AA1946104603F056
:10448400E9FB0D2309930B9B03F53F53103306AA55
:104494001946104603F0DEFB172309930B9B03F523
:1044A4003F53383306AA1946104603F0D3FB23239F
:1044B40009930B9B03F54053203306AA1946104673
:1044C40003F0C8FB02F0CAFC0FF0C6FC02F020FFA8
:1044D4000B9B03F541530C331B689B881846FFF76D
:1044E400D5FE012002F06AFE012005F08DFD034691
:1044F400002B01D0112379E005F07CFE03461A4617
:104504000B9B03F544532D331A703F4B1B6803F187
:1045140034003D4B1B685B8C9CB23B4B1B681B8C73
:104524009AB20B9B03F5415308331B880B990988F6
:104534000291019300922346082201460120FEF7CE
:104544007BFB002002F03AFE012005F05DFD0346EE
:10455400002B01D0112349E0002002F061FE05F098
:1045640049FE03461A460B9B03F544532C331A7039
:10457400254B1B6803F13400234B1B68DB8B9CB277
:10458400214B1B689B8B9AB20B9B03F54153083359
:104594001B880B99098802910193009223460022FB
:1045A40001460020FEF748FB184B194A19491A48DE
:1045B40006F02AFB0121194806F092FEFEF724FEBC
:1045C40011F0E8FE024613461B029B1A144A82FBB2
:1045D40003121A449213DB17D31ADAB20B9B03F5B6
:1045E4003D530C331A700FF05DFC002318460CB0D9
:1045F40010BD00BF08060020C8000020BC00002039
:10460400CC000020B00000206C4C00205131000090
:104614001D31000001300000892F000080D00324E8
:104624000300018008B502F02FFC00BF08BD00BFE5
:1046340070470000024B1B6840331846704700BFA8
:104644006C4C002000B585B00023ADF80E30FFF7A8
:10465400F1FF0290002301930FE0029B1B889BB2A1
:10466400002B04D0BDF80E300133ADF80E30029BA0
:1046740013330293019B01330193019B042BECDD63
:10468400BDF80E30184605B05DF804FB10B586B0D1
:10469400CDE9000105230493FFF7CCFF0390002329
:1046A400059327E0059A1346DB0013445B0013448B
:1046B400039A1A4453689468DDE90012A24208BFC1
:1046C400994214D1059A1346DB0013445B0013444A
:1046D400039A13441B889BB2002B08D0059A1346F7
:1046E400DB0013445B001344039A134407E0059B67
:1046F40001330593059A049B9A42D3DB00231846A1
:1047040006B010BD00B587B00346ADF806300523EA
:104714000493FFF78FFF03900023059325E0059A88
:104724001346DB0013445B001344039A13445B8871
:104734009BB2BDF806209A4214D1059A1346DB00B9
:1047440013445B001344039A13441B889BB2002B4D
:1047540008D0059A1346DB0013445B001344039A04
:10476400134407E0059B01330593059A049B9A4281
:10477400D5DB0023184607B05DF804FB00B585B00F
:1047840005230293FFF756FF01900023ADF80E3086
:1047940018E0BDF90E201346DB0013445B001344FC
:1047A400019A13441B889BB2002B04D1BDF80E3030
:1047B40001339BB20CE0BDF90E309BB201339BB2C6
:1047C400ADF80E30BDF90E30029A9A42E1DC0023B6
:1047D400184605B05DF804FB00B589B0CDE90201C7
:1047E4001346ADF8063005230693DDE90201FFF711
:1047F4004DFF0790079B002B48D1FFF71BFF059047
:10480400FFF7BCFF0346ADF81230BDF91230002BA0
:104814003CDDBDF91230069A9A4237DB04E0BDF85C
:1048240006300133ADF80630BDF806301846FFF700
:1048340069FF0346002BF2D1BDF912201346DB00B9
:1048440013445B001344133B059A13440793BDF8C8
:104854001220079B1A80079BBDF806205A80079BED
:10486400029A5A60039A9A600B4B1B68DB8D9AB2CA
:10487400079B9A81084B1B681B8E9AB2079BDA81AF
:10488400054B1B685B8E9AB2079B1A82079B1846DE
:1048940009B05DF804FB00BF6C4C002000B585B086
:1048A4000346ADF80630BDF806301846FFF72AFF78
:1048B4000390039B002B04D013220021039811F0D2
:1048C40046FF00BF05B05DF804FB00B585B0CDE937
:1048D4000001DDE90001FFF7D9FE0390039B002BE3
:1048E40004D013220021039811F031FF00BF05B05A
:1048F4005DF804FB10B483B00023ADF80630002348
:1049040000930FE00D4A009BDB001344D3E900340D
:1049140023430BD0BDF806300133ADF80630009BBD
:1049240001330093009B042BECD900E000BFBDF8D9
:104934000630184603B05DF8044B7047603700201A
:10494400014B1846704700BF6037002010B485B093
:10495400CDE90001012302930023039324E0174AC5
:10496400039BDB001344D3E90034DDE90012A242C7
:1049740008BF994202D10023029318E00F4A039B17
:10498400DB001344D3E9003423430AD10B4A039BCD
:10499400DB001A44DDE90034C2E900340123029348
:1049A40005E0039B01330393039B042BD7D9029B9C
:1049B400184605B05DF8044B704700BF603700200F
:1049C40008B528220021024811F0C1FE00BF08BD2D
:1049D4006037002082B00023ADF806302C4B1B78E2
:1049E400002B52D100238DF8043046E00023ADF8AB
:1049F400063001238DF805302FE0BDF8063003F0B2
:104A04000103002B0ED0BDF806305B08ADF806306C
:104A1400BDF8063083F4BF4383F07E03DB43ADF877
:104A2400063004E0BDF806305B08ADF806309DF8AA
:104A340004209DF805301340DBB2002B08D0BDF8EC
:104A4400063083F4BF4383F07E03DB43ADF80630C6
:104A54009DF805305B008DF805309DF80530102B6E
:104A6400CBD19DF80430BDF806200A4941F8232033
:104A74009DF8043001338DF804309DF804300F2B79
:104A8400B4D9034B01221A7000E000BF02B0704792
:104A9400C83700208837002086B003900B46019267
:104AA400ADF80A30039B0593019BADF812303CE04E
:104AB400BDF81230DBB203F00F038DF81130BDF8EE
:104AC40012301B09ADF812309DF81120059B1B789C
:104AD40003F00F0353401B4A52F823309AB2BDF837
:104AE40012305340ADF81230BDF81230DBB203F08F
:104AF4000F038DF81130BDF812301B09ADF81230D8
:104B0400059B1B781B09DAB29DF811305340DBB2C8
:104B14001A460C4B53F822309AB2BDF81230534067
:104B2400ADF81230059B01330593BDF80A305A1EC7
:104B3400ADF80A20002BBBD1BDF81230184606B0E0
:104B4400704700BF883700200000000010B58AB00D
:104B54000190019BD3ED047A019B93ED057AF0EE6D
:104B6400470AB0EE670A10F0C1FD10EE103A18467D
:104B740010F02FF903460C46CDE9083449A3D3E9D4
:104B84000023DDE9080110F0C1FA03460C46CDE923
:104B940008344AF25A53ADF80C3011238DF80E3014
:104BA40080238DF80F30019BD3ED037AFDEEE77A75
:104BB40017EE903A9BB2ADF81030DDE9080110F021
:104BC400A7F803469BB2ADF81230344BD3E9023454
:104BD4001846214610F09CF80346DBB28DF81530D8
:104BE4002E4BD3E900341846214610F091F80346C1
:104BF400DBB28DF81430294BD3E90001274BD3E9FC
:104C040002341A46234610F03BF903460C46184674
:104C1400214610F07DF80346DBB28DF81630019B77
:104C2400B3F91E301B121BB2DBB28DF81730019B97
:104C3400B3F91E30DBB28DF81830019B1B88ADF838
:104C44001930FF238DF81B30019B93F92430DBB21C
:104C54008DF81D30019B93F92530DBB28DF81C30A3
:104C640003AB03334FF6FF720F211846FFF714FF0F
:104C740003469BB2ADF81E3003AB1421184600F076
:104C840031FE10220021054811F061FD102200219F
:104C9400034811F05CFD00BF0AB010BD403700208E
:104CA4005037002018B1531ADCA54C4010B584B01D
:104CB400CDE90001A0200EF031FE0390039B002BF0
:104CC40040D045F65A222149039811F073FB029013
:104CD400039811F0B8FD0246039B9818DDE9001211
:104CE4004FF000034FF00004130000241A46009B09
:104CF400174911F05FFB039B9C1C039811F0A3FD63
:104D04000246029BD31A1A461249204611F052FB5E
:104D1400029B039A13447B221A70039811F093FDAB
:104D24000246039B13440C49184611F043FB0398B5
:104D340011F089FD03461946039800F0D3FD03984A
:104D44000EF09CFE00BF04B010BD00BFE48601005D
:104D5400EC860100048701000C870100F0B58DB0DA
:104D64000990A34B0B930B9B002B00F03D81A14BAF
:104D74001B681B7B012B09D09E4B1B685B7B012BA3
:104D840004D09C4B1B685B7C012B6ED9994B1B6830
:104D94005B7C032B1CD1099B1B881946099B9B78C0
:104DA4001846099BD3ED047AFDEEE77A17EE902AB4
:104DB400099BD3ED057AFDEEE77A17EE903A01935D
:104DC400009203460A468C490B9811F0F3FA39E035
:104DD400099B1B881F46099B9B789C46099BD3ED26
:104DE400047AFDEEE77A17EE904A099BD3ED057A33
:104DF400FDEEE77A17EE905A099BD3ED067AFDEEA5
:104E0400E77A17EE906A099B9B8BDBB21A46099BE3
:104E1400B3F91E309BB21946099BB3F920309BB2FB
:104E24001846099BB3F922309BB20693059004916E
:104E3400039202960195009463463A466F490B9893
:104E440011F0B8FA0B9811F0FEFC02460B9B1344C8
:104E54006B49184611F0AEFA0B9811F0F4FC0346B6
:104E640019460B9800F03EFDBEE0624B1B685B7C6C
:104E7400012B40F0B18045F65A2262490B9811F09B
:104E840099FA0A900B9811F0DEFC02460B9B13442E
:104E94005D49184611F08EFA0B9811F0D4FC0246C5
:104EA4000B9B9818099B1B881A46099B9B781946EB
:104EB400099B5B6800930B46544911F07BFA4D4BF8
:104EC4001B689B7C002B0FD00B9811F0BCFC024696
:104ED4000B9B9818099B93F924301A46099B93F964
:104EE40025304B4911F066FA0B9811F0ACFC0246E0
:104EF4000B9B9818099BD3ED037ABDEEE77A099BC7
:104F0400D3ED027AFDEEE76A099BD3ED047AFDEE58
:104F1400E77A17EE902A099BD3ED057AFDEEE77A3E
:104F240017EE903A0193009216EE903A17EE102A7B
:104F3400384911F03FFA0B9811F085FC02460B9B9F
:104F44009818099BD3ED067AFDEEE77A099B9B8BB3
:104F54001C46099BB3F91E301A46099BB3F920304D
:104F64001946099BB3F9223002930191009223461A
:104F740017EE902A284911F01DFA0B9811F063FCE2
:104F840002460B9B13442549184611F013FA0B9B58
:104F94009C1C0B9811F057FC02460A9BD31A1A4624
:104FA4001F49204611F006FA0A9B0B9A13447B22F0
:104FB4001A700B9811F047FC02460B9B13441049DE
:104FC400184611F0F7F90B9811F03DFC0346194609
:104FD4000B9800F087FC07E0064B1B685B7C002BFA
:104FE40002D10998FFF7B2FD00BF0DB0F0BD00BFBC
:104FF400CC3700206C4C002010870100288701006A
:105004000C870100E4860100608701006C870100C1
:105014008C870100A0870100C4870100E887010094
:105024000487010000B583B00190114B1B68019AFD
:105034009A4218D00E4A019B1360019B002B09D0A1
:105044000C4B1B6803F5905304331B78184602F08D
:10505400E7F808E0074B1B6803F5905304331B780B
:10506400184602F0ABF800BF03B05DF804FB00BFC4
:10507400A80000206C38002010B588B001900B46C1
:10508400ADF8023000238DF81B30BDF80230002B40
:1050940000F02081019B1B78022B40F0BF80019B14
:1050A40001331B785B08DBB203F001031846FFF7FA
:1050B400B9FF019B01331B7803F00103002B59D185
:1050C400019B02331B781A46019B03331B781B0296
:1050D40013440293019B04331B781A46019B053346
:1050E4001B781B0213440793079B0333B3F5885FB4
:1050F40002D39DF81B30EDE0784B1B68032283F844
:105104000021764B1B68002283F80121734B1A6837
:10511400079B02331344032283F80021029B013BC3
:10512400019A13441B78032B0CD06C4B1B6801228F
:1051340083F80121694B1B68032283F802210023B1
:1051440007930CE0029B9BB2073B98B2019B991D0D
:10515400079A624B1B6803F5817302F071F9079B90
:10516400DA1C5E4B1B6803F590531A6003238DF819
:105174001B3053E0019B01331B7803F00103002B28
:105184004CD0019B02331B781A46019B03331B78D6
:105194001B0213440593019B04331B781A46019B9D
:1051A40005331B781B0213440493059BDA1F049BED
:1051B400D31A0393494B1B68022283F80021474BFF
:1051C4001B68002283F80121444B1B68032283F8E7
:1051D4000221059B013B019A13441B78032B02D146
:1051E400039B002B05DA3D4B1B68012283F8012148
:1051F4000BE0039B98B2019B991D049A039B063311
:105204001C46019B234402F035F9344B1B6803F51B
:10521400905303221A6003238DF81B30BDF802302B
:10522400052B3AD105222E49019811F05CF803466A
:10523400002B32D1294B1B68792283F80021294B9A
:105244001B68DB7C002B12D0244B1B6803F2011378
:105254002549184611F0AEFA234811F0F4FA024633
:105264001E4B1B68023203F590531A6011E01B4B6E
:105274001B6803F201131D49184611F09BFA1B48E1
:1052840011F0E1FA0246154B1B68023203F5905304
:105294001A6003238DF81B301CE0BDF80230042B88
:1052A4000DD104221249019811F01DF80346002B78
:1052B40005D103F0ADF900238DF81B300AE0BDF8E9
:1052C4000230012B06D1019B1B78722B02D10423DF
:1052D4008DF81B30184608B010BD00BF6C38002094
:1052E400A88801006C4C0020B8880100CC8801001B
:1052F400B088010000B585B001900B46ADF80230CE
:1053040000238DF80F30019B1B78022B14D1019BD5
:1053140002331B781A46019B03331B781B021A4481
:10532400BDF802309A4207D1BDF80230013B019A20
:1053340013441B78032B17D0BDF80230052B07D17B
:1053440005220E49019810F0CEFF0346002B0BD026
:10535400BDF80230042B0AD104220949019810F047
:10536400C2FF0346002B02D101238DF80F309DF8B4
:105374000F30184605B05DF804FB00BFA888010093
:10538400B088010000B585B003468DF807300023CE
:105394008DF80F30184B1B68002B03D03A238DF87F
:1053A4000F3023E041F208200EF0B8FA0246124B07
:1053B4001A60114B1B68002B03D13B238DF80F306F
:1053C40014E00E4B002283F81822002283F81922DD
:1053D4004FF4807200210A4811F0B9F9064B1B689A
:1053E40003F5905304339DF807201A709DF80F308D
:1053F400184605B05DF804FB6C3800206C4C0020A6
:10540400864E002000B583B0184BB3F818329BB217
:1054140019461748FFF730FE03468DF807309DF80C
:105424000730002B1DD0114B002283F818220022D4
:1054340083F819220F4B1B6803F590531B68002B4C
:105444000FD00C4B1B6803F580720A4B1B6803F5E5
:1054540090531B681946104600F044FA064810F0B1
:1054640079FF00BF03B05DF804FB00BF6C4C002063
:10547400864E00206C380020E088010010B51B4BDC
:105484001B68002B2FD00EF0E7FC01F041FF174BF7
:105494001B6803F580731649184611F08BF9134BFA
:1054A4001B6803F58072114B1C68104611F0CBF990
:1054B400024604F590531A600C4B1B6803F5807286
:1054C4000A4B1B6803F590531B681946104600F0FD
:1054D40009FA064B1B6818460EF0D0FA034B00225B
:1054E4001A600EF0DFFC00BF10BD00BF6C38002056
:1054F400E888010000B585B001900B46ADF8023094
:1055040000238DF80F30BDF80230022B6AD84B4BC4
:105514001B78002B05D14FF480720021484811F00C
:1055240016F9464B1B78FF2B54D0BDF802301946B0
:10553400019800F0D7F9019B1B780A2B03D0019B3B
:105544001B780D2B1FD13D4B1B78002B6FD03B4B91
:105554001B781A463A493B4811F0D0F8374B1B7870
:105564009AB2394BA3F81822344B1B781A46364B9F
:105574001344002283F81A2202238DF80F302F4B94
:1055840000221A7053E0019B1B78082B14D12B4B7B
:105594001B78002B4BD0294B1B78013BDAB2274BED
:1055A4001A70264B1B781A46254B00219954032167
:1055B400264800F097F93AE0204B1B781A46019BE5
:1055C40019781F4B99541D4B1B780133DAB21B4BCE
:1055D4001A702CE002211E4800F084F9174B0022B7
:1055E4001A7024E0BDF80230FE2B19D8BDF8023041
:1055F4001A460199134811F081F8134BBDF80220A3
:10560400A3F81822BDF802300F4A1344002283F88D
:105614001A220A4B00221A7002238DF80F3006E07A
:1056240002210C4800F05EF9044B00221A709DF828
:105634000F30184605B05DF804FB00BF7038002039
:1056440074380020864E00206C4C0020F088010045
:10565400F4880100F888010000B585B001900B467C
:10566400ADF8023000238DF80F30BDF80230204A27
:1056740012881344FE2B32D81D4B1B8803F5067386
:105684001C4A13440233BDF802200199184611F054
:1056940035F8174B1A88BDF8023013449AB2144BEC
:1056A4001A80134B1B881A46124B1344002283F8AA
:1056B4001A220F4B1B8819460F48FFF71BFE03469F
:1056C4008DF80F309DF80F30012B0BD1084B1A8841
:1056D400084BA3F81822064B00221A8002E0044B60
:1056E40000221A809DF80F30184605B05DF804FBBF
:1056F400743900206C4C0020864E002000B5CBB0DD
:1057040000238DF827310EF0A7FB394BB3F9103085
:105714001BB24693364BB3F912301BB248934FF485
:1057240080734593324BB3F914311BB24493304B1D
:10573400B3F916311BB243934FF4807342930EF0C6
:10574400B1FB469A489BD21A459B013B13404193B7
:10575400449A439BD21A429B013B13404093419B82
:10576400002B3FDD6B464FF480720021184610F089
:10577400EEFF0023479312E01D4A489B1344143361
:1057840019786A46479B13440A461A70489B5A1C68
:10579400459B013B13404893479B01334793479AEA
:1057A400419B9A42E8DB0EF057FB489B1AB2104B20
:1057B4005A820EF077FB0E4B1B79042B08D1419BC8
:1057C4009AB26B4611461846FFF746FF034607E0B8
:1057D400419B9AB26B4611461846FFF78BFE03466F
:1057E4008DF827319DF8273118464BB05DF804FB3E
:1057F4006C4C00200A4B1B78112B01D111230DE0B6
:10580400074B11221A70064B00229A80044B9A8887
:10581400034B5A80024B00221A700023184670472B
:10582400F839002000B585B00190009100238DF86F
:105834000F304FF48053ADF80A30294B1B78112BED
:1058440001D1112347E0264B11221A70244B5B88A7
:10585400ADF80C30224B9B88ADF80830BDF8082019
:10586400BDF80C300133D21ABDF80A30013B1340A5
:10587400009A9A4223DA1AE0019B5A1C0192BDF85D
:105884000C201978164B13440A469A71BDF80C3053
:1058940001339BB21AB2BDF80A30013B9BB21BB272
:1058A40013401BB2ADF80C30009B013B0093009BEE
:1058B400002BE1DC0A4ABDF80C30538006E01321CA
:1058C40000200FF09FF913238DF80F30044B0022B2
:1058D4001A709DF80F30184605B05DF804FB00BF40
:1058E400F839002000B585B001900091124BD3F82F
:1058F4000930009A9A4203DD0F4A009BC2F809302E
:1059040000990198FFF78EFF03468DF80F300A4B7C
:10591400D3F82E33002B09D0074BD3F82E23064B94
:10592400D3F83633194610460EF0BCFC9DF80F3000
:10593400184605B05DF804FB6C4C002000B587B038
:105944004FF480530393294B1B78112B01D100236F
:1059540047E0264B1B78112B01D1112341E0234B47
:1059640011221A70214B5B880293204B9B8805936C
:10597400029A059BD21A039B013B13400193019B9E
:10598400002B2ADD019B802B28BF8023009300235A
:10599400049312E0154A059B134406331978144AFC
:1059A400049B13440A461A70059B5A1C039B013B33
:1059B40013400593049B01330493049A009B9A4279
:1059C400E8DB019A009BD31A0193059B9AB2074B1B
:1059D4009A800099064802F093F8044B00221A704A
:1059E4000023184607B05DF804FB00BFF839002017
:1059F4007839002000B583B00190019B1B681F2BF0
:105A040004D9054940F2C71003F013F94FF0A0433D
:105A1400184603B05DF804FB0489010000B585B0A5
:105A2400019001AB1846FFF7E5FF0390039BD3F801
:105A340004350293029BDA43019B012101FA03F32B
:105A44001A40039BC3F80825019B01229A40029B3C
:105A54001A40039BC3F80C2500BF05B05DF804FB96
:105A640000B589B005900023079307AB18460EF0E4
:105A74009DFC0246084BC3F83223074BD3F8361378
:105A84006B46012218460EF049FC1E20FFF7C6FFA4
:105A9400FFF754FFF1E700BF6C4C002008B5064B3C
:105AA400D3F82E33002B05D00EF0D6F9FFF7A2FE63
:105AB4000EF0F8F900BF08BD6C4C002000B593B09F
:105AC400059007AB20220021184610F040FE002369
:105AD40011931D4BD3F82A136B464FF0FF3218462F
